:020000040800F2
:1000000000800020514A0008C1480008C948000883
:10001000D1480008D9480008E14800080000000065
:100020000000000000000000000000006142000825
:10003000E948000800000000B14400082D3B00081A
:10004000A14A0008A14A0008A14A0008A14A0008E4
:10005000A14A0008A14A0008A14A0008A14A0008D4
:10006000A14A0008A14A0008A14A0008A14A0008C4
:10007000A14A0008A14A0008A14A0008A14A0008B4
:10008000A14A0008A14A0008A14A00080000000097
:10009000000000000000000000000000A14A00086D
:1000A000A14A0008A14A0008A14A0008A14A000884
:1000B000A14A00080000000000000000A14A00085A
:1000C000A14A0008A14A0008A14A0008A14A000864
:1000D000A14A0008A14A0008A14A0008A14A000854
:1000E000A14A0008A14A000800000000000000002A
:1000F0000000000000000000000000000000000000
:1001000000000000000000000000000000000000EF
:100110000000000000000000F94800080000000096
:10012000A14A0008A14A0008A14A0008A14A000803
:10013000A14A0008000000000000000000000000CC
:10014000A14A0008A14A0008A14A0008A14A0008E3
:10015000A14A0008A14A0008A14A0008A14A0008D3
:10016000A14A0008A14A00080000000000000000A9
:1001700000000000A14A000800000000000000008C
:10018000A14A0008A14A0008A14A00080000000096
:100190000348044B834202D0034B03B11847704716
:1001A0001000002010000020000000000548064B51
:1001B0001B1AD90F01EBA301491002D0034B03B165
:1001C00018477047100000201000002000000000B9
:1001D00010B5064C237843B9FFF7DAFF044B13B18F
:1001E0000448AFF300800123237010BD10000020ED
:1001F00000000000184B000808B5054B1BB105496D
:100200000548AFF30080BDE80840FFF7CFBF00BF4F
:100210000000000014000020184B000880B400AF5C
:10022000064BD3F88830054A43F47003C2F888308F
:1002300000BFBD465DF8047B704700BF00ED00E0E5
:1002400080B582B000AF78607B68002B01D10123BC
:1002500049E07B6893F83D30DBB2002B06D17B6828
:10026000002283F83C20786800F041F87B68022285
:1002700083F83D207B681A687B6804331946104672
:1002800000F0C4F97B68012283F848207B680122D2
:1002900083F83E207B68012283F83F207B6801229F
:1002A00083F840207B68012283F841207B6801228B
:1002B00083F842207B68012283F843207B68012277
:1002C00083F844207B68012283F845207B68012263
:1002D00083F846207B68012283F847207B6801224F
:1002E00083F83D20002318460837BD4680BD80B402
:1002F00083B000AF786000BF0C37BD465DF8047B6B
:100300007047000080B485B000AF78607B6893F8D8
:100310003D30DBB2012B01D001233BE07B680222A0
:1003200083F83D207B681B68DA687B681B6842F0B5
:100330000102DA607B681B68194A934209D07B6826
:100340001B68B3F1804F04D07B681B68154A934249
:1003500015D17B681B689A68134B1340FB60FB68E0
:10036000062B15D0FB68B3F5803F11D07B681B6866
:100370001A687B681B6842F001021A6008E07B681B
:100380001B681A687B681B6842F001021A6000E073
:1003900000BF002318461437BD465DF8047B704744
:1003A000002C0140004001400700010080B584B0EE
:1003B00000AF78607B681B68DB68FB607B681B684C
:1003C0001B69BB60BB6803F00203002B20D0FB68F5
:1003D00003F00203002B1BD07B681B686FF0020246
:1003E0001A617B6801221A777B681B689B6903F09E
:1003F0000303002B03D0786800F0E9F805E0786883
:1004000000F0DBF8786800F0ECF87B6800221A77DF
:10041000BB6803F00403002B20D0FB6803F0040347
:10042000002B1BD07B681B686FF004021A617B688D
:1004300002221A777B681B689B6903F44073002BC8
:1004400003D0786800F0C3F805E0786800F0B5F8EC
:10045000786800F0C6F87B6800221A77BB6803F062
:100460000803002B20D0FB6803F00803002B1BD0EF
:100470007B681B686FF008021A617B6804221A7798
:100480007B681B68DB6903F00303002B03D07868EB
:1004900000F09DF805E0786800F08FF8786800F0CB
:1004A000A0F87B6800221A77BB6803F01003002BCA
:1004B00020D0FB6803F01003002B1BD07B681B6867
:1004C0006FF010021A617B6808221A777B681B683C
:1004D000DB6903F44073002B03D0786800F077F8F1
:1004E00005E0786800F069F8786800F07AF87B68D1
:1004F00000221A77BB6803F00103002B0CD0FB68C5
:1005000003F00103002B07D07B681B686FF001022A
:100510001A61786804F0BCF9BB6803F08003002B13
:1005200004D1BB6803F40053002B0CD0FB6803F02C
:100530008003002B07D07B681B686FF402521A619E
:10054000786800F0D7F8BB6803F48073002B0CD0F8
:10055000FB6803F08003002B07D07B681B686FF4F7
:1005600080721A61786800F0CFF8BB6803F040032E
:10057000002B0CD0FB6803F04003002B07D07B68F6
:100580001B686FF040021A61786800F034F8BB68AD
:1005900003F02003002B0CD0FB6803F02003002B9A
:1005A00007D07B681B686FF020021A61786800F042
:1005B00097F800BF1037BD4680BD80B483B000AF50
:1005C000786000BF0C37BD465DF8047B704780B48F
:1005D00083B000AF786000BF0C37BD465DF8047B88
:1005E000704780B483B000AF786000BF0C37BD4661
:1005F0005DF8047B704780B483B000AF786000BFC3
:100600000C37BD465DF8047B7047000080B485B0B0
:1006100000AF786039607B681B68FB607B682D4A9F
:10062000934203D07B68B3F1804F08D1FB6823F07D
:100630007003FB603B685B68FA681343FB607B6890
:10064000244A93420BD07B68B3F1804F07D07B687C
:10065000214A934203D07B68204A934208D1FB6829
:1006600023F44073FB603B68DB68FA681343FB606C
:10067000FB6823F080023B685B691343FB603B68C7
:100680009A687B68DA623B681A687B689A627B6862
:10069000104A934207D07B680F4A934203D07B688D
:1006A0000E4A934203D13B681A697B681A637B68E0
:1006B0001B6843F004027B681A607B6801225A6160
:1006C0007B68FA681A6000BF1437BD465DF8047B8A
:1006D000704700BF002C0140004001400044014031
:1006E00080B483B000AF786000BF0C37BD465DF8C2
:1006F000047B704780B483B000AF786000BF0C37D4
:10070000BD465DF8047B704780B483B000AF78606D
:1007100000BF0C37BD465DF8047B704780B582B0E2
:1007200000AF0023FB71032001F08DF90F2004F0CE
:1007300015F90346002B02D00123FB7101E004F000
:10074000E5F8FB7918460837BD4680BD80B400AF98
:10075000064B1B781A46064B1B681344044A136069
:1007600000BFBD465DF8047B704700BF0800002055
:100770002C00002080B400AF034B1B681846BD4618
:100780005DF8047B704700BF2C00002080B58AB064
:1007900000AF78607B68002B02D1012300F04FBCD2
:1007A000974B9B6803F00C033B62954BDB6803F0AF
:1007B0000303FB617B681B6803F01003002B00F050
:1007C000E6803B6A002B07D03B6A0C2B40F08D8003
:1007D000FB69012B40F08980894B1B6803F0020301
:1007E000002B06D07B68DB69002B02D1012300F0CF
:1007F00026BC7B685A6A824B1B6803F00803002BF7
:1008000004D07F4B1B6803F0F00305E07C4BD3F86A
:1008100094301B0903F0F003934224D27B685B6A97
:10082000184600F0F5FD0346002B02D0012300F02E
:1008300006BC734B1B68724A43F008031360704B8D
:100840001B6823F0F0027B685B6A6D4913430B6001
:100850006B4B5B6823F47F427B681B6A1B02684911
:1008600013434B6025E0664B1B68654A43F0080361
:100870001360634B1B6823F0F0027B685B6A60497E
:1008800013430B605E4B5B6823F47F427B681B6AFB
:100890001B025B4913434B603B6A002B09D17B6809
:1008A0005B6A184600F0B4FD0346002B01D001231B
:1008B000C5E300F0CDFC0246514B9B681B0903F0D9
:1008C0000F035049CB5C03F01F0322FA03F34E4A97
:1008D00013604E4B1B68184604F040F80346FB7546
:1008E000FB7D002B52D0FB7DA9E37B68DB69002BED
:1008F00032D0434B1B68424A43F001031360FFF7B9
:1009000039FFB86108E0FFF735FF0246BB69D31A2B
:10091000022B01D9032392E3394B1B6803F0020336
:10092000002BF0D0364B1B68354A43F008031360A8
:10093000334B1B6823F0F0027B685B6A304913433A
:100940000B602F4B5B6823F47F427B681B6A1B02A2
:100950002B4913434B601AE0294B1B68284A23F0AC
:1009600001031360FFF706FFB86108E0FFF702FF1D
:100970000246BB69D31A022B01D903235FE3204B44
:100980001B6803F00203002BF0D100E000BF7B687E
:100990001B6803F00103002B73D03B6A082B05D0C2
:1009A0003B6A0C2B0ED1FB69032B0BD1144B1B683C
:1009B00003F40033002B63D07B685B68002B5FD1AE
:1009C00001233CE37B685B68B3F5803F06D10C4BA9
:1009D0001B680B4A43F48033136025E07B685B6837
:1009E000B3F5A02F14D1064B1B68054A43F48023AE
:1009F0001360034B1B68024A43F48033136013E017
:100A000000100240544B00080000002004000020A9
:100A10008F4B1B688E4A23F4803313608C4B1B680A
:100A20008B4A23F4802313607B685B68002B13D010
:100A3000FFF7A0FEB86108E0FFF79CFE0246BB6925
:100A4000D31A642B01D90323F9E2814B1B6803F409
:100A50000033002BF0D014E0FFF78CFEB86108E003
:100A6000FFF788FE0246BB69D31A642B01D9032322
:100A7000E5E2774B1B6803F40033002BF0D100E074
:100A800000BF7B681B6803F00203002B60D03B6A49
:100A9000042B05D03B6A0C2B19D1FB69022B16D114
:100AA0006B4B1B6803F48063002B05D07B68DB680D
:100AB000002B01D10123C2E2654B5B6823F0FE42AB
:100AC0007B681B691B06624913434B6040E07B68EF
:100AD000DB68002B23D05E4B1B685D4A43F48073B8
:100AE0001360FFF747FEB86108E0FFF743FE0246D8
:100AF000BB69D31A022B01D90323A0E2544B1B6814
:100B000003F48063002BF0D0514B5B6823F0FE426E
:100B10007B681B691B064E4913434B6018E04C4B26
:100B20001B684B4A23F480731360FFF723FEB86100
:100B300008E0FFF71FFE0246BB69D31A022B01D95A
:100B400003237CE2424B1B6803F48063002BF0D14B
:100B50007B681B6803F00803002B00F082807B6831
:100B60005B69002B5FD03A4BD3F894303B617B68D4
:100B70009A693B6903F010039A4237D03B6903F04E
:100B80000203002B06D03B6903F00103002B01D1C7
:100B9000012354E23B6903F00103002B1BD02C4BD3
:100BA000D3F894302A4A23F00103C2F89430FFF7B7
:100BB000E1FDB86108E0FFF7DDFD0246BB69D31A2D
:100BC000112B01D903233AE2214BD3F8943003F0DF
:100BD0000203002BEFD11E4BD3F8943023F0100208
:100BE0007B689B691A491343C1F89430184BD3F8BA
:100BF0009430174A43F00103C2F89430FFF7BAFD6E
:100C0000B86108E0FFF7B6FD0246BB69D31A112BA5
:100C100001D9032313E20E4BD3F8943003F00203FF
:100C2000002BEFD01DE00A4BD3F89430084A23F094
:100C30000103C2F89430FFF79DFDB8610AE0FFF7A9
:100C400099FD0246BB69D31A112B03D90323F6E1A0
:100C500000100240A94BD3F8943003F00203002B9C
:100C6000EDD17B681B6803F00403002B00F0BD800E
:100C7000002387F82730A14B9B6D03F08053002B96
:100C80000ED19E4B9B6D9D4A43F0805393659B4BC9
:100C90009B6D03F08053FB60FB68012387F82730CE
:100CA000974B1B6803F48073002B18D1944B1B687F
:100CB000934A43F480731360FFF75CFDB86108E06A
:100CC000FFF758FD0246BB69D31A022B01D9032353
:100CD000B5E18B4B1B6803F48073002BF0D07B686D
:100CE0009B6803F00103002B2CD0844BD3F8903089
:100CF00023F080027B689B6803F080037F491343E5
:100D0000C1F890307B689B6803F00403002B10D07F
:100D10007A4BD3F89030794A43F00403C2F890300C
:100D2000764BD3F89030754A43F00103C2F8903007
:100D300018E0724BD3F89030704A43F00103C2F8C8
:100D400090300FE06D4BD3F890306C4A23F00103E4
:100D5000C2F89030694BD3F89030684A23F004030E
:100D6000C2F890307B689B68002B16D0FFF702FD1D
:100D7000B8610AE0FFF7FEFC0246BB69D31A41F2F4
:100D80008832934201D9032359E15C4BD3F8903068
:100D900003F00203002BEDD01DE0FFF7EBFCB86180
:100DA0000AE0FFF7E7FC0246BB69D31A41F288323A
:100DB000934201D9032342E1504BD3F8903003F022
:100DC0000203002BEDD14D4BD3F890304B4A23F06A
:100DD0008003C2F8903097F82730012B05D1474B9C
:100DE0009B6D464A23F0805393657B681B6803F034
:100DF0002003002B3CD07B689B6A002B1CD03F4B10
:100E0000D3F898303D4A43F00103C2F89830FFF719
:100E1000B1FCB86108E0FFF7ADFC0246BB69D31A2C
:100E2000022B01D903230AE1344BD3F8983003F0A5
:100E30000203002BEFD01BE0304BD3F898302F4A41
:100E400023F00103C2F89830FFF794FCB86108E082
:100E5000FFF790FC0246BB69D31A022B01D903238A
:100E6000EDE0264BD3F8983003F00203002BEFD1CE
:100E70007B68DB6A002B00F0E1807B68DB6A022B79
:100E800040F0B5801D4BDB68FB61FB6903F003029A
:100E90007B681B6B9A4224D1FB6903F070027B686C
:100EA0005B6B013B1B019A421BD1FB6903F4FE42C1
:100EB0007B689B6B1B029A4213D1FB6903F4C0024F
:100EC0007B68DB6B5B08013B5B059A4209D1FB69E0
:100ED00003F0C0627B681B6C5B08013B5B069A42B7
:100EE0005FD03B6A0C2B5AD0044B1B68034A23F09B
:100EF00080731360FFF73EFCB8610CE00010024005
:100F000000700040FFF736FC0246BB69D31A022B83
:100F100001D9032393E04C4B1B6803F00073002BB3
:100F2000F0D1494BDA68494B13407A68116B7A6803
:100F3000526B013A120111437A68926B120211430B
:100F40007A68D26B5208013A520511437A68126CE2
:100F50005208013A52060A433B491343CB603A4BCD
:100F60001B68394A43F080731360374BDB68364A9D
:100F700043F08073D360FFF7FDFBB86108E0FFF733
:100F8000F9FB0246BB69D31A022B01D9032356E0B1
:100F90002D4B1B6803F00073002BF0D04EE00123B3
:100FA0004DE0294B1B6803F00073002B46D1264B04
:100FB0001B68254A43F080731360234BDB68224A89
:100FC00043F08073D360FFF7D5FBB86108E0FFF70B
:100FD000D1FB0246BB69D31A022B01D903232EE0B1
:100FE000194B1B6803F00073002BF0D026E03B6A1E
:100FF0000C2B21D0144B1B68134A23F08073136011
:10100000FFF7B8FBB86108E0FFF7B4FB0246BB6925
:10101000D31A022B01D9032311E00B4B1B6803F0F9
:101020000073002BF0D1084BDB68074A23F088736C
:1010300023F00303D36001E0012300E000231846FE
:101040002837BD4680BD00BF001002408C809FF94C
:1010500080B584B000AF786039607B68002B01D127
:101060000123E7E0754B1B6803F007033A689A42D7
:1010700010D9724B1B6823F0070270493B68134379
:101080000B606E4B1B6803F007033A689A4201D06D
:101090000123CFE07B681B6803F00203002B10D014
:1010A0007B689A68664B9B6803F0F0039A4208D904
:1010B000634B9B6823F0F0027B689B686049134395
:1010C0008B607B681B6803F00103002B4CD07B68AE
:1010D0005B68032B07D15A4B1B6803F00073002B8E
:1010E00021D10123A6E07B685B68022B07D1544B1A
:1010F0001B6803F40033002B15D101239AE07B68B1
:101100005B68002B07D14E4B1B6803F00203002BDA
:1011100009D101238EE04A4B1B6803F48063002B46
:1011200001D1012386E0464B9B6823F003027B68D4
:101130005B68434913438B60FFF71CFBF8600AE0D0
:10114000FFF718FB0246FB68D31A41F2883293423C
:1011500001D903236EE03A4B9B6803F00C027B68D5
:101160005B689B009A42EBD17B681B6803F002032B
:10117000002B10D07B689A68314B9B6803F0F0031A
:101180009A4208D22E4B9B6823F0F0027B689B6842
:101190002B4913438B60294B1B6803F007033A6804
:1011A0009A4210D2254B1B6823F0070223493B6863
:1011B00013430B60214B1B6803F007033A689A4204
:1011C00001D0012336E07B681B6803F00403002B89
:1011D00008D01B4B9B6823F4E0627B68DB681849EE
:1011E00013438B607B681B6803F00803002B09D056
:1011F000134B9B6823F460527B681B69DB0010492A
:1012000013438B6000F024F802460D4B9B681B09CA
:1012100003F00F030B49CB5C03F01F0322FA03F327
:10122000094A1360094B1B68184603F097FB0346F5
:10123000FB72FB7A18461037BD4680BD0020024085
:1012400000100240544B0008000000200400002061
:1012500080B489B000AF0023FB610023BB613E4B2B
:101260009B6803F00C033B613B4BDB6803F003031B
:10127000FB603B69002B05D03B690C2B21D1FB683F
:10128000012B1ED1344B1B6803F00803002B07D140
:10129000314BD3F894301B0A03F00F03FB6105E0D8
:1012A0002D4B1B681B0903F00F03FB612B4AFB69E5
:1012B00052F82330FB613B69002B0DD1FB69BB6108
:1012C0000AE03B69042B02D1254BBB6104E03B697A
:1012D000082B01D1234BBB613B690C2B34D11E4B36
:1012E000DB6803F00303BB60BB68022B03D0BB6861
:1012F000032B03D005E01A4B7B6105E0194B7B61A2
:1013000002E0FB697B6100BF134BDB681B0903F044
:10131000070301337B60104BDB681B0A03F07F037C
:101320007A6903FB02F27B68B2FBF3F37B610A4B41
:10133000DB685B0E03F0030301335B003B607A69FB
:101340003B68B2FBF3F3BB61BB6918462437BD466B
:101350005DF8047B704700BF001002406C4B000832
:101360000024F40000127A0080B400AF034B1B6825
:101370001846BD465DF8047B704700BF00000020A2
:1013800080B500AFFFF7F0FF0246064B9B681B0AD3
:1013900003F007030449CB5C03F01F0322FA03F3B5
:1013A000184680BD00100240644B000880B483B032
:1013B00000AF786039607B680F221A60124B9B681F
:1013C00003F003027B685A600F4B9B6803F0F00246
:1013D0007B689A600C4B9B6803F4E0627B68DA6080
:1013E000094B9B68DB0803F4E0627B681A61074BDA
:1013F0001B6803F007023B681A6000BF0C37BD464C
:101400005DF8047B704700BF0010024000200240DE
:1014100080B586B000AF786000233B612A4B9B6D9E
:1014200003F08053002B03D000F0FCF9786114E046
:10143000254B9B6D244A43F080539365224B9B6D53
:1014400003F08053FB60FB6800F0ECF978611E4B01
:101450009B6D1D4A23F0805393657B69B3F5007F34
:101460000BD17B68802B19D97B68A02B02D9022372
:101470003B6113E001233B6110E07B68802B02D9C4
:1014800003233B610AE07B68802B02D102233B618E
:1014900004E07B68702B01D101233B610B4B1B687F
:1014A00023F0070209493B6913430B60074B1B6894
:1014B00003F007033A699A4201D0012300E00023B8
:1014C00018461837BD4680BD00100240002002407B
:1014D00080B400AF054B1B68044A43F0040313605B
:1014E00000BFBD465DF8047B704700BF001002409E
:1014F00080B487B000AF7860396000237B614EE133
:101500003B681A6801217B6901FA03F31340FB6011
:10151000FB68002B00F040813B685B6803F003032D
:10152000012B05D03B685B6803F00303022B30D12D
:101530007B689B683B617B695B00032202FA03F3D3
:10154000DB433A6913403B613B68DA687B695B00C7
:1015500002FA03F33A6913433B617B683A699A6084
:101560007B685B683B6101227B6902FA03F3DB4322
:101570003A6913403B613B685B681B0903F0010259
:101580007B6902FA03F33A6913433B617B683A696A
:101590005A603B685B6803F00303032B17D07B683A
:1015A000DB683B617B695B00032202FA03F3DB43E8
:1015B0003A6913403B613B689A687B695B0002FAB9
:1015C00003F33A6913433B617B683A69DA603B682D
:1015D0005B6803F00303022B23D17B69DA087B6885
:1015E000083253F822303B617B6903F007039B000C
:1015F0000F2202FA03F3DB433A6913403B613B6875
:101600001A697B6903F007039B0002FA03F33A6946
:1016100013433B617B69DA087B680832396943F818
:1016200022107B681B683B617B695B00032202FA26
:1016300003F3DB433A6913403B613B685B6803F0AB
:1016400003027B695B0002FA03F33A6913433B61CF
:101650007B683A691A603B685B6803F44033002B8F
:1016600000F09A80554B1B6E544A43F001031366F9
:10167000524B1B6E03F00103BB60BB68504A7B6991
:101680009B08023352F823303B617B6903F003036C
:101690009B000F2202FA03F3DB433A6913403B61DC
:1016A0007B68B3F1904F13D07B68464A93420DD0CC
:1016B0007B68454A934207D07B68444A934201D1F4
:1016C000032306E0072304E0022302E0012300E0F5
:1016D00000237A6902F00302920093403A691343AF
:1016E0003B6137497B699B0802333A6941F8232003
:1016F000374B9B683B61FB68DB433A6913403B61B6
:101700003B685B6803F48013002B03D03A69FB68E5
:1017100013433B612E4A3B6993602D4BDB683B6171
:10172000FB68DB433A6913403B613B685B6803F449
:101730000013002B03D03A69FB6813433B61244A32
:101740003B69D360224B5B683B61FB68DB433A69D2
:1017500013403B613B685B6803F40033002B03D00C
:101760003A69FB6813433B61194A3B695360184B64
:101770001B683B61FB68DB433A6913403B613B6894
:101780005B6803F48033002B03D03A69FB68134392
:101790003B610F4A3B6913607B6901337B613B68A6
:1017A0001A687B6922FA03F3002B7FF4A9AE00BF0D
:1017B00000BF1C37BD465DF8047B70470010024037
:1017C000000001400004004800080048000C0048E8
:1017D0000004014080B483B000AF78600B467B808A
:1017E00013467B707B78002B03D07A887B689A61E4
:1017F00002E07A887B689A6200BF0C37BD465DF8CC
:10180000047B704780B400AF054B1B68044A43F467
:101810008073136000BFBD465DF8047B704700BF56
:101820000070004080B400AF044B1B6803F4C06339
:101830001846BD465DF8047B704700BF007000404D
:1018400080B485B000AF78607B68B3F5007F30D19D
:10185000234B1B6803F4C063B3F5007F38D0204BE3
:101860001B6823F4C0631E4A43F4007313601D4BCE
:101870001B68322202FB03F31B4AA2FB03239B0CCF
:101880000133FB6002E0FB68013BFB60144B5B69CA
:1018900003F48063B3F5806F02D1FB68002BF2D1B3
:1018A0000F4B5B6903F48063B3F5806F10D10323A2
:1018B0000FE00B4B1B6803F4C063B3F5806F07D0D8
:1018C000074B1B6823F4C063054A43F4806313602D
:1018D000002318461437BD465DF8047B704700BFEF
:1018E000007000400000002083DE1B4380B485B000
:1018F00000AF78607B6803F00703FB600C4BDB688C
:10190000BB60BA684FF6FF031340BB60FB681A0266
:10191000BB68134343F0BF6343F40033BB60044A26
:10192000BB68D36000BF1437BD465DF8047B7047C9
:1019300000ED00E080B400AF044BDB681B0A03F04D
:1019400007031846BD465DF8047B704700ED00E0D4
:1019500080B483B000AF0346FB7197F90730002BCA
:101960000BDBFB7903F01F02074997F907305B098E
:10197000012000FA02F241F8232000BF0C37BD46D7
:101980005DF8047B704700BF00E100E080B483B0E5
:1019900000AF03463960FB7197F90730002B0ADB73
:1019A0003B68DAB20C4997F907301201D2B20B4406
:1019B00083F800230AE03B68DAB20849FB7903F0B8
:1019C0000F03043B1201D2B20B441A7600BF0C374E
:1019D000BD465DF8047B704700E100E000ED00E0EB
:1019E00080B489B000AFF860B9607A60FB6803F03A
:1019F0000703FB61FB69C3F10703042B28BF042322
:101A0000BB61FB690433062B02D9FB69033B00E091
:101A100000237B614FF0FF32BB6902FA03F3DA4324
:101A2000BB681A407B699A404FF0FF317B6901FA2D
:101A300003F3D9437B680B40134318462437BD4654
:101A40005DF8047B704780B582B000AF786078683D
:101A5000FFF74CFF00BF0837BD4680BD80B586B09C
:101A600000AF0346B9607A60FB7300237B61FFF728
:101A700061FF78617A68B9687869FFF7B1FF02465B
:101A800097F90F3011461846FFF780FF00BF18374F
:101A9000BD4680BD80B582B000AF0346FB7197F9AB
:101AA00007301846FFF754FF00BF0837BD4680BD1A
:101AB00080B483B000AF78607B6803F108027B6874
:101AC0005A607B684FF0FF329A607B6803F108022E
:101AD0007B68DA607B6803F108027B681A617B68C7
:101AE00000221A6000BF0C37BD465DF8047B7047CA
:101AF00080B483B000AF78607B6800221A6100BFB9
:101B00000C37BD465DF8047B704780B485B000AFEC
:101B1000786039607B685B68FB603B68FA685A6094
:101B2000FB689A683B689A60FB689B683A685A60F1
:101B3000FB683A689A603B687A681A617B681B6840
:101B40005A1C7B681A6000BF1437BD465DF8047BE1
:101B5000704780B485B000AF786039603B681B681F
:101B6000BB60BB68B3F1FF3F03D17B681B69FB60BF
:101B70000CE07B680833FB6002E0FB685B68FB609D
:101B8000FB685B681B68BA689A42F6D2FB685A68C1
:101B90003B685A603B685B683A689A603B68FA68E1
:101BA0009A60FB683A685A603B687A681A617B6899
:101BB0001B685A1C7B681A6000BF1437BD465DF86D
:101BC000047B704780B485B000AF78607B681B6988
:101BD000FB607B685B687A6892689A607B689B6848
:101BE0007A6852685A60FB685B687A689A4203D1E7
:101BF0007B689A68FB685A607B6800221A61FB6800
:101C00001B685A1EFB681A60FB681B68184614376D
:101C1000BD465DF8047B704780B584B000AF786046
:101C200039607B68FB60FB68002B0BD14FF05003E1
:101C300083F31188BFF36F8FBFF34F8FBB6000BF7B
:101C400000BFFDE702F0D8FBFB681A68FB68DB6B9E
:101C5000F968096C01FB03F31A44FB689A60FB689E
:101C600000229A63FB681A68FB685A60FB681A686E
:101C7000FB68DB6B013BF968096C01FB03F31A4459
:101C8000FB68DA60FB68FF2283F84420FB68FF22D0
:101C900083F845203B68002B14D1FB681B69002B9F
:101CA0001AD0FB681033184601F01AF90346002BCE
:101CB00012D00D4B4FF080521A60BFF34F8FBFF31D
:101CC0006F8F09E0FB6810331846FFF7F1FEFB68E1
:101CD00024331846FFF7ECFE02F0C0FB0123184640
:101CE0001037BD4680BD00BF04ED00E080B58EB06A
:101CF00002AFF860B9607A603B60FB68002B0BD1E3
:101D00004FF0500383F31188BFF36F8FBFF34F8FF2
:101D1000BB6200BF00BFFDE73B68002B0BD14FF05B
:101D2000500383F31188BFF36F8FBFF34F8F7B6234
:101D300000BF00BFFDE77B68002B02D0BB68002B13
:101D400001D0012300E00023002B0BD14FF0500302
:101D500083F31188BFF36F8FBFF34F8F3B6200BFD8
:101D600000BFFDE77B68002B02D1BB68002B01D1CF
:101D7000012300E00023002B0BD14FF0500383F32D
:101D80001188BFF36F8FBFF34F8FFB6100BF00BFA0
:101D9000FDE750237B617B69502B0BD04FF0500344
:101DA00083F31188BFF36F8FBFF34F8FBB6100BF09
:101DB00000BFFDE77B693B68FB62FB6A002B0DD02F
:101DC000FB6A012283F8462097F83820FB6A0093CB
:101DD00013467A68B968F86800F005F8FB6A184697
:101DE0003037BD4680BD80B584B000AFF860B960C3
:101DF0007A60FB70BB68002B03D1BB69BA691A60BB
:101E000002E0BB697A681A60BB69FA68DA63BB6989
:101E1000BA681A640121B869FFF7FEFEBB69FA7857
:101E200083F84C2000BF1037BD4680BD80B58EB012
:101E300000AFF860B9607A603B6000237B63FB68A9
:101E40003B633B6B002B0BD14FF0500383F31188A6
:101E5000BFF36F8FBFF34F8FBB6200BF00BFFDE7C3
:101E6000BB68002B03D13B6B1B6C002B01D1012302
:101E700000E00023002B0BD14FF0500383F31188B7
:101E8000BFF36F8FBFF34F8F7B6200BF00BFFDE7D3
:101E90003B68022B03D13B6BDB6B012B01D1012390
:101EA00000E00023002B0BD14FF0500383F3118887
:101EB000BFF36F8FBFF34F8F3B6200BF00BFFDE7E3
:101EC00001F0CEF90346002B02D17B68002B01D133
:101ED000012300E00023002B0BD14FF0500383F3CC
:101EE0001188BFF36F8FBFF34F8FFB6100BF00BF3F
:101EF000FDE702F081FA3B6B9A6B3B6BDB6B9A421E
:101F000002D33B68022B29D13A68B968386B00F0DC
:101F10000FFAF8623B6B5B6A002B10D03B6B2433EB
:101F2000184600F0DDFF0346002B13D03F4B4FF067
:101F300080521A60BFF34F8FBFF36F8F0AE0FB6AC6
:101F4000002B07D0394B4FF080521A60BFF34F8FF0
:101F5000BFF36F8F02F082FA012363E07B68002BEE
:101F600003D102F07BFA00235CE07B6B002B06D1EF
:101F700007F11403184601F017F801237B6302F000
:101F80006DFA00F087FD02F037FA3B6B93F84430AE
:101F90005BB2B3F1FF3F03D13B6B002283F84420D7
:101FA0003B6B93F845305BB2B3F1FF3F03D13B6B22
:101FB000002283F8452002F051FA3A1D07F114037C
:101FC0001146184601F006F80346002B24D1386B61
:101FD00000F0A6FA0346002B18D03B6B10337A684A
:101FE0001146184600F02AFF386B00F031FA00F075
:101FF0005FFD0346002B7FF47CAF0C4B4FF080520B
:102000001A60BFF34F8FBFF36F8F72E7386B00F02A
:102010001FFA00F04DFD6CE7386B00F019FA00F084
:1020200047FD002318463837BD4680BD04ED00E06B
:1020300080B590B000AFF860B9607A603B60FB6833
:10204000BB63BB6B002B0BD14FF0500383F31188A4
:10205000BFF36F8FBFF34F8FBB6200BF00BFFDE7C1
:10206000BB68002B03D1BB6B1B6C002B01D1012380
:1020700000E00023002B0BD14FF0500383F31188B5
:10208000BFF36F8FBFF34F8F7B6200BF00BFFDE7D1
:102090003B68022B03D1BB6BDB6B012B01D101230E
:1020A00000E00023002B0BD14FF0500383F3118885
:1020B000BFF36F8FBFF34F8F3B6200BF00BFFDE7E1
:1020C00002F07AFAEFF311824FF0500383F3118894
:1020D000BFF36F8FBFF34F8FFA61BB61FB697B6307
:1020E000BB6B9A6BBB6BDB6B9A4202D33B68022BD8
:1020F0002FD1BB6B93F8453087F83330BB6B9B6BAC
:10210000FB623A68B968B86B00F012F997F933309E
:10211000B3F1FF3F12D1BB6B5B6A002B16D0BB6BD8
:102120002433184600F0DCFE0346002B0ED07B68FB
:10213000002B0BD07B6801221A6007E097F8333040
:102140000133DBB25AB2BB6B83F845200123FB633A
:1021500001E00023FB637B6B7B617B6983F3118868
:1021600000BFFB6B18464037BD4680BD80B58CB0C4
:1021700000AFF860B9607A600023FB62FB68BB6265
:10218000BB6A002B0BD14FF0500383F31188BFF3D0
:102190006F8FBFF34F8F3B6200BF00BFFDE7BB688F
:1021A000002B03D1BB6A1B6C002B01D1012300E083
:1021B0000023002B0BD14FF0500383F31188BFF3A2
:1021C0006F8FBFF34F8FFB6100BF00BFFDE701F0D2
:1021D00047F80346002B02D17B68002B01D1012375
:1021E00000E00023002B0BD14FF0500383F3118844
:1021F000BFF36F8FBFF34F8FBB6100BF00BFFDE721
:1022000002F0FAF8BB6A9B6B7B627B6A002B1FD0E3
:10221000B968B86A00F0F6F87B6A5A1EBB6A9A631E
:10222000BB6A1B69002B0FD0BB6A1033184600F045
:1022300057FE0346002B07D03C4B4FF080521A60EC
:10224000BFF34F8FBFF36F8F02F008F9012369E0EE
:102250007B68002B03D102F001F9002362E0FB6AE6
:10226000002B06D107F11003184600F09DFE012354
:10227000FB6202F0F3F800F00DFC02F0BDF8BB6A5F
:1022800093F844305BB2B3F1FF3F03D1BB6A002245
:1022900083F84420BB6A93F845305BB2B3F1FF3F4B
:1022A00003D1BB6A002283F8452002F0D7F83A1D1B
:1022B00007F110031146184600F08CFE0346002B70
:1022C00023D1B86A00F016F90346002B17D0BB6A79
:1022D00024337A681146184600F0B0FDB86A00F061
:1022E000B7F800F0E5FB0346002B89D10F4B4FF008
:1022F00080521A60BFF34F8FBFF36F8F80E7B86AC9
:1023000000F0A6F800F0D4FB7AE7B86A00F0A0F875
:1023100000F0CEFBB86A00F0EDF80346002B3FF466
:102320006FAF002318463037BD4680BD04ED00E096
:1023300080B586B000AFF860B9607A6000237B6139
:10234000FB689B6B3B61FB681B6C002B0DD1FB6832
:102350001B68002B4DD1FB689B68184600F09EFF60
:102360007861FB6800229A6043E07B68002B19D1FA
:10237000FB685868FB681B6C1A46B96802F0BEFB24
:10238000FB685A68FB681B6C1A44FB685A60FB6860
:102390005A68FB689B689A422BD3FB681A68FB68F3
:1023A0005A6026E0FB68D868FB681B6C1A46B9685F
:1023B00002F0A4FBFB68DA68FB681B6C5B421A4402
:1023C000FB68DA60FB68DA68FB681B689A4207D230
:1023D000FB689A68FB681B6C5B421A44FB68DA6016
:1023E0007B68022B05D13B69002B02D03B69013B86
:1023F0003B613B695A1CFB689A637B691846183736
:10240000BD4680BD80B582B000AF786039607B6822
:102410001B6C002B18D07B68DA687B681B6C1A4435
:102420007B68DA607B68DA687B689B689A4203D3D2
:102430007B681A687B68DA607B68D9687B681B6C8C
:102440001A46386802F05AFB00BF0837BD4680BD07
:1024500080B584B000AF786001F0CEFF7B6893F860
:102460004530FB7311E07B685B6A002B12D07B6800
:102470002433184600F034FD0346002B01D000F051
:102480000DFEFB7B013BDBB2FB7397F90F30002B9A
:10249000E9DC00E000BF7B68FF2283F8452001F003
:1024A000DDFF01F0A9FF7B6893F84430BB7311E0B6
:1024B0007B681B69002B12D07B681033184600F034
:1024C0000FFD0346002B01D000F0E8FDBB7B013B74
:1024D000DBB2BB7397F90E30002BE9DC00E000BFE4
:1024E0007B68FF2283F8442001F0B8FF00BF10375B
:1024F000BD4680BD80B584B000AF786001F07CFF40
:102500007B689B6B002B02D10123FB6001E0002361
:10251000FB6001F0A3FFFB6818461037BD4680BD85
:1025200080B584B000AF786001F066FF7B689A6B7D
:102530007B68DB6B9A4202D10123FB6001E0002340
:10254000FB6001F08BFFFB6818461037BD4680BD6D
:1025500080B485B000AF786039600023FB6014E080
:102560000F4AFB6852F83330002B0BD10C49FB6843
:102570003A6841F833200A4AFB68DB0013447A6862
:102580005A6006E0FB680133FB60FB68072BE7D964
:1025900000BF00BF1437BD465DF8047B704700BF25
:1025A0003000002080B586B000AFF860B9607A6076
:1025B000FB687B6101F020FF7B6993F844305BB2DC
:1025C000B3F1FF3F03D17B69002283F844207B698C
:1025D00093F845305BB2B3F1FF3F03D17B69002232
:1025E00083F8452001F03AFF7B699B6B002B06D1F5
:1025F0007B6924337A68B968184600F045FC78692D
:10260000FFF726FF00BF1837BD4680BD80B58EB0EE
:1026100004AFF860B9607A603B607B6B002B0BD134
:102620004FF0500383F31188BFF36F8FBFF34F8FC9
:102630003B6200BF00BFFDE7BB6B002B0BD14FF02F
:10264000500383F31188BFF36F8FBFF34F8FFB618C
:1026500000BF00BFFDE75C233B613B695C2B0BD0F7
:102660004FF0500383F31188BFF36F8FBFF34F8F89
:10267000BB6100BF00BFFDE73B69BB6B002B1ED0F9
:102680007B6B002B1BD0BB6B7B627B6A7A6B1A6304
:102690007B6A022283F85920002303937B6A02930A
:1026A00007F1140301933B6B00933B687A68B968A8
:1026B000F86800F050F8786A00F0DEF801E00023D6
:1026C0007B617B6918462837BD4680BD80B58CB0DC
:1026D00004AFF860B9603B601346FB80FB889B0049
:1026E000184601F069FB78617B69002B0ED05C20F5
:1026F00001F062FBF861FB69002B03D0FB697A698A
:102700001A6305E0786901F025FC01E00023FB6114
:10271000FB69002B17D0FB69002283F85920FA8847
:1027200000230393FB690293FB6A0193BB6A009346
:102730003B68B968F86800F00EF8F86900F09CF89A
:102740000123BB6102E04FF0FF33BB61BB69184658
:102750002037BD4680BD80B588B000AFF860B96055
:102760007A603B603B6B186B7B689B001A46A52127
:1027700002F097F93B6B1A6B7B6803F18043013BD6
:102780009B001344BB61BB6923F00703BB61BB69BA
:1027900003F00703002B0BD04FF0500383F3118895
:1027A000BFF36F8FBFF34F8F7B6100BF00BFFDE7AB
:1027B000BB68002B1FD00023FB6112E0BA68FB69E5
:1027C000134419783A6BFB69134434330A461A7080
:1027D000BA68FB6913441B78002B06D0FB690133F0
:1027E000FB61FB690F2BE9D900E000BF3B6B0022C6
:1027F00083F8432003E03B6B002283F83420BB6A5C
:10280000372B01D93723BB623B6BBA6ADA623B6B69
:10281000BA6ADA643B6B00221A653B6B04331846D4
:10282000FFF766F93B6B18331846FFF761F93B6B0E
:102830003A6B1A61BB6AC3F138023B6B9A613B6B1E
:102840003A6B5A623B6B00225A653B6B002283F85D
:1028500058203A68F968B86901F09CFC02463B6B65
:102860001A60FB6A002B02D0FB6A3A6B1A6000BF49
:102870002037BD4680BD000080B582B000AF7860D3
:1028800001F0BAFD2D4B1B6801332C4A13602C4B11
:102890001B68002B09D12A4A7B681360274B1B68F1
:1028A000012B10D100F01EFC0DE0264B1B68002B05
:1028B00009D1234B1B68DA6A7B68DB6A9A4202D82B
:1028C0001F4A7B681360204B1B6801331E4A13604C
:1028D0001D4B1A687B685A647B68DA6A1B4B1B685D
:1028E0009A4203D97B68DB6A184A13607B68DA6A0C
:1028F00013469B0013449B00154A1A447B6804331B
:1029000019461046FFF701F901F0A8FD0D4B1B68B1
:10291000002B0ED00A4B1B68DA6A7B68DB6A9A428E
:1029200007D20C4B4FF080521A60BFF34F8FBFF3AA
:102930006F8F00BF0837BD4680BD00BF4405002033
:102940007000002050050020600500204C0500208C
:102950007400002004ED00E080B584B000AF786022
:102960000023FB607B68002B18D0144B1B68002BE6
:102970000BD04FF0500383F31188BFF36F8FBFF379
:102980004F8FBB6000BF00BFFDE700F083F8002160
:10299000786800F0F3FC00F08BF8F860FB68002B1F
:1029A00007D1074B4FF080521A60BFF34F8FBFF330
:1029B0006F8F00BF1037BD4680BD00BF6C05002083
:1029C00004ED00E080B58AB004AF0023BB600023B3
:1029D0007B603A46391D07F10803184601F0B8F943
:1029E00039687B68BA680292019300230093002340
:1029F0000A4622492248FFF709FE0346214A13608E
:102A0000204B1B68002B02D001237B6101E00023D7
:102A10007B617B69012B02D100F004FD78617B6949
:102A2000012B16D14FF0500383F31188BFF36F8F42
:102A3000BFF34F8F3B6100BF134B4FF0FF321A6063
:102A4000124B01221A60124B00221A6001F030FC76
:102A50000FE07B69B3F1FF3F0BD14FF0500383F3DD
:102A60001188BFF36F8FBFF34F8FFB6000BF00BFB4
:102A7000FDE700BF1837BD4680BD00BF304B0008E2
:102A8000B5300008680500206405002050050020CE
:102A90004805002080B400AF044B1B680133034A93
:102AA000136000BFBD465DF8047B70476C050020D5
:102AB00080B584B000AF0023FB600023BB60424BB5
:102AC0001B68002B0BD14FF0500383F31188BFF329
:102AD0006F8FBFF34F8F3B6000BF00BFFDE701F07A
:102AE0008BFC394B1B68013B374A1360364B1B6824
:102AF000002B62D1354B1B68002B5ED02FE0344B8E
:102B0000DB68DB68FB60FB6818331846FFF75AF890
:102B1000FB6804331846FFF755F8FB68DA6A2D4B5B
:102B20001B689A4203D9FB68DB6A2A4A1360FB6878
:102B3000DA6A13469B0013449B00274A1A44FB6839
:102B4000043319461046FEF7E0FFFB68DA6A234BB0
:102B50001B68DB6A9A4202D3214B01221A601C4B8C
:102B60001B68002BCBD1FB68002B01D000F058FB79
:102B70001C4B1B687B607B68002B10D000F046F874
:102B80000346002B02D0164B01221A607B68013BE2
:102B90007B607B68002BF1D1124B00221A60104B36
:102BA0001B68002B09D00123BB600F4B4FF08052F4
:102BB0001A60BFF34F8FBFF36F8F01F04FFCBB68FC
:102BC00018461037BD4680BD6C0500204405002026
:102BD000040500204C050020740000207000002037
:102BE000580500205405002004ED00E080B483B0B7
:102BF00000AF054B1B687B607B6818460C37BD46F1
:102C00005DF8047B704700BF4805002080B586B0A2
:102C100000AF00237B614F4B1B68002B40F090807E
:102C20004D4B1B6801333B614B4A3B6913603B6969
:102C3000002B21D1494B1B681B68002B0BD04FF098
:102C4000500383F31188BFF36F8FBFF34F8F3B6047
:102C500000BF00BFFDE7414B1B68FB60404B1B689A
:102C60003E4A13603E4AFB6813603E4B1B680133CB
:102C70003C4A136000F0D4FA3B4B1B683A699A4215
:102C800049D3364B1B681B68002B04D1364B4FF0E1
:102C9000FF321A603FE0314B1B68DB68DB68BB60CA
:102CA000BB685B687B603A697B689A4203D22E4AB4
:102CB0007B6813602FE0BB6804331846FEF782FF81
:102CC000BB689B6A002B04D0BB6818331846FEF71C
:102CD00079FFBB68DA6A254B1B689A4203D9BB6847
:102CE000DB6A224A1360BB68DA6A13469B0013440E
:102CF0009B001F4A1A44BB68043319461046FEF76E
:102D000004FFBB68DA6A1B4B1B68DB6A9A42B8D3C4
:102D100001237B61B5E7174B1B68DA6A1449134638
:102D20009B0013449B000B441B68012B01D901231A
:102D30007B61114B1B68002B07D001237B6104E0F2
:102D40000E4B1B6801330D4A13607B691846183718
:102D5000BD4680BD6C05002048050020FC04002015
:102D6000000500205C050020640500204C050020C3
:102D70007400002070000020580500205405002039
:102D800080B485B000AF284B1B68002B03D0274BC5
:102D900001221A6042E0254B00221A60244B1B6876
:102DA000FB6011E0FB68002B0BD14FF0500383F365
:102DB0001188BFF36F8FBFF34F8F7B6000BF00BFE1
:102DC000FDE7FB68013BFB601A49FA6813469B006C
:102DD00013449B000B441B68002BE3D0FA68134696
:102DE0009B0013449B00134A1344BB60BB685B68A1
:102DF0005A68BB685A60BB685A68BB6808339A4215
:102E000004D1BB685B685A68BB685A60BB685B6882
:102E1000DB68094A1360064AFB68136000BF143779
:102E2000BD465DF8047B70476C0500205805002006
:102E30004C050020740000207000002080B584B094
:102E400000AF786039607B68002B0BD14FF05003E6
:102E500083F31188BFF36F8FBFF34F8FFB6000BF09
:102E600000BFFDE7074B1B68183319467868FEF76B
:102E700070FE0121386800F081FA00BF1037BD46AE
:102E800080BD00BF7000002080B586B000AFF86044
:102E9000B9607A60FB68002B0BD14FF0500383F3CD
:102EA0001188BFF36F8FBFF34F8F7B6100BF00BFEF
:102EB000FDE70A4B1B6818331946F868FEF725FE34
:102EC0007B68002B02D04FF0FF33BB607968B86895
:102ED00000F054FA00BF1837BD4680BD70000020D6
:102EE00080B586B000AF78607B68DB68DB683B61EB
:102EF0003B69002B0BD14FF0500383F31188BFF3D4
:102F00006F8FBFF34F8FFB6000BF00BFFDE73B69D2
:102F100018331846FEF756FE1D4B1B68002B1DD1BB
:102F20003B6904331846FEF74DFE3B69DA6A194BDC
:102F30001B689A4203D93B69DB6A164A13603B69F6
:102F4000DA6A13469B0013449B00134A1A443B69F8
:102F5000043319461046FEF7D8FD05E03B691833E7
:102F600019460E48FEF7D1FD3B69DA6A0C4B1B6827
:102F7000DB6A9A4205D901237B610A4B01221A6060
:102F800001E000237B617B6918461837BD4680BD90
:102F90006C0500204C050020740000200405002072
:102FA000700000205805002080B483B000AF786026
:102FB000064B1A687B681A60054B1A687B685A6072
:102FC00000BF0C37BD465DF8047B70475C050020F0
:102FD0004805002080B588B000AF786039607B6814
:102FE000002B0BD14FF0500383F31188BFF36F8F89
:102FF000BFF34F8F3B6100BF00BFFDE73B68002B75
:103000000BD14FF0500383F31188BFF36F8FBFF3E1
:103010004F8FFB6000BF00BFFDE701F0EDF91D4BD6
:103020001B68BB617B685B68BA69D31A7B613B68CC
:103030001B68B3F1FF3F02D10023FB6123E07B68F3
:103040001A68154B1B689A4207D07B685B68BA699F
:103050009A4202D30123FB6115E03B681B687A6941
:103060009A420BD23B681A687B69D21A3B681A6095
:103070007868FFF799FF0023FB6104E03B680022BA
:103080001A600123FB6101F0E9F9FB69184620375A
:10309000BD4680BD480500205C05002080B400AF1F
:1030A000034B01221A6000BFBD465DF8047B7047E8
:1030B0005805002080B582B000AF786000F052F86B
:1030C000064B1B68012BF9D9054B4FF080521A6053
:1030D000BFF34F8FBFF36F8FF0E700BF7400002086
:1030E00004ED00E080B582B000AF00237B600CE00F
:1030F0007A6813469B0013449B00124A13441846F7
:10310000FEF7D6FC7B6801337B607B68372BEFD9F9
:103110000D48FEF7CDFC0D48FEF7CAFC0C48FEF743
:10312000C7FC0C48FEF7C4FC0B48FEF7C1FC0B4B78
:10313000054A1A600A4B054A1A6000BF0837BD46A7
:1031400080BD00BF74000020D4040020E8040020EB
:10315000040500201805002030050020FC04002094
:103160000005002080B582B000AF19E001F044F9FD
:10317000104BDB68DB687B607B6804331846FEF726
:1031800021FD0D4B1B68013B0B4A13600B4B1B6869
:10319000013B0A4A136001F061F9786800F010F809
:1031A000064B1B68002BE1D100BF00BF0837BD46AE
:1031B00080BD00BF18050020440500202C0500201C
:1031C00080B584B000AF78607B6893F85930002BED
:1031D00008D17B681B6B184600F0BCFE786800F0D5
:1031E000B9FE19E07B6893F85930012B03D1786858
:1031F00000F0B0FE10E07B6893F85930022B0BD042
:103200004FF0500383F31188BFF36F8FBFF34F8FDD
:10321000FB6000BF00BFFDE700BF1037BD4680BDAB
:1032200080B483B000AF0C4B1B681B68002B04D12B
:103230000A4B4FF0FF321A6008E0074B1B68DB684F
:10324000DB687B607B685B68044A136000BF0C37F7
:10325000BD465DF8047B7047FC0400206405002037
:1032600080B483B000AF0B4B1B68002B02D101234D
:103270007B6008E0084B1B68002B02D102237B60B7
:1032800001E000237B607B6818460C37BD465DF883
:10329000047B7047500500206C05002080B586B087
:1032A00000AF78607B683B6100237B617B68002B0B
:1032B00058D02F4B1B683A699A420BD04FF05003FD
:1032C00083F31188BFF36F8FBFF34F8FFB6000BF95
:1032D00000BFFDE73B691B6D002B0BD14FF0500386
:1032E00083F31188BFF36F8FBFF34F8FBB6000BFB5
:1032F00000BFFDE73B691B6D5A1E3B691A653B69C0
:10330000DA6A3B69DB6C9A422CD03B691B6D002B5F
:1033100028D13B6904331846FEF754FC3B69DA6C4C
:103320003B69DA623B69DB6AC3F138023B699A6147
:103330003B69DA6A0F4B1B689A4203D93B69DB6A27
:103340000C4A13603B69DA6A13469B0013449B00E6
:10335000094A1A443B69043319461046FEF7D5FB67
:1033600001237B617B6918461837BD4680BD00BFCD
:10337000700000204C0500207400002080B584B04F
:1033800000AF78603960214B1B68FB60204B1B68E5
:1033900004331846FEF716FC7B68B3F1FF3F0AD1F1
:1033A0003B68002B07D01A4B1B6804331946194899
:1033B000FEF7ABFB26E0FA687B681344BB60144B56
:1033C0001B68BA685A60BA68FB689A4209D2124B05
:1033D0001A680F4B1B68043319461046FEF7B9FBF9
:1033E00010E00E4B1A680A4B1B680433194610464E
:1033F000FEF7AFFB0A4B1B68BA689A4202D2084A32
:10340000BB68136000BF1037BD4680BD4805002073
:10341000700000203005002000050020FC04002082
:103420006405002080B58AB004AF00237B6100F002
:1034300013FB1D4B1B68002B21D00023FB600023D6
:10344000BB603A1D07F1080107F10C03184600F0B4
:1034500099FC7968BB68FA68029201930223009391
:1034600000230A4611491248FFF7D0F80346114AD3
:103470001360104B1B68002B01D001237B617B691B
:10348000002B0BD14FF0500383F31188BFF36F8FE4
:10349000BFF34F8F3B6100BF00BFFDE77B6918465C
:1034A0001837BD4680BD00BFA0050020384B00087E
:1034B000F1350008A405002080B58AB000AFF8609F
:1034C000B9607A603B6000237B62FB68002B0BD104
:1034D0004FF0500383F31188BFF36F8FBFF34F8F0B
:1034E0003B6200BF00BFFDE7194B1B68002B2AD0D1
:1034F000BB683B617B687B61FB68BB61BB68052B7C
:1035000018DCFFF7ADFE0346022B09D1104B1868FB
:1035100007F1100100233A6BFEF788FC786212E095
:103520000B4B186807F1100100230022FEF77EFC08
:10353000786208E0064B186807F1100100233A682A
:10354000FEF776FD78627B6A18462837BD4680BD57
:10355000A005002080B588B002AF78603960234BA9
:103560001B68DB68DB687B617B6904331846FEF708
:1035700029FB7B6993F8283003F00403002B23D048
:103580007B699A697B68D1187B683A68786900F032
:10359000D5F80346002B20D00023009300237A683F
:1035A00000217869FFF788FF38613B69002B14D14F
:1035B0004FF0500383F31188BFF36F8FBFF34F8F2A
:1035C000FB6000BF00BFFDE77B6993F8283023F064
:1035D0000103DAB27B6983F828207B691B6A78696A
:1035E000984700BF1837BD4680BD00BF9805002032
:1035F00080B584B000AF786007F10803184600F08A
:1036000059F8F860BB681946F86800F005F800F052
:10361000D7F800BFF0E7000080B584B000AF786055
:103620003960FFF737FA07F10803184600F066F82B
:10363000F860BB68002B30D13B68002B0AD17A6858
:10364000FB689A4206D8FFF733FAF9687868FFF703
:1036500081FF24E03B68002B08D0134B1B681B68DC
:10366000002B01D1012300E000233B600F4B1868C1
:103670007A68FB68D31A3A681946FEF793FFFFF79A
:1036800017FA0346002B0AD1094B4FF080521A60FB
:10369000BFF34F8FBFF36F8F01E0FFF709FA00BF51
:1036A0001037BD4680BD00BF9C050020A00500204E
:1036B00004ED00E080B485B000AF78600E4B1B686D
:1036C0001B68002B01D1012200E000227B681A60F8
:1036D0007B681B68002B05D1074B1B68DB681B68E8
:1036E000FB6001E00023FB60FB6818461437BD4611
:1036F0005DF8047B704700BF9805002080B584B05A
:1037000000AF7860FFF772FAF8600B4B1B68FA683D
:103710009A4205D200F03AF97B6801221A6002E071
:103720007B6800221A60044AFB681360FB68184635
:103730001037BD4680BD00BFA805002080B586B00B
:1037400000AFF860B9607A603B6000237B61FB6882
:10375000BA685A60FB68FA681A61BA687B689A426C
:1037600012D87A683B68D21AFB689B699A4202D3E6
:1037700001237B611BE0104B1A68FB680433194678
:103780001046FEF7E6F912E07A683B689A4206D2E4
:10379000BA683B689A4202D301237B6107E0074B7A
:1037A0001A68FB68043319461046FEF7D2F97B69A4
:1037B00018461837BD4680BD9C050020980500209E
:1037C00080B58EB002AFCEE07B68002B19DA3B1DCE
:1037D0000433FB62FB6A002B0BD14FF0500383F3E1
:1037E0001188BFF36F8FBFF34F8FFB6100BF00BF26
:1037F000FDE7FB6A1B68FA6A5068FA6A926811462C
:1038000098477B68002BC0F2AE80FB68BB62BB6A46
:103810005B69002B04D0BB6A04331846FEF7D2F96B
:103820003B461846FFF76AFF78627B68092B00F277
:10383000978001A252F823F061380008613800082F
:1038400061380008D7380008EB380008373900081D
:103850006138000861380008D7380008EB380008E4
:10386000BB6A93F8283043F00103DAB2BB6A83F8ED
:103870002820BA68BB6A9B69D118BB687A6AB86AA3
:10388000FFF75CFF0346002B6CD0BB6A1B6AB86A6B
:103890009847BB6A93F8283003F00403002B61D0EB
:1038A000BA68BB6A9B691A44002300930023002175
:1038B000B86AFFF701FE38623B6A002B52D14FF025
:1038C000500383F31188BFF36F8FBFF34F8FBB613A
:1038D00000BF00BFFDE7BB6A93F8283023F0010367
:1038E000DAB2BB6A83F828203DE0BB6A93F828303F
:1038F00043F00103DAB2BB6A83F82820BA68BB6AD6
:103900009A61BB6A9B69002B0BD14FF0500383F384
:103910001188BFF36F8FBFF34F8F7B6100BF00BF74
:10392000FDE7BB6A9A697B6AD1187B6A7A6AB86AD2
:10393000FFF704FF17E0BB6A93F8283003F0020397
:10394000002B03D1B86A00F005FB0CE0BB6A93F8CA
:10395000283023F00103DAB2BB6A83F8282002E0A2
:1039600000BF00E000BF084B1B68391D002218464D
:10397000FEF7FCFB0346002B7FF426AF00BF00BF21
:103980003037BD4680BD00BFA005002080B588B09F
:1039900002AF49E02E4B1B68DB681B683B612C4B78
:1039A0001B68DB68DB68FB60FB6804331846FEF7C6
:1039B00009F9FB681B6AF8689847FB6893F8283098
:1039C00003F00403002B2FD0FB689B693A69134472
:1039D000BB60BA683B699A420ED9FB68BA685A6004
:1039E000FB68FA681A611A4B1A68FB6804331946B7
:1039F0001046FEF7AEF817E00023009300233A6963
:103A00000021F868FFF758FD78607B68002B0BD128
:103A10004FF0500383F31188BFF36F8FBFF34F8FC5
:103A20003B6000BF00BFFDE7094B1B681B68002B14
:103A3000B0D1074B1B687B61064B1B68044A1360BF
:103A4000044A7B69136000BF1837BD4680BD00BFC4
:103A5000980500209C05002080B582B002AF00F0E0
:103A6000CBFC154B1B68002B20D11448FEF720F827
:103A70001348FEF71DF8134B104A1A60124B104AF8
:103A80001A6000230093114B114A10210A20FEF7FF
:103A90002DF90346084A1360074B1B68002B05D01D
:103AA000054B1B680B491846FEF752FD00F0D6FC8B
:103AB00000BFBD4680BD00BFA005002070050020EE
:103AC00084050020980500209C0500204C0600205D
:103AD000AC050020404B000880B483B000AF034623
:103AE0003960FB7197F90730002B0ADB3B68DAB2CB
:103AF0000C4997F907301201D2B20B4483F8002326
:103B00000AE03B68DAB20849FB7903F00F03043B93
:103B10001201D2B20B441A7600BF0C37BD465DF8D5
:103B2000047B704700E100E000ED00E080B500AFED
:103B3000054B1B68FFF794FB0346012B01D000F0F7
:103B4000EBFC00BF80BD00BF10E000E080B500AF1F
:103B500000216FF00400FFF7BFFF00BF80BD000031
:103B600080B483B000AFEFF305833B603B68002B6C
:103B700003D06FF005037B600CE00A4B1B68002B41
:103B800005D1084B01221A6000237B6002E04FF050
:103B9000FF337B607B6818460C37BD465DF8047BBD
:103BA000704700BF9C06002080B582B000AFEFF3E5
:103BB00005833B603B68002B03D06FF005037B60FF
:103BC00010E00B4B1B68012B09D1FFF7BFFF084B1F
:103BD00002221A60FEF7F6FE00237B6002E04FF03F
:103BE000FF337B607B6818460837BD4680BD00BF49
:103BF0009C06002080B58EB004AFF860B9607A6092
:103C000000233B61EFF305837B617B69002B7ED151
:103C1000FB68002B7BD080233B621823FB610023D1
:103C20007B624FF0FF33BB617B68002B45D07B6824
:103C30001B68002B02D07B681B687B627B689B69DA
:103C4000002B02D07B689B69FB61FB69002B08D0CD
:103C5000FB69382B05D87B685B6803F00103002BF8
:103C600001D0002354E07B685B69002B03D07B68A4
:103C70005B699B083B627B689B68002B0ED07B686E
:103C8000DB685B2B0AD97B681B69002B06D07B683D
:103C90005B69002B02D00123BB6110E07B689B684D
:103CA000002B0CD17B68DB68002B08D17B681B697B
:103CB000002B04D10023BB6101E00023BB61BB6981
:103CC000012B10D17B681B697A689268029201937C
:103CD000FB690093BB683A6A796AF868FEF796FC5C
:103CE00003463B6113E0BB69002B10D13B6A9AB2DB
:103CF00007F110030193FB690093BB68796AF868C8
:103D0000FEF7E4FC0346012B01D000233B613B6935
:103D100018462837BD4680BD80B584B000AF7860B6
:103D2000EFF30583BB60BB68002B03D06FF0050386
:103D3000FB6007E00023FB607B68002B02D0786803
:103D4000FEF70AFEFB6818461037BD4680BD00002E
:103D500080B485B000AFF860B9607A60FB68074A4C
:103D60001A60BB68064A1A607B6880221A6000BF2E
:103D70001437BD465DF8047B704700BFA0060020E5
:103D8000FC06002080B485B000AFF860B9607A60AE
:103D9000FB68074A1A60BB68064A1A607B684FF4E2
:103DA00080721A6000BF1437BD465DF8047B70470F
:103DB000FC0800205809002080B58AB000AF786068
:103DC0000023FB61FEF766FE5C4B1B68002B01D1F4
:103DD00000F024F95A4B1A687B681340002B40F01E
:103DE00095807B68002B1ED008227B6813447B6083
:103DF0007B6803F00703002B15D07B6823F00703D3
:103E000008337B607B6803F00703002B0BD04FF077
:103E1000500383F31188BFF36F8FBFF34F8F7B6124
:103E200000BF00BFFDE77B68002B6FD0454B1B68D0
:103E30007A689A426AD8444B3B62434B1B687B6268
:103E400004E07B6A3B627B6A1B687B627B6A5B681F
:103E50007A689A4203D97B6A1B68002BF1D1374BF1
:103E60001B687A6A9A4251D03B6A1B680822134445
:103E7000FB617B6A1A683B6A1A607B6A5A687B68D6
:103E8000D21A08235B009A4220D97A6A7B681344CD
:103E9000BB61BB6903F00703002B0BD04FF050034D
:103EA00083F31188BFF36F8FBFF34F8F3B6100BF68
:103EB00000BFFDE77B6A5A687B68D21ABB695A600B
:103EC0007B6A7A685A60B86900F00AF91D4B1A6873
:103ED0007B6A5B68D31A1B4A13601A4B1A681B4B28
:103EE0001B689A4203D2174B1B68184A13607B6AFF
:103EF0005A68134B1B681A437B6A5A607B6A00221C
:103F00001A60134B1B680133114A1360FEF7D0FD92
:103F1000FB6903F00703002B0BD04FF0500383F332
:103F20001188BFF36F8FBFF34F8FFB6000BF00BFDF
:103F3000FDE7FB6918462837BD4680BD18190020EB
:103F40002C1900201C190020101900202019002015
:103F50002419002080B586B000AF78607B687B6153
:103F60007B68002B4FD008235B427A6913447B6146
:103F70007B693B613B695A68254B1B681340002BEA
:103F80000BD14FF0500383F31188BFF36F8FBFF352
:103F90004F8FFB6000BF00BFFDE73B691B68002B34
:103FA0000BD04FF0500383F31188BFF36F8FBFF333
:103FB0004F8FBB6000BF00BFFDE73B695A68144BE1
:103FC0001B681340002B1ED03B691B68002B1AD1C5
:103FD0003B695A680E4B1B68DB431A403B695A60C9
:103FE000FEF758FD3B695A680A4B1B681344094A9F
:103FF0001360386900F074F8074B1B680133064AF8
:104000001360FEF755FD00BF1837BD4680BD00BFE9
:104010002C1900201C1900202819002080B485B01C
:1040200000AF40F6B833BB60274BFB60FB6803F082
:104030000703002B0CD0FB680733FB60FB6823F001
:104040000703FB60BA68FB68D31A1F4A1344BB60BE
:10405000FB687B601D4A7B6813601C4B00225A6022
:104060007B68BA681344FB600822FB689B1AFB60FC
:10407000FB6823F00703FB60FB68154A1360144BD1
:104080001B6800225A60124B1B6800221A607B6872
:104090003B603B68FA68D21A3B685A600C4B1A685E
:1040A0003B681A603B685B680A4A13603B685B6860
:1040B000094A1360094B4FF000421A6000BF1437E1
:1040C000BD465DF8047B7047580D00201019002094
:1040D00018190020201900201C1900202C1900207C
:1040E00080B485B000AF7860284BFB6002E0FB68CD
:1040F0001B68FB60FB681B687A689A42F7D8FB680C
:10410000BB60FB685B68BA6813447A689A4208D15E
:10411000FB685A687B685B681A44FB685A60FB68F6
:104120007B607B68BB607B685B68BA681A44FB682D
:104130001B689A4218D1FB681A68154B1B689A4293
:104140000DD07B685A68FB681B685B681A447B6803
:104150005A60FB681B681A687B681A6008E00C4BA1
:104160001A687B681A6003E0FB681A687B681A604B
:10417000FA687B689A4202D0FB687A681A6000BFCE
:104180001437BD465DF8047B704700BF101900204E
:104190001819002080B485B000AFF860B9607A606B
:1041A000FB68043BFB60FB684FF080721A60FB68A1
:1041B000043BFB60BB6823F00102FB681A60FB68EC
:1041C000043BFB600C4AFB681A60FB68143BFB6015
:1041D0007A68FB681A60FB68043BFB60FB686FF061
:1041E00002021A60FB68203BFB60FB68184614372C
:1041F000BD465DF8047B7047FD41000880B485B082
:1042000000AF00237B60134B1B68B3F1FF3F0BD063
:104210004FF0500383F31188BFF36F8FBFF34F8FBD
:10422000FB6000BF00BFFDE74FF0500383F3118830
:10423000BFF36F8FBFF34F8FBB6000BF00BF7B68C2
:10424000002BFCD000BF00BF1437BD465DF8047BD7
:10425000704700BF0C0000200000000000000000BC
:10426000074B19680868B0E8F04F80F30988BFF37E
:104270006F8F4FF0000080F311887047AFF300801C
:104280007000002000BF00BF08480068006880F38D
:1042900008884FF0000080F3148862B661B6BFF35F
:1042A0004F8FBFF36F8F00DF00BF00BF08ED00E04E
:1042B00080B586B000AF474B1B68474A93420BD18D
:1042C0004FF0500383F31188BFF36F8FBFF34F8F0D
:1042D000FB6000BF00BFFDE73E4B1B683F4A9342B7
:1042E0000BD14FF0500383F31188BFF36F8FBFF3EF
:1042F0004F8F3B6100BF00BFFDE7394B7B617B699E
:104300001B78DBB27B607B69FF221A707B691B78AC
:10431000DBB2FB70FB78DBB203F05003DAB2314B57
:104320001A70314B07221A6009E02F4B1B68013BC2
:104330002D4A1360FB78DBB25B00DBB2FB70FB78CD
:10434000DBB203F08003802BEFD0274B1B68C3F157
:104350000703042B0BD04FF0500383F31188BFF3F6
:104360006F8FBFF34F8FBB6000BF00BFFDE71E4BD9
:104370001B681B021C4A13601B4B1B6803F4E063A1
:10438000194A13607B68DAB27B691A70174B1B6895
:10439000164A43F470031360144B1B68134A43F02E
:1043A0007043136000F0DAF8114B00221A6000F03D
:1043B000F9F8104B1B680F4A43F040431360FFF7B6
:1043C00063FFFEF7DDFCFFF719FF002318461837DF
:1043D000BD4680BD00ED00E071C20F4170C20F41CB
:1043E00000E400E0301900203419002020ED00E046
:1043F0000C00002034EF00E080B483B000AF4FF039
:10440000500383F31188BFF36F8FBFF34F8F7B602F
:1044100000BF104B1B6801330E4A13600D4B1B6825
:10442000012B10D10C4B1B68DBB2002B0BD04FF0D3
:10443000500383F31188BFF36F8FBFF34F8F3B603F
:1044400000BF00BFFDE700BF0C37BD465DF8047B31
:10445000704700BF0C00002004ED00E080B483B082
:1044600000AF124B1B68002B0BD14FF0500383F3AE
:104470001188BFF36F8FBFF34F8F7B6000BF00BF0A
:10448000FDE70A4B1B68013B084A1360074B1B689A
:10449000002B05D100233B603B6883F3118800BFEC
:1044A00000BF0C37BD465DF8047B70470C00002050
:1044B000EFF30980BFF36F8F154B1A681EF0100FD2
:1044C00008BF20ED108A20E9F04F106009B44FF0CA
:1044D000500080F31188BFF34F8FBFF36F8FFEF74B
:1044E0004FFC4FF0000080F3118809BC1968086880
:1044F000B0E8F04F1EF0100F08BFB0EC108A80F348
:104500000988BFF36F8F7047AFF30080AFF300806F
:104510007000002000BF00BF80B582B000AF4FF038
:10452000500383F31188BFF36F8FBFF34F8F7B600E
:1045300000BFFEF76BFB0346002B03D0064B4FF08A
:1045400080521A6000233B603B6883F3118800BFF0
:1045500000BF0837BD4680BD04ED00E080B400AF69
:104560000B4B00221A600B4B00221A600A4B1B688F
:104570000A4AA2FB03239B09094A013B1360044B2F
:1045800007221A6000BFBD465DF8047B704700BF7C
:1045900010E000E018E000E000000020D34D6210C1
:1045A00014E000E0DFF80C00016841F470010160E4
:1045B000704700BF88ED00E080B485B000AFEFF336
:1045C0000583FB60FB680F2B15D9184AFB68134461
:1045D0001B78FB72164B1B78FA7A9A420BD24FF07B
:1045E000500383F31188BFF36F8FBFF34F8F7B604E
:1045F00000BF00BFFDE70F4B1B6803F4E0620E4BEA
:104600001B689A420BD94FF0500383F31188BFF314
:104610006F8FBFF34F8F3B6000BF00BFFDE700BF50
:104620001437BD465DF8047B704700BFF0E300E03F
:10463000301900200CED00E03419002080B500AFE7
:10464000FCF76CF800F016F800F06AF8FFF788FA4B
:10465000054A00210548FFF7CDFA0346044A1360D6
:10466000FFF7A2FA00BFFDE79C4B00088148000855
:104670003819002080B596B000AF07F1140344222A
:104680000021184600F00DFA3B4600221A605A60DD
:104690009A60DA601A614FF40070FDF7D1F80346B2
:1046A000002B01D000F006F9FDF7ACF81B4BD3F856
:1046B00090301A4A23F01803C2F8903014237B611B
:1046C0000123FB6101233B6300237B636023BB6306
:1046D00000233B6407F114031846FCF757F8034620
:1046E000002B01D000F0E6F80F233B6000237B6035
:1046F0000023BB600023FB6000233B613B4600219D
:104700001846FCF7A5FC0346002B01D000F0D2F8B8
:10471000FCF7DEFE00BF5837BD4680BD00100240EA
:1047200080B58AB000AF07F1140300221A605A6006
:104730009A60DA601A614F4BDB6C4E4A43F0040317
:10474000D3644C4BDB6C03F004033B613B69494B86
:10475000DB6C484A43F08003D364464BDB6C03F0C8
:104760008003FB60FB68434BDB6C424A43F0010370
:10477000D364404BDB6C03F00103BB60BB683D4B73
:10478000DB6C3C4A43F00203D3643A4BDB6C03F02E
:1047900002037B607B68002201213748FDF71AF88D
:1047A0000022C0213548FDF715F800224FF40061C2
:1047B0004FF09040FDF70EF802237B610023BB61B0
:1047C0000023FB6107F1140319462C48FCF790FE07
:1047D0000C237B610223BB610023FB6103233B624B
:1047E00007237B6207F1140319464FF09040FCF752
:1047F0007FFE01237B610123BB610023FB6100235A
:104800003B6207F1140319461B48FCF771FEC023F5
:104810007B610123BB610023FB6100233B6207F145
:10482000140319461548FCF763FE4FF400637B61DF
:104830000123BB610023FB6103233B6207F11403E7
:1048400019464FF09040FCF753FEC0237B610223D2
:10485000BB610023FB6103233B6207237B6207F1FB
:10486000140319460448FCF743FE00BF2837BD4631
:1048700080BD00BF0010024000040048000800484E
:1048800080B582B000AF78600120FFF745FAFBE702
:1048900080B582B000AF78607B681B68044A9342A1
:1048A00001D1FBF753FF00BF0837BD4680BD00BFF5
:1048B0000010004080B400AF72B600BF00BFFDE73B
:1048C00080B400AF00BFFDE780B400AF00BFFDE7DC
:1048D00080B400AF00BFFDE780B400AF00BFFDE7CC
:1048E00080B400AF00BFFDE780B400AF00BFBD469D
:1048F0005DF8047B7047000080B500AF0248FBF70D
:1049000055FD00BF80BD00BF3C19002080B582B0BE
:1049100000AF114B1B6E104A43F0010313660E4BA0
:104920001B6E03F001037B607B680B4B9B6D0A4A97
:1049300043F080539365084B9B6D03F080533B60BD
:104940003B6800220F216FF00100FDF787F800BFE0
:104950000837BD4680BD00BF0010024080B58EB054
:1049600000AF7860002387F83330344B9B6D334AB7
:1049700043F010039365314B9B6D03F01003FB6014
:10498000FB6807F1100207F1140311461846FCF703
:104990000DFD3B6AFB62FB6A002B03D1FCF7F0FCC8
:1049A000786304E0FCF7ECFC03465B007B637B6B05
:1049B000234AA2FB03239B0C013BBB62214B224AEF
:1049C0001A60204B40F2E732DA601E4ABB6A53603D
:1049D0001C4B00221A611B4B00229A60194B0022CB
:1049E0009A611848FBF72CFC034687F8333097F898
:1049F0003330002B1BD11348FBF784FC034687F8A8
:104A0000333097F83330002B11D13620FDF742F8C0
:104A10007B680F2B08D8002279683620FDF71EF836
:104A20000A4A7B68136002E0012387F8333097F865
:104A3000333018463837BD4680BD00BF00100240F5
:104A400083DE1B433C1900200010004004000020BE
:104A5000DFF834D0FBF7E2FB0C480D490D4A002388
:104A600002E0D458C4500433C4188C42F9D30A4A23
:104A70000A4C002301E013600432A242FBD300F091
:104A800019F8FFF7DBFDFEE70080002000000020A2
:104A900010000020D04B00081000002088190020D2
:104AA000FEE702440346934200D1704703F8011B1E
:104AB000F9E7000070B50D4B0D4D5B1B9C100026F7
:104AC000A64209D100F028F80A4D0B4B5B1B9C1045
:104AD0000026A64205D170BD55F8043B9847013623
:104AE000EEE755F8043B98470136F2E7C04B000863
:104AF000C04B0008C04B0008C44B00080A44914258
:104B000000F1FF3300D1704710B511F8014B03F8E5
:104B1000014F9142F9D110BDF8B500BFF8BC08BCF7
:104B20009E467047F8B500BFF8BC08BC9E4670476B
:104B300049444C4500000000546D722053766300D8
:104B4000546D72510000000064656661756C7454A8
:104B500061736B000000000000000000010203040C
:104B6000060708090000000001020304A0860100F6
:104B7000400D0300801A060000350C0040420F0073
:104B800080841E0000093D0000127A000024F40019
:104B900000366E010048E801006CDC02484B00085A
:104BA0000000000000000000000000000000000005
:104BB00000020000180000000000000000000000DB
:084BC000F901000800000000EB
:084BC800D1010008000000000B
:104BD00000093D001000000001000000AAAAAAAAD6
:0400000508004A5154
:00000001FF
