:020000040800F2
:1000000000800020697500082B7300083373000816
:100010003B730008437300084B73000800000000A6
:10002000000000000000000000000000D16B00088C
:100030005373000800000000216E0008F55F0008FF
:10004000B9750008B9750008B9750008B9750008D8
:10005000B9750008B9750008B9750008B9750008C8
:10006000B9750008B9750008B9750008B9750008B8
:10007000B9750008B9750008B9750008B9750008A8
:10008000B9750008B9750008B975000800000000CE
:10009000000000000000000000000000B97500082A
:1000A000B9750008B9750008B9750008B975000878
:1000B000B97500080000000000000000B9750008D4
:1000C000B9750008B9750008B9750008B975000858
:1000D000B9750008B9750008AD6F0008B97500085A
:1000E000B9750008B97500080000000000000000A4
:1000F0000000000000000000000000000000000000
:1001000000000000000000000000000000000000EF
:100110000000000000000000617300080000000003
:10012000B9750008B9750008B9750008B9750008F7
:10013000B975000800000000000000000000000089
:10014000B9750008B9750008B9750008B9750008D7
:10015000B9750008B9750008B9750008B9750008C7
:10016000B9750008B9750008000000000000000023
:1001700000000000B9750008000000000000000049
:10018000B9750008B9750008B975000800000000CD
:1001900053B94AB9002908BF00281CBF4FF0FF31EE
:1001A0004FF0FF3000F00CB8ADF1080C6DE904CE53
:1001B00007F004FADDF804E0DDE9022304B070473B
:1001C000704700BF0348044B834202D0034B03B186
:1001D0001847704760000020600000200000000009
:1001E0000548064B1B1AD90F01EBA301491002D099
:1001F000034B03B1184770476000002060000020E7
:100200000000000010B5064C237843B9FFF7DAFF71
:10021000044B13B10448AFF300800123237010BDD9
:100220006000002000000000947A000808B5054B2B
:100230001BB105490548AFF30080BDE80840FFF752
:10024000CFBF00BF0000000064000020947A0008C7
:1002500080B400AF064BD3F88830054A43F47003EE
:10026000C2F8883000BFBD465DF8047B704700BF10
:1002700000ED00E080B582B000AF78607B68002BB5
:1002800001D1012349E07B6893F83D30DBB2002BBC
:1002900006D17B68002283F83C20786800F041F8A2
:1002A0007B68022283F83D207B681A687B680433F0
:1002B0001946104600F0CEF97B68012283F84820E9
:1002C0007B68012283F83E207B68012283F83F206F
:1002D0007B68012283F840207B68012283F841205B
:1002E0007B68012283F842207B68012283F8432047
:1002F0007B68012283F844207B68012283F8452033
:100300007B68012283F846207B68012283F847201E
:100310007B68012283F83D20002318460837BD463C
:1003200080BD80B483B000AF786000BF0C37BD469D
:100330005DF8047B7047000080B485B000AF786042
:100340007B6893F83D30DBB2012B01D001233BE009
:100350007B68022283F83D207B681B68DA687B6833
:100360001B6842F00102DA607B681B68194A9342FD
:1003700009D07B681B68B3F1804F04D07B681B6891
:10038000154A934215D17B681B689A68134B13403A
:10039000FB60FB68062B15D0FB68B3F5803F11D0DE
:1003A0007B681B681A687B681B6842F001021A6050
:1003B00008E07B681B681A687B681B6842F00102D2
:1003C0001A6000E000BF002318461437BD465DF8F0
:1003D000047B7047002C01400040014007000100F1
:1003E00080B584B000AF78607B681B68DB68FB6019
:1003F0007B681B681B69BB60BB6803F00203002BB2
:1004000020D0FB6803F00203002B1BD07B681B6825
:100410006FF002021A617B6801221A777B681B6801
:100420009B6903F00303002B03D0786800F0F3F816
:1004300005E0786800F0E5F8786800F0F6F87B6889
:1004400000221A77BB6803F00403002B20D0FB685E
:1004500003F00403002B1BD07B681B686FF00402C1
:100460001A617B6802221A777B681B689B6903F418
:100470004073002B03D0786800F0CDF805E0786871
:1004800000F0BFF8786800F0D0F87B6800221A7797
:10049000BB6803F00803002B20D0FB6803F00803BF
:1004A000002B1BD07B681B686FF008021A617B6809
:1004B00004221A777B681B68DB6903F00303002BB7
:1004C00003D0786800F0A7F805E0786800F099F8A4
:1004D000786800F0AAF87B6800221A77BB6803F0FE
:1004E0001003002B20D0FB6803F01003002B1BD05F
:1004F0007B681B686FF010021A617B6808221A770C
:100500007B681B68DB6903F44073002B03D07868B9
:1005100000F081F805E0786800F073F8786800F082
:1005200084F87B6800221A77BB6803F00103002B74
:100530000CD0FB6803F00103002B07D07B681B681D
:100540006FF001021A61786800F051F8BB6803F09F
:100550008003002B04D1BB6803F40053002B0CD0A4
:10056000FB6803F08003002B07D07B681B686FF4E7
:1005700002521A61786800F0E1F8BB6803F48073F6
:10058000002B0CD0FB6803F08003002B07D07B68A6
:100590001B686FF480721A61786800F0D9F8BB6844
:1005A00003F04003002B0CD0FB6803F04003002B4A
:1005B00007D07B681B686FF040021A61786800F012
:1005C0003EF8BB6803F02003002B0CD0FB6803F05F
:1005D0002003002B07D07B681B686FF020021A6194
:1005E000786800F0A1F800BF1037BD4680BD80B428
:1005F00083B000AF786000BF0C37BD465DF8047B68
:10060000704780B483B000AF786000BF0C37BD4640
:100610005DF8047B704780B483B000AF786000BFA2
:100620000C37BD465DF8047B704780B483B000AFE3
:10063000786000BF0C37BD465DF8047B704780B41E
:1006400083B000AF786000BF0C37BD465DF8047B17
:100650007047000080B485B000AF786039607B6877
:100660001B68FB607B682D4A934203D07B68B3F123
:10067000804F08D1FB6823F07003FB603B685B6828
:10068000FA681343FB607B68244A93420BD07B6873
:10069000B3F1804F07D07B68214A934203D07B6837
:1006A000204A934208D1FB6823F44073FB603B6807
:1006B000DB68FA681343FB60FB6823F080023B6849
:1006C0005B691343FB603B689A687B68DA623B684E
:1006D0001A687B689A627B68104A934207D07B68ED
:1006E0000F4A934203D07B680E4A934203D13B6882
:1006F0001A697B681A637B681B6843F004027B6895
:100700001A607B6801225A617B68FA681A6000BF30
:100710001437BD465DF8047B704700BF002C0140D4
:10072000004001400044014080B483B000AF7860D5
:1007300000BF0C37BD465DF8047B704780B483B0C2
:1007400000AF786000BF0C37BD465DF8047B704792
:1007500080B483B000AF786000BF0C37BD465DF851
:10076000047B704780B582B000AF0023FB7103208B
:1007700001F047FB0F2006F07DFE0346002B02D060
:100780000123FB7101E006F0F5FDFB7918460837FF
:10079000BD4680BD80B400AF034B1B681846BD4604
:1007A0005DF8047B704700BF7C00002080B584B0FA
:1007B00000AF7860FFF7EEFFB8607B68FB60FB6816
:1007C000B3F1FF3F05D00A4B1B781A46FB68134470
:1007D000FB6000BFFFF7DEFF0246BB68D31AFA6872
:1007E0009A42F7D800BF00BF1037BD4680BD00BF9A
:1007F0000800002080B58AB000AF78607B68002BCD
:1008000002D1012300F04FBC974B9B6803F00C030F
:100810003B62954BDB6803F00303FB617B681B685D
:1008200003F01003002B00F0E6803B6A002B07D09A
:100830003B6A0C2B40F08D80FB69012B40F08980D6
:10084000894B1B6803F00203002B06D07B68DB6931
:10085000002B02D1012300F026BC7B685A6A824B30
:100860001B6803F00803002B04D07F4B1B6803F0C8
:10087000F00305E07C4BD3F894301B0903F0F00340
:10088000934224D27B685B6A184600F00BFE034655
:10089000002B02D0012300F006BC734B1B68724A88
:1008A00043F008031360704B1B6823F0F0027B6871
:1008B0005B6A6D4913430B606B4B5B6823F47F42AB
:1008C0007B681B6A1B02684913434B6025E0664B3B
:1008D0001B68654A43F008031360634B1B6823F0F1
:1008E000F0027B685B6A604913430B605E4B5B6898
:1008F00023F47F427B681B6A1B025B4913434B60F6
:100900003B6A002B09D17B685B6A184600F0CAFD80
:100910000346002B01D00123C5E300F0CDFC0246C5
:10092000514B9B681B0903F00F035049CB5C03F04C
:100930001F0322FA03F34E4A13604E4B1B681846FE
:1009400006F098FD0346FB75FB7D002B52D0FB7D26
:10095000A9E37B68DB69002B32D0434B1B68424A1A
:1009600043F001031360FFF715FFB86108E0FFF7DC
:1009700011FF0246BB69D31A022B01D9032392E36C
:10098000394B1B6803F00203002BF0D0364B1B6879
:10099000354A43F008031360334B1B6823F0F00221
:1009A0007B685B6A304913430B602F4B5B6823F411
:1009B0007F427B681B6A1B022B4913434B601AE082
:1009C000294B1B68284A23F001031360FFF7E2FE5E
:1009D000B86108E0FFF7DEFE0246BB69D31A022BBE
:1009E00001D903235FE3204B1B6803F00203002BB4
:1009F000F0D100E000BF7B681B6803F00103002B0F
:100A000073D03B6A082B05D03B6A0C2B0ED1FB69D7
:100A1000032B0BD1144B1B6803F40033002B63D062
:100A20007B685B68002B5FD101233CE37B685B68DC
:100A3000B3F5803F06D10C4B1B680B4A43F480335F
:100A4000136025E07B685B68B3F5A02F14D1064BDB
:100A50001B68054A43F480231360034B1B68024A5A
:100A600043F48033136013E000100240D47A00088E
:100A700000000020040000208F4B1B688E4A23F4E6
:100A8000803313608C4B1B688B4A23F480231360E4
:100A90007B685B68002B13D0FFF77CFEB86108E031
:100AA000FFF778FE0246BB69D31A642B01D90323F2
:100AB000F9E2814B1B6803F40033002BF0D014E003
:100AC000FFF768FEB86108E0FFF764FE0246BB6905
:100AD000D31A642B01D90323E5E2774B1B6803F497
:100AE0000033002BF0D100E000BF7B681B6803F0EF
:100AF0000203002B60D03B6A042B05D03B6A0C2B11
:100B000019D1FB69022B16D16B4B1B6803F4806370
:100B1000002B05D07B68DB68002B01D10123C2E2EA
:100B2000654B5B6823F0FE427B681B691B066249CC
:100B300013434B6040E07B68DB68002B23D05E4BA7
:100B40001B685D4A43F480731360FFF723FEB861AE
:100B500008E0FFF71FFE0246BB69D31A022B01D93A
:100B60000323A0E2544B1B6803F48063002BF0D0F6
:100B7000514B5B6823F0FE427B681B691B064E49A4
:100B800013434B6018E04C4B1B684B4A23F48073B3
:100B90001360FFF7FFFDB86108E0FFF7FBFD0246B9
:100BA000BB69D31A022B01D903237CE2424B1B6899
:100BB00003F48063002BF0D17B681B6803F008030B
:100BC000002B00F082807B685B69002B5FD03A4B82
:100BD000D3F894303B617B689A693B6903F010035A
:100BE0009A4237D03B6903F00203002B06D03B69E1
:100BF00003F00103002B01D1012354E23B6903F010
:100C00000103002B1BD02C4BD3F894302A4A23F03D
:100C10000103C2F89430FFF7BDFDB86108E0FFF7AB
:100C2000B9FD0246BB69D31A112B01D903233AE25D
:100C3000214BD3F8943003F00203002BEFD11E4B6D
:100C4000D3F8943023F010027B689B691A49134350
:100C5000C1F89430184BD3F89430174A43F001038D
:100C6000C2F89430FFF796FDB86108E0FFF792FDF7
:100C70000246BB69D31A112B01D9032313E20E4B91
:100C8000D3F8943003F00203002BEFD01DE00A4BA1
:100C9000D3F89430084A23F00103C2F89430FFF7E8
:100CA00079FDB8610AE0FFF775FD0246BB69D31A0A
:100CB000112B03D90323F6E100100240A94BD3F80E
:100CC000943003F00203002BEDD17B681B6803F026
:100CD0000403002B00F0BD80002387F82730A14BD0
:100CE0009B6D03F08053002B0ED19E4B9B6D9D4A54
:100CF00043F0805393659B4B9B6D03F08053FB60E7
:100D0000FB68012387F82730974B1B6803F4807337
:100D1000002B18D1944B1B68934A43F480731360E3
:100D2000FFF738FDB86108E0FFF734FD0246BB6904
:100D3000D31A022B01D90323B5E18B4B1B6803F4B3
:100D40008073002BF0D07B689B6803F00103002BBD
:100D50002CD0844BD3F8903023F080027B689B68C2
:100D600003F080037F491343C1F890307B689B6890
:100D700003F00403002B10D07A4BD3F89030794A5B
:100D800043F00403C2F89030764BD3F89030754AA4
:100D900043F00103C2F8903018E0724BD3F8903062
:100DA000704A43F00103C2F890300FE06D4BD3F866
:100DB00090306C4A23F00103C2F89030694BD3F8AD
:100DC0009030684A23F00403C2F890307B689B6837
:100DD000002B16D0FFF7DEFCB8610AE0FFF7DAFC63
:100DE0000246BB69D31A41F28832934201D90323E8
:100DF00059E15C4BD3F8903003F00203002BEDD0A7
:100E00001DE0FFF7C7FCB8610AE0FFF7C3FC02462C
:100E1000BB69D31A41F28832934201D9032342E1DC
:100E2000504BD3F8903003F00203002BEDD14D4B23
:100E3000D3F890304B4A23F08003C2F8903097F8F3
:100E40002730012B05D1474B9B6D464A23F0805339
:100E500093657B681B6803F02003002B3CD07B6804
:100E60009B6A002B1CD03F4BD3F898303D4A43F08F
:100E70000103C2F89830FFF78DFCB86108E0FFF776
:100E800089FC0246BB69D31A022B01D903230AE16C
:100E9000344BD3F8983003F00203002BEFD01BE063
:100EA000304BD3F898302F4A23F00103C2F8983022
:100EB000FFF770FCB86108E0FFF76CFC0246BB6905
:100EC000D31A022B01D90323EDE0264BD3F8983037
:100ED00003F00203002BEFD17B68DB6A002B00F0EC
:100EE000E1807B68DB6A022B40F0B5801D4BDB683C
:100EF000FB61FB6903F003027B681B6B9A4224D100
:100F0000FB6903F070027B685B6B013B1B019A423B
:100F10001BD1FB6903F4FE427B689B6B1B029A4268
:100F200013D1FB6903F4C0027B68DB6B5B08013BF8
:100F30005B059A4209D1FB6903F0C0627B681B6CB8
:100F40005B08013B5B069A425FD03B6A0C2B5AD090
:100F5000044B1B68034A23F080731360FFF71AFCED
:100F6000B8610CE00010024000700040FFF712FC76
:100F70000246BB69D31A022B01D9032393E04C4BE1
:100F80001B6803F00073002BF0D1494BDA68494B22
:100F900013407A68116B7A68526B013A120111435F
:100FA0007A68926B120211437A68D26B5208013A46
:100FB000520511437A68126C5208013A52060A43EC
:100FC0003B491343CB603A4B1B68394A43F080736B
:100FD0001360374BDB68364A43F08073D360FFF70A
:100FE000D9FBB86108E0FFF7D5FB0246BB69D31A0D
:100FF000022B01D9032356E02D4B1B6803F000732D
:10100000002BF0D04EE001234DE0294B1B6803F08C
:101010000073002B46D1264B1B68254A43F0807392
:101020001360234BDB68224A43F08073D360FFF7E1
:10103000B1FBB86108E0FFF7ADFB0246BB69D31A0C
:10104000022B01D903232EE0194B1B6803F0007318
:10105000002BF0D026E03B6A0C2B21D0144B1B68F0
:10106000134A23F080731360FFF794FBB86108E024
:10107000FFF790FB0246BB69D31A022B01D9032369
:1010800011E00B4B1B6803F00073002BF0D1084BF1
:10109000DB68074A23F0887323F00303D36001E081
:1010A000012300E0002318462837BD4680BD00BF5D
:1010B000001002408C809FF980B584B000AF78604A
:1010C00039607B68002B01D10123E7E0754B1B6879
:1010D00003F007033A689A4210D9724B1B6823F059
:1010E000070270493B6813430B606E4B1B6803F0AB
:1010F00007033A689A4201D00123CFE07B681B685E
:1011000003F00203002B10D07B689A68664B9B6843
:1011100003F0F0039A4208D9634B9B6823F0F00276
:101120007B689B68604913438B607B681B6803F096
:101130000103002B4CD07B685B68032B07D15A4B13
:101140001B6803F00073002B21D10123A6E07B680C
:101150005B68022B07D1544B1B6803F40033002B50
:1011600015D101239AE07B685B68002B07D14E4BB9
:101170001B6803F00203002B09D101238EE04A4BC8
:101180001B6803F48063002B01D1012386E0464BEA
:101190009B6823F003027B685B68434913438B60C1
:1011A000FFF7F8FAF8600AE0FFF7F4FA0246FB6886
:1011B000D31A41F28832934201D903236EE03A4BAD
:1011C0009B6803F00C027B685B689B009A42EBD142
:1011D0007B681B6803F00203002B10D07B689A68C1
:1011E000314B9B6803F0F0039A4208D22E4B9B6868
:1011F00023F0F0027B689B682B4913438B60294BDB
:101200001B6803F007033A689A4210D2254B1B680B
:1012100023F0070223493B6813430B60214B1B68F3
:1012200003F007033A689A4201D0012336E07B6855
:101230001B6803F00403002B08D01B4B9B6823F4AE
:10124000E0627B68DB68184913438B607B681B682E
:1012500003F00803002B09D0134B9B6823F4605262
:101260007B681B69DB00104913438B6000F024F896
:1012700002460D4B9B681B0903F00F030B49CB5C27
:1012800003F01F0322FA03F3094A1360094B1B689A
:10129000184606F0EFF80346FB72FB7A1846103743
:1012A000BD4680BD0020024000100240D47A0008F4
:1012B000000000200400002080B489B000AF0023AB
:1012C000FB610023BB613E4B9B6803F00C033B6159
:1012D0003B4BDB6803F00303FB603B69002B05D04D
:1012E0003B690C2B21D1FB68012B1ED1344B1B68B1
:1012F00003F00803002B07D1314BD3F894301B0ABD
:1013000003F00F03FB6105E02D4B1B681B0903F085
:101310000F03FB612B4AFB6952F82330FB613B69E9
:10132000002B0DD1FB69BB610AE03B69042B02D1A4
:10133000254BBB6104E03B69082B01D1234BBB610A
:101340003B690C2B34D11E4BDB6803F00303BB60FD
:10135000BB68022B03D0BB68032B03D005E01A4BFC
:101360007B6105E0194B7B6102E0FB697B6100BF9B
:10137000134BDB681B0903F0070301337B60104B41
:10138000DB681B0A03F07F037A6903FB02F27B68C8
:10139000B2FBF3F37B610A4BDB685B0E03F00303E4
:1013A00001335B003B607A693B68B2FBF3F3BB61DE
:1013B000BB6918462437BD465DF8047B704700BF03
:1013C00000100240EC7A00080024F40000127A00B9
:1013D00080B400AF034B1B681846BD465DF8047B24
:1013E000704700BF0000002080B500AFFFF7F0FF9E
:1013F0000246064B9B681B0A03F007030449CB5CBB
:1014000003F01F0322FA03F3184680BD00100240C8
:10141000E47A000880B500AFFFF7DAFF0246064B1A
:101420009B68DB0A03F007030449CB5C03F01F034E
:1014300022FA03F3184680BD00100240E47A000847
:1014400080B483B000AF786039607B680F221A6087
:10145000124B9B6803F003027B685A600F4B9B683A
:1014600003F0F0027B689A600C4B9B6803F4E06227
:101470007B68DA60094B9B68DB0803F4E0627B68F9
:101480001A61074B1B6803F007023B681A6000BF34
:101490000C37BD465DF8047B704700BF001002406A
:1014A0000020024080B586B000AF786000233B6129
:1014B0002A4B9B6D03F08053002B03D000F0E6FB1A
:1014C000786114E0254B9B6D244A43F0805393656B
:1014D000224B9B6D03F08053FB60FB6800F0D6FB52
:1014E00078611E4B9B6D1D4A23F0805393657B6989
:1014F000B3F5007F0BD17B68802B19D97B68A02BBB
:1015000002D902233B6113E001233B6110E07B68B9
:10151000802B02D903233B610AE07B68802B02D138
:1015200002233B6104E07B68702B01D101233B6106
:101530000B4B1B6823F0070209493B6913430B60FF
:10154000074B1B6803F007033A699A4201D0012355
:1015500000E0002318461837BD4680BD0010024049
:101560000020024080B586B000AF78600023FB7495
:101570000023BB747B681B6803F40033002B00F06E
:101580009E8000237B74464B9B6D03F08053002BA1
:1015900001D1012300E00023002B0DD0404B9B6DB7
:1015A0003F4A43F0805393653D4B9B6D03F080535E
:1015B000BB60BB6801237B743A4B1B68394A43F418
:1015C00080731360FFF7E6F8F86009E0FFF7E2F8D0
:1015D0000246FB68D31A022B02D90323FB7405E0F1
:1015E000304B1B6803F48073002BEFD0FB7C002B87
:1015F0005AD12B4BD3F8903003F440737B617B6955
:10160000002B1ED07B681B6B7A699A4219D0244B41
:10161000D3F8903023F440737B61214BD3F89030A2
:101620001F4A43F48033C2F890301D4BD3F89030FA
:101630001B4A23F48033C2F89030194A7B69C2F800
:1016400090307B6903F00103002B16D0FFF7A2F85E
:10165000F8600BE0FFF79EF80246FB68D31A41F2F0
:101660008832934202D90323FB7406E00C4BD3F873
:10167000903003F00203002BECD0FB7C002B0BD14D
:10168000074BD3F8903023F440727B681B6B0449FE
:101690001343C1F8903009E0FB7CBB7406E000BF47
:1016A0000010024000700040FB7CBB747B7C012B6F
:1016B00005D16E4B9B6D6D4A23F0805393657B681B
:1016C0001B6803F00103002B0AD0684BD3F8883065
:1016D00023F003027B685B6864491343C1F88830D8
:1016E0007B681B6803F00203002B0AD05F4BD3F822
:1016F000883023F00C027B689B685C491343C1F877
:1017000088307B681B6803F00403002B0AD0574B1A
:10171000D3F8883023F030027B68DB6853491343E9
:10172000C1F888307B681B6803F02003002B0AD0C7
:101730004E4BD3F8883023F440627B681B694B49D9
:101740001343C1F888307B681B6803F40073002BD7
:101750000AD0464BD3F8883023F440227B681B6ABA
:1017600042491343C1F888307B681B6803F48063E7
:10177000002B0AD03D4BD3F8883023F440127B680D
:101780005B6A3A491343C1F888307B681B6803F0F1
:101790004003002B0AD0354BD3F8883023F4405255
:1017A0007B685B6931491343C1F888307B681B68EB
:1017B00003F08003002B0AD02C4BD3F8883023F49D
:1017C00040427B689B6929491343C1F888307B6894
:1017D0001B6803F48073002B0AD0244BD3F88830A5
:1017E00023F440327B68DB6920491343C1F8883019
:1017F0007B681B6803F40053002B15D01B4BD3F8F8
:10180000883023F040627B689B6A18491343C1F813
:1018100088307B689B6AB3F1006F05D1134BDB689E
:10182000124A43F48013D3607B681B6803F480235F
:10183000002B15D00D4BD3F8883023F040627B6825
:10184000DB6A0A491343C1F888307B68DB6AB3F16D
:10185000006F05D1054BDB68044A43F48013D36065
:10186000BB7C18461837BD4680BD00BF0010024043
:1018700080B487B000AF7860396000237B614EE1AF
:101880003B681A6801217B6901FA03F31340FB608E
:10189000FB68002B00F040813B685B6803F00303AA
:1018A000012B05D03B685B6803F00303022B30D1AA
:1018B0007B689B683B617B695B00032202FA03F350
:1018C000DB433A6913403B613B68DA687B695B0044
:1018D00002FA03F33A6913433B617B683A699A6001
:1018E0007B685B683B6101227B6902FA03F3DB439F
:1018F0003A6913403B613B685B681B0903F00102D6
:101900007B6902FA03F33A6913433B617B683A69E6
:101910005A603B685B6803F00303032B17D07B68B6
:10192000DB683B617B695B00032202FA03F3DB4364
:101930003A6913403B613B689A687B695B0002FA35
:1019400003F33A6913433B617B683A69DA603B68A9
:101950005B6803F00303022B23D17B69DA087B6801
:10196000083253F822303B617B6903F007039B0088
:101970000F2202FA03F3DB433A6913403B613B68F1
:101980001A697B6903F007039B0002FA03F33A69C3
:1019900013433B617B69DA087B680832396943F895
:1019A00022107B681B683B617B695B00032202FAA3
:1019B00003F3DB433A6913403B613B685B6803F028
:1019C00003027B695B0002FA03F33A6913433B614C
:1019D0007B683A691A603B685B6803F44033002B0C
:1019E00000F09A80554B1B6E544A43F00103136676
:1019F000524B1B6E03F00103BB60BB68504A7B690E
:101A00009B08023352F823303B617B6903F00303E8
:101A10009B000F2202FA03F3DB433A6913403B6158
:101A20007B68B3F1904F13D07B68464A93420DD048
:101A30007B68454A934207D07B68444A934201D170
:101A4000032306E0072304E0022302E0012300E071
:101A500000237A6902F00302920093403A6913432B
:101A60003B6137497B699B0802333A6941F823207F
:101A7000374B9B683B61FB68DB433A6913403B6132
:101A80003B685B6803F48013002B03D03A69FB6862
:101A900013433B612E4A3B6993602D4BDB683B61EE
:101AA000FB68DB433A6913403B613B685B6803F4C6
:101AB0000013002B03D03A69FB6813433B61244AAF
:101AC0003B69D360224B5B683B61FB68DB433A694F
:101AD00013403B613B685B6803F40033002B03D089
:101AE0003A69FB6813433B61194A3B695360184BE1
:101AF0001B683B61FB68DB433A6913403B613B6811
:101B00005B6803F48033002B03D03A69FB6813430E
:101B10003B610F4A3B6913607B6901337B613B6822
:101B20001A687B6922FA03F3002B7FF4A9AE00BF89
:101B300000BF1C37BD465DF8047B704700100240B3
:101B4000000001400004004800080048000C004864
:101B50000004014080B485B000AF78600B467B8004
:101B60007B685B69FB607A88FB6813401A04FB683A
:101B7000D9437B880B401A437B689A6100BF1437B6
:101B8000BD465DF8047B704780B483B000AF7860D9
:101B90007B68002B01D1012331E07B6893F825306D
:101BA000DBB2022B08D07B680422DA637B68002258
:101BB00083F82420012322E07B681B681A687B6875
:101BC0001B6822F001021A607B681B681A687B6838
:101BD0001B6822F00E021A607B685B6C03F01C022B
:101BE0007B681B6C012101FA02F25A607B680122BA
:101BF00083F825207B68002283F8242000231846E0
:101C00000C37BD465DF8047B704780B584B000AFEB
:101C100078600023FB737B6893F82530DBB2022BDE
:101C200005D07B680422DA630123FB7329E07B681B
:101C30001B681A687B681B6822F001021A607B68C7
:101C40001B681A687B681B6822F00E021A607B68AA
:101C50005B6C03F01C027B681B6C012101FA02F231
:101C60005A607B68012283F825207B68002283F874
:101C700024207B689B6B002B03D07B689B6B786870
:101C80009847FB7B18461037BD4680BD80B400AF37
:101C9000044B1B6803F4C0631846BD465DF8047B23
:101CA000704700BF0070004080B485B000AF78601E
:101CB0007B6803F00703FB600C4BDB68BB60BA6812
:101CC0004FF6FF031340BB60FB681A02BB68134367
:101CD00043F0BF6343F40033BB60044ABB68D36086
:101CE00000BF1437BD465DF8047B704700ED00E08F
:101CF00080B400AF044BDB681B0A03F007031846EF
:101D0000BD465DF8047B704700ED00E080B483B011
:101D100000AF0346FB7197F90730002B0BDBFB7913
:101D200003F01F02074997F907305B09012000FA09
:101D300002F241F8232000BF0C37BD465DF8047B5A
:101D4000704700BF00E100E080B483B000AF0346FD
:101D50003960FB7197F90730002B0ADB3B68DAB278
:101D60000C4997F907301201D2B20B4483F80023D3
:101D70000AE03B68DAB20849FB7903F00F03043B41
:101D80001201D2B20B441A7600BF0C37BD465DF883
:101D9000047B704700E100E000ED00E080B489B012
:101DA00000AFF860B9607A60FB6803F00703FB617D
:101DB000FB69C3F10703042B28BF0423BB61FB6944
:101DC0000433062B02D9FB69033B00E000237B614F
:101DD0004FF0FF32BB6902FA03F3DA43BB681A40E3
:101DE0007B699A404FF0FF317B6901FA03F3D943D5
:101DF0007B680B40134318462437BD465DF8047BCF
:101E0000704780B582B000AF78607868FFF74CFF0C
:101E100000BF0837BD4680BD80B586B000AF034621
:101E2000B9607A60FB7300237B61FFF761FF786123
:101E30007A68B9687869FFF7B1FF024697F90F3001
:101E400011461846FFF780FF00BF1837BD4680BD1A
:101E500080B582B000AF0346FB7197F90730184692
:101E6000FFF754FF00BF0837BD4680BD80B582B084
:101E700000AF78607B68002B01D1012340E07B68D4
:101E8000DB6F002B06D17B68002283F8782078680E
:101E900005F098FA7B682422DA677B681B681A6869
:101EA0007B681B6822F001021A607B685B6A002B6A
:101EB00002D0786800F03EFE786800F0E1FB03464F
:101EC000012B01D101231BE07B681B685A687B68EA
:101ED0001B6822F490425A607B681B689A687B6892
:101EE0001B6822F02A029A607B681B681A687B686C
:101EF0001B6842F001021A60786800F0BDFE0346DC
:101F000018460837BD4680BD80B48BB000AFF8607E
:101F1000B9601346FB80FB68DB6F202B47D1BB68A1
:101F2000002B02D0FB88002B01D1012340E0FB688D
:101F3000BA68DA64FB68FA88A3F85020FB68FA886C
:101F4000A3F85220FB680022DA66FB680022C3F87F
:101F50008420FB682122DA67FB689B68B3F5805F09
:101F600007D1FB681B69002B03D1FB68134ADA66B3
:101F700002E0FB68124ADA66FB681B687B617B69DA
:101F800053E8003F3B613B6943F080037B62FB68A1
:101F90001B681A467B6A3B62FA61F9693A6A41E852
:101FA0000023BB61BB69002BE6D1002300E00223C4
:101FB00018462C37BD465DF8047B7047CB310008CE
:101FC0001531000880B58AB000AFF860B9601346DB
:101FD000FB80FB68D3F88030202B37D1BB68002B07
:101FE00002D0FB88002B01D1012330E0FB680022E6
:101FF0001A66FB681B68184A93421FD0FB681B686F
:102000005B6803F40003002B18D0FB681B687B613E
:102010007B6953E8003F3B613B6943F080637B622F
:10202000FB681B681A467B6A3B62FA61F9693A6A87
:1020300041E80023BB61BB69002BE6D1FB881A464F
:10204000B968F86800F02EFF034600E00223184646
:102050002837BD4680BD00BF0080004080B5BAB0C3
:1020600000AF78607B681B68DB69C7F8E4307B6889
:102070001B681B68C7F8E0307B681B689B68C7F863
:10208000DC30D7F8E42040F60F031340C7F8D8300F
:10209000D7F8D830002B15D1D7F8E43003F020035F
:1020A000002B0FD0D7F8E03003F02003002B09D02D
:1020B0007B689B6E002B00F0CA827B689B6E786801
:1020C0009847C4E2D7F8D830002B00F01781D7F832
:1020D000DC3003F00103002B06D1D7F8E020854B5C
:1020E0001340002B00F00A81D7F8E43003F001031D
:1020F000002B11D0D7F8E03003F48073002B0BD005
:102100007B681B6801221A627B68D3F8843043F035
:1021100001027B68C3F88420D7F8E43003F002039F
:10212000002B11D0D7F8DC3003F00103002B0BD0CB
:102130007B681B6802221A627B68D3F8843043F004
:1021400004027B68C3F88420D7F8E43003F004036A
:10215000002B11D0D7F8DC3003F00103002B0BD09B
:102160007B681B6804221A627B68D3F8843043F0D2
:1021700002027B68C3F88420D7F8E43003F0080338
:10218000002B17D0D7F8E03003F02003002B05D147
:10219000D7F8DC3003F00103002B0BD07B681B6801
:1021A00008221A627B68D3F8843043F008027B6807
:1021B000C3F88420D7F8E43003F40063002B12D076
:1021C000D7F8E03003F08063002B0CD07B681B68ED
:1021D0004FF400621A627B68D3F8843043F0200227
:1021E0007B68C3F884207B68D3F88430002B00F030
:1021F0003082D7F8E43003F02003002B0DD0D7F85D
:10220000E03003F02003002B07D07B689B6E002B8F
:1022100003D07B689B6E786898477B68D3F88430DE
:10222000C7F8D4307B681B689B6803F04003402BE1
:1022300005D0D7F8D43003F02803002B4FD07868AE
:1022400000F0F6FE7B681B689B6803F04003402BA0
:1022500041D17B681B680833C7F89C30D7F89C30A5
:1022600053E8003FC7F89830D7F8983023F0400380
:10227000C7F8D0307B681B680833D7F8D020C7F880
:10228000A820C7F8A430D7F8A410D7F8A82041E8B0
:102290000023C7F8A030D7F8A030002BD9D17B6835
:1022A0005B6F002B13D07B685B6F134A9A637B686C
:1022B0005B6F1846FFF7A9FC0346002B17D07B681D
:1022C0005B6F9B6B7A68526F104698470FE0786897
:1022D00004F0BAFE0BE0786804F0B6FE07E0786818
:1022E00004F0B2FE7B680022C3F88420B1E100BF95
:1022F000AFE100BF20010004F93000087B681B6ECD
:10230000012B40F06A81D7F8E43003F01003002B72
:1023100000F06381D7F8E03003F01003002B00F0E9
:102320005C817B681B6810221A627B681B689B6853
:1023300003F04003402B40F0D4807B685B6F1B6848
:102340005B68A7F8BE30B7F8BE30002B00F0AD8058
:102350007B68B3F85830B7F8BE209A4280F0A58069
:102360007B68B7F8BE20A3F85A207B685B6F1B68B8
:102370001B6803F02003002B40F086807B681B68FD
:10238000C7F88830D7F8883053E8003FC7F8843062
:10239000D7F8843023F48073C7F8B8307B681B68A3
:1023A0001A46D7F8B830C7F89430C7F89020D7F855
:1023B0009010D7F8942041E80023C7F88C30D7F864
:1023C0008C30002BDAD17B681B6808337B677B6F0E
:1023D00053E8003F3B673B6F23F00103C7F8B4307D
:1023E0007B681B680833D7F8B420C7F88020FB67E8
:1023F000F96FD7F8802041E80023BB67BB6F002B43
:10240000E1D17B681B6808333B663B6E53E8003FB5
:10241000FB65FB6D23F04003C7F8B0307B681B6899
:102420000833D7F8B020FA66BB66B96EFA6E41E899
:1024300000237B667B6E002BE3D17B682022C3F8F0
:1024400080207B6800221A667B681B68FB64FB6C3B
:1024500053E8003FBB64BB6C23F01003C7F8AC30FB
:102460007B681B681A46D7F8AC30BB657A65796D16
:10247000BA6D41E800233B653B6D002BE4D17B68DE
:102480005B6F1846FFF780FB7B6802225A667B6809
:10249000B3F858207B68B3F85A309BB2D31A9BB27A
:1024A0001946786800F0E0F8D5E07B68B3F858305A
:1024B000B7F8BE209A4240F0CE807B685B6F1B6805
:1024C0001B6803F02003202B40F0C5807B680222AC
:1024D0005A667B68B3F858301946786800F0C4F83B
:1024E000B9E07B68B3F858207B68B3F85A309BB2E8
:1024F000D31AA7F8CE307B68B3F85A309BB2002BC2
:1025000000F0AB80B7F8CE30002B00F0A6807B68DF
:102510001B68BB63BB6B53E8003F7B637B6B23F49F
:102520009073C7F8C8307B681B681A46D7F8C83064
:102530007B643A64396C7A6C41E80023FB63FB6B83
:10254000002BE4D17B681B6808337B627B6A53E80D
:10255000003F3B623B6A23F00103C7F8C4307B684D
:102560001B680833D7F8C4203A63FB62F96A3A6BF8
:1025700041E80023BB62BB6A002BE3D17B682022C9
:10258000C3F880207B6800221A667B6800229A6666
:102590007B681B683B613B6953E8003FFB60FB685D
:1025A00023F01003C7F8C0307B681B681A46D7F8C1
:1025B000C030FB61BA61B969FA6941E800237B6107
:1025C0007B69002BE4D17B6802225A66B7F8CE30D3
:1025D0001946786800F048F83FE0D7F8E43003F493
:1025E0008013002B0ED0D7F8DC3003F48003002BCF
:1025F00008D07B681B684FF480121A62786801F07B
:1026000027F82DE0D7F8E43003F08003002B0ED03C
:10261000D7F8E03003F08003002B08D07B68DB6E36
:10262000002B1CD07B68DB6E7868984717E0D7F8E2
:10263000E43003F04003002B12D0D7F8E03003F071
:102640004003002B0CD0786800F01FFE08E000BFAC
:1026500006E000BF04E000BF02E000BF00E000BFF2
:10266000E837BD4680BD00BF80B483B000AF78605E
:102670000B467B8000BF0C37BD465DF8047B70477E
:102680002DE9B04F8AB000AFF860002387F8223000
:10269000FB689A68FB681B691A43FB685B691A430D
:1026A000FB68DB6913437B62FB681B681A689E4BFF
:1026B0001340FA681268796A0B431360FB681B6861
:1026C0005B6823F44051FB68DA68FB681B680A43C7
:1026D0005A60FB689B697B62FB681B68934A934264
:1026E00004D0FB681B6A7A6A13437B62FB681B6831
:1026F0009B6823F43061FB681B687A6A0A439A601E
:10270000FB681B688A4A934226D18A4BD3F88830EB
:1027100003F00303032B1BD801A252F823F000BFE0
:1027200031270008412700083927000849270008F9
:10273000012387F82330ABE0022387F82330A7E09A
:10274000042387F82330A3E0082387F823309FE091
:10275000102387F823309BE0FB681B68764A93427E
:1027600038D1744BD3F8883003F00C030C2B2DD8E0
:1027700001A252F823F000BFAD270008CD270008C2
:10278000CD270008CD270008BD270008CD27000869
:10279000CD270008CD270008B5270008CD27000861
:1027A000CD270008CD270008C5270008002387F89B
:1027B00023306DE0022387F8233069E0042387F893
:1027C000233065E0082387F8233061E0102387F881
:1027D00023305DE0FB681B68584A934225D1554B76
:1027E000D3F8883003F03003302B16D0302B18D8B4
:1027F000202B0AD0202B14D8002B02D0102B08D06D
:102800000FE0002387F8233042E0022387F82330CB
:102810003EE0042387F823303AE0082387F823308A
:1028200036E0102387F8233032E0FB681B683F4A0C
:1028300093422AD13F4BD3F8883003F44063B3F579
:10284000406F1AD0B3F5406F1BD8B3F5006F0CD0B2
:10285000B3F5006F15D8002B03D0B3F5806F08D007
:102860000FE0002387F8233012E0022387F823309B
:102870000EE0042387F823300AE0082387F823308A
:1028800006E0102387F8233002E0102387F8233076
:10289000FB681B68254A934240F08A8097F82330F2
:1028A000082B24D801A252F823F000BFD128000839
:1028B000EF280008D9280008EF280008DF280008C2
:1028C000EF280008EF280008EF280008E728000894
:1028D000FEF78AFDF86110E0194BFB610DE0FEF791
:1028E000EBFCF86109E04FF40043FB6105E00023D5
:1028F000FB61012387F8223000BFFB69002B00F049
:102900000981FB685A6813465B001344FA699A42CE
:1029100005D3FB685B681B03FA699A4212D901234D
:1029200087F82230F6E000BFF369FFEF0080004037
:1029300000380140001002400044004000480040C0
:102940000024F400FB6900221C4615464FF00002EB
:102950004FF000032B0243EA14632202F96849682E
:10296000490800208846814612EB080A43EB090B10
:10297000FB685B6800223B607A60D7E90023504621
:102980005946FDF705FC02460B461346BB61BB6981
:10299000B3F5407F08D3BB69B3F5801F04D2FB6851
:1029A0001B68BA69DA60B5E0012387F82230B1E02C
:1029B000FB68DB69B3F5004F5DD197F82330082B36
:1029C00027D801A252F823F0ED290008F5290008C4
:1029D000FD290008132A0008032A0008132A00080A
:1029E000132A0008132A00080B2A0008FEF7FCFC33
:1029F000F86114E0FEF70EFDF86110E04C4BFB614E
:102A00000DE0FEF759FCF86109E04FF40043FB616B
:102A100005E00023FB61012387F8223000BFFB693A
:102A2000002B77D0FB695A00FB685B685B081A448F
:102A3000FB685B68B2FBF3F3BB61BB690F2B16D974
:102A4000BB69B3F5803F12D2BB699BB223F00F0381
:102A5000FB82BB695B089BB203F007039AB2FB8A57
:102A60001343FB82FB681B68FA8ADA6052E0012399
:102A700087F822304EE097F82330082B27D801A2A0
:102A800052F823F0A92A0008B12A0008B92A000840
:102A9000CF2A0008BF2A0008CF2A0008CF2A000842
:102AA000CF2A0008C72A0008FEF79EFCF86114E050
:102AB000FEF7B0FCF86110E01D4BFB610DE0FEF786
:102AC000FBFBF86109E04FF40043FB6105E00023E4
:102AD000FB61012387F8223000BFFB69002B19D06E
:102AE000FB685B685A08FB691A44FB685B68B2FBC9
:102AF000F3F3BB61BB690F2B09D9BB69B3F5803F09
:102B000005D2BB699AB2FB681B68DA6002E0012358
:102B100087F82230FB6800229A66FB680022DA669A
:102B200097F8223018462837BD46BDE8B08F00BF61
:102B30000024F40080B483B000AF78607B685B6AE7
:102B400003F00803002B0AD07B681B685B6823F442
:102B500000417B685A6B7B681B680A435A607B683C
:102B60005B6A03F00103002B0AD07B681B685B687B
:102B700023F400317B689A6A7B681B680A435A60B9
:102B80007B685B6A03F00203002B0AD07B681B683A
:102B90005B6823F480317B68DA6A7B681B680A43D0
:102BA0005A607B685B6A03F00403002B0AD07B68E1
:102BB0001B685B6823F480217B681A6B7B681B6849
:102BC0000A435A607B685B6A03F01003002B0AD04B
:102BD0007B681B689B6823F480517B689A6B7B68D9
:102BE0001B680A439A607B685B6A03F02003002B32
:102BF0000AD07B681B689B6823F400517B68DA6B02
:102C00007B681B680A439A607B685B6A03F0400339
:102C1000002B1AD07B681B685B6823F480117B68EB
:102C20001A6C7B681B680A435A607B681B6CB3F59F
:102C3000801F0AD17B681B685B6823F4C0017B6836
:102C40005A6C7B681B680A435A607B685B6A03F0B6
:102C50008003002B0AD07B681B685B6823F400218B
:102C60007B689A6C7B681B680A435A6000BF0C370C
:102C7000BD465DF8047B704780B598B002AF7860C0
:102C80007B680022C3F88420FDF784FD78657B68AB
:102C90001B681B6803F00803082B2ED16FF07E43DE
:102CA00000937B6D00224FF40011786800F08CF8DF
:102CB0000346002B21D07B681B68BB63BB6B53E8CA
:102CC000003F7B637B6B23F080033B657B681B6865
:102CD0001A463B6D7B643A64396C7A6C41E8002398
:102CE000FB63FB6B002BE6D17B682022DA677B68F5
:102CF000002283F87820032362E07B681B681B684E
:102D000003F00403042B49D16FF07E4300937B6DE5
:102D100000224FF48001786800F056F80346002B3B
:102D20003CD07B681B687B627B6A53E8003F3B6258
:102D30003B6A23F49073FB647B681B681A46FB6C48
:102D40003B63FA62F96A3A6B41E80023BB62BB6AF3
:102D5000002BE6D17B681B6808333B613B6953E875
:102D6000003FFB60FB6823F00103BB647B681B68CA
:102D70000833BA6CFA61BB61B969FA6941E80023AA
:102D80007B617B69002BE5D17B682022C3F8802022
:102D90007B68002283F87820032311E07B682022DF
:102DA000DA677B682022C3F880207B6800221A66DD
:102DB0007B6800225A667B68002283F87820002313
:102DC00018465837BD4680BD80B584B000AFF86066
:102DD000B9603B601346FB714FE0BB69B3F1FF3F45
:102DE0004BD0FDF7D7FC02463B68D31ABA699A422A
:102DF00002D3BB69002B01D103234EE0FB681B68A3
:102E00001B6803F00403002B37D0BB68802B34D041
:102E1000BB68402B31D0FB681B68DB6903F00803FB
:102E2000082B10D1FB681B6808221A62F86800F0B2
:102E3000FFF8FB680822C3F88420FB68002283F8AF
:102E40007820012329E0FB681B68DB6903F4006339
:102E5000B3F5006F11D1FB681B684FF400621A6272
:102E6000F86800F0E5F8FB682022C3F88420FB68CE
:102E7000002283F8782003230FE0FB681B68DA69DF
:102E8000BB681340BA689A420CBF01230023DBB22F
:102E90001A46FB799A42A0D0002318461037BD4647
:102EA00080BD000080B497B000AFF860B9601346F1
:102EB000FB80FB68BA685A65FB68FA88A3F858205B
:102EC000FB68FA88A3F85A20FB6800229A66FB6820
:102ED0009B68B3F5805F0ED1FB681B69002B05D1A1
:102EE000FB6840F2FF12A3F85C202DE0FB68FF2294
:102EF000A3F85C2028E0FB689B68002B0DD1FB68E1
:102F00001B69002B04D1FB68FF22A3F85C201BE0A7
:102F1000FB687F22A3F85C2016E0FB689B68B3F196
:102F2000805F0DD1FB681B69002B04D1FB687F22F9
:102F3000A3F85C2008E0FB683F22A3F85C2003E0D4
:102F4000FB680022A3F85C20FB680022C3F8842001
:102F5000FB682222C3F88020FB681B680833FB63F0
:102F6000FB6B53E8003FBB63BB6B43F001037B6526
:102F7000FB681B6808337A6DBA647B64796CBA6C41
:102F800041E800233B643B6C002BE5D1FB689B6868
:102F9000B3F5805F07D1FB681B69002B03D1FB6889
:102FA000214A9A6602E0FB68204A9A66FB681B6920
:102FB000002B19D0FB681B68BB62BB6A53E8003F5B
:102FC0007B627B6A43F49073FB64FB681B681A4660
:102FD000FB6C7B633A63396B7A6B41E80023FB62DD
:102FE000FB6A002BE6D118E0FB681B687B617B69FC
:102FF00053E8003F3B613B6943F020033B65FB68BE
:103000001B681A463B6D3B62FA61F9693A6A41E80E
:103010000023BB61BB69002BE6D1002318465C3757
:10302000BD465DF8047B704799340008E132000822
:1030300080B495B000AF78607B681B687B637B6B66
:1030400053E8003F3B633B6B23F49073FB647B6866
:103050001B681A46FB6C3B64FA63F96B3A6C41E8F7
:103060000023BB63BB6B002BE6D17B681B68083376
:103070003B623B6A53E8003FFB61FB6923F00103BD
:10308000BB647B681B680833BA6CFA62BB62B96ABE
:10309000FA6A41E800237B627B6A002BE5D17B68FA
:1030A0001B6E012B18D17B681B68FB60FB6853E823
:1030B000003FBB60BB6823F010037B647B681B6828
:1030C0001A467B6CBB617A617969BA6941E8002371
:1030D0003B613B69002BE6D17B682022C3F880204E
:1030E0007B6800221A667B6800229A6600BF54370C
:1030F000BD465DF8047B704780B584B000AF786052
:103100007B689B6AFB60F86803F09EFF00BF103786
:10311000BD4680BD80B48FB000AF78607B68DB6F48
:10312000212B4CD17B68B3F852309BB2002B32D1AB
:103130007B681B683B623B6A53E8003FFB61FB69AD
:1031400023F080037B637B681B681A467B6BFB6202
:10315000BA62B96AFA6A41E800237B627B6A002B93
:10316000E6D17B681B68FB60FB6853E8003FBB60EF
:10317000BB6843F040033B637B681B681A463B6BAC
:10318000BB617A617969BA6941E800233B613B69B7
:10319000002BE6D113E07B68DB6C1A787B681B6838
:1031A0009A627B68DB6C5A1C7B68DA647B68B3F8D4
:1031B00052309BB2013B9AB27B68A3F8522000BF09
:1031C0003C37BD465DF8047B704780B491B000AFDA
:1031D00078607B68DB6F212B51D17B68B3F852306C
:1031E0009BB2002B32D17B681B687B627B6A53E801
:1031F000003F3B623B6A23F08003BB637B681B6834
:103200001A46BB6B3B63FA62F96A3A6B41E80023EA
:10321000BB62BB6A002BE6D17B681B683B613B69E4
:1032200053E8003FFB60FB6843F040037B637B682F
:103230001B681A467B6BFB61BA61B969FA6941E8A0
:1032400000237B617B69002BE6D118E07B68DB6C97
:10325000FB63FB6B1B881A467B681B68C2F3080282
:103260009A627B68DB6C9A1C7B68DA647B68B3F8D3
:1032700052309BB2013B9AB27B68A3F8522000BF48
:103280004437BD465DF8047B704780B588B000AF19
:1032900078607B681B68FB60FB6853E8003FBB609D
:1032A000BB6823F04003FB617B681B681A46FB691F
:1032B000BB617A617969BA6941E800233B613B6986
:1032C000002BE6D17B682022DA677B680022DA6671
:1032D000786803F0A3FE00BF2037BD4680BD000024
:1032E00080B59CB000AF78607B68B3F85C30A7F81D
:1032F0006E307B68D3F88030222B40F0BE807B6834
:103300001B685B6AA7F86C30B7F86C30D9B2B7F8B5
:103310006E30DAB27B685B6D0A40D2B21A707B689D
:103320005B6D5A1C7B685A657B68B3F85A309BB258
:10333000013B9AB27B68A3F85A207B68B3F85A30F5
:103340009BB2002B40F0A1807B681B68FB64FB6C88
:1033500053E8003FBB64BB6C23F49073BB667B688F
:103360001B681A46BB6EBB657A65796DBA6D41E81C
:1033700000233B653B6D002BE6D17B681B6808335F
:10338000BB63BB6B53E8003F7B637B6B23F00103A4
:103390007B667B681B6808337A6E7A643B64396CA1
:1033A0007A6C41E80023FB63FB6B002BE5D17B6863
:1033B0002022C3F880207B6800229A667B68002266
:1033C0005A667B681B68334A93421FD07B681B6830
:1033D0005B6803F40003002B18D07B681B687B62DA
:1033E0007B6A53E8003F3B623B6A23F080633B66A5
:1033F0007B681B681A463B6E3B63FA62F96A3A6B5C
:1034000041E80023BB62BB6A002BE6D17B681B6EE0
:10341000012B2ED17B6800221A667B681B683B61FA
:103420003B6953E8003FFB60FB6823F01003FB653A
:103430007B681B681A46FB6DFB61BA61B969FA6962
:1034400041E800237B617B69002BE6D17B681B6828
:10345000DB6903F01003102B03D17B681B6810227B
:103460001A627B68B3F8583019467868FFF7FCF8A1
:103470000BE0786803F0A4FD07E07B681B689A699D
:103480007B681B6842F008029A6100BF7037BD4636
:1034900080BD00BF0080004080B59CB000AF786068
:1034A0007B68B3F85C30A7F86E307B68D3F8803067
:1034B000222B40F0BE807B681B685B6AA7F86C30EB
:1034C0007B685B6DBB66B7F86C20B7F86E30134055
:1034D0009AB2BB6E1A807B685B6D9A1C7B685A65DA
:1034E0007B68B3F85A309BB2013B9AB27B68A3F871
:1034F0005A207B68B3F85A309BB2002B40F0A18071
:103500007B681B68BB64BB6C53E8003F7B647B6CCF
:1035100023F490737B667B681B681A467B6E7B6521
:103520003A65396D7A6D41E80023FB64FB6C002B32
:10353000E6D17B681B6808337B637B6B53E8003FF5
:103540003B633B6B23F001033B667B681B680833DE
:103550003A6E3A64FB63F96B3A6C41E80023BB6353
:10356000BB6B002BE5D17B682022C3F880207B68F1
:1035700000229A667B6800225A667B681B68334A81
:1035800093421FD07B681B685B6803F40003002B29
:1035900018D07B681B683B623B6A53E8003FFB61C5
:1035A000FB6923F08063FB657B681B681A46FB6D33
:1035B000FB62BA62B96AFA6A41E800237B627B6AFD
:1035C000002BE6D17B681B6E012B2ED17B6800227D
:1035D0001A667B681B68FB60FB6853E8003FBB60B2
:1035E000BB6823F01003BB657B681B681A46BB6D84
:1035F000BB617A617969BA6941E800233B613B6943
:10360000002BE6D17B681B68DB6903F01003102BED
:1036100003D17B681B6810221A627B68B3F85830AC
:1036200019467868FFF720F80BE0786803F0C8FCCB
:1036300007E07B681B689A697B681B6842F0080298
:103640009A6100BF7037BD4680BD00BF008000405A
:1036500080B483B000AF786000BF0C37BD465DF822
:10366000047B704780B483B000AF78607B6803F15F
:1036700008027B685A607B684FF0FF329A607B6873
:1036800003F108027B68DA607B6803F108027B685B
:103690001A617B6800221A6000BF0C37BD465DF8D6
:1036A000047B704780B483B000AF78607B680022F1
:1036B0001A6100BF0C37BD465DF8047B704780B4CB
:1036C00085B000AF786039607B685B68FB603B6801
:1036D000FA685A60FB689A683B689A60FB689B6866
:1036E0003A685A60FB683A689A603B687A681A617F
:1036F0007B681B685A1C7B681A6000BF1437BD4684
:103700005DF8047B704780B485B000AF78603960A5
:103710003B681B68BB60BB68B3F1FF3F03D17B68AC
:103720001B69FB600CE07B680833FB6002E0FB6810
:103730005B68FB60FB685B681B68BA689A42F6D2FC
:10374000FB685A683B685A603B685B683A689A60F5
:103750003B68FA689A60FB683A685A603B687A6826
:103760001A617B681B685A1C7B681A6000BF14379B
:10377000BD465DF8047B704780B485B000AF7860CB
:103780007B681B69FB607B685B687A6892689A60FB
:103790007B689B687A6852685A60FB685B687A68E5
:1037A0009A4203D17B689A68FB685A607B68002262
:1037B0001A61FB681B685A1EFB681A60FB681B686D
:1037C00018461437BD465DF8047B704780B584B059
:1037D00000AF786039607B68FB60FB68002B0BD121
:1037E0004FF0500383F31188BFF36F8FBFF34F8FF8
:1037F000BB6000BF00BFFDE703F0B6FAFB681A68C4
:10380000FB68DB6BF968096C01FB03F31A44FB6886
:103810009A60FB6800229A63FB681A68FB685A602A
:10382000FB681A68FB68DB6B013BF968096C01FBFC
:1038300003F31A44FB68DA60FB68FF2283F8442034
:10384000FB68FF2283F845203B68002B14D1FB68FE
:103850001B69002B1AD0FB681033184601F09EFC40
:103860000346002B12D00D4B4FF080521A60BFF36D
:103870004F8FBFF36F8F09E0FB6810331846FFF7D7
:10388000F1FEFB6824331846FFF7ECFE03F09EFAC6
:10389000012318461037BD4680BD00BF04ED00E08F
:1038A00080B58EB002AFF860B9607A603B60FB68AB
:1038B000002B0BD14FF0500383F31188BFF36F8FB0
:1038C000BFF34F8FBB6200BF00BFFDE73B68002B1B
:1038D0000BD14FF0500383F31188BFF36F8FBFF309
:1038E0004F8F7B6200BF00BFFDE77B68002B02D0DB
:1038F000BB68002B01D0012300E00023002B0BD17B
:103900004FF0500383F31188BFF36F8FBFF34F8FD6
:103910003B6200BF00BFFDE77B68002B02D1BB68A4
:10392000002B01D1012300E00023002B0BD14FF02D
:10393000500383F31188BFF36F8FBFF34F8FFB6189
:1039400000BF00BFFDE750237B617B69502B0BD08C
:103950004FF0500383F31188BFF36F8FBFF34F8F86
:10396000BB6100BF00BFFDE77B693B68FB62FB6A90
:10397000002B0DD0FB6A012283F8462097F83820EF
:10398000FB6A009313467A68B968F86800F040F85B
:10399000FB6A18463037BD4680BD80B58AB002AF9D
:1039A000F860B9601346FB71FB68002B0BD14FF038
:1039B000500383F31188BFF36F8FBFF34F8F3B61C9
:1039C00000BF00BFFDE7FB68BA6802FB03F3FB61C1
:1039D000FB695033184602F0A5FEB861BB69002BA5
:1039E00011D0BB697B617B6950337B61BB6900226D
:1039F00083F84620FA79BB69009313467A69B9685F
:103A0000F86800F005F8BB6918462037BD4680BD50
:103A100080B584B000AFF860B9607A60FB70BB68B5
:103A2000002B03D1BB69BA691A6002E0BB697A68EE
:103A30001A60BB69FA68DA63BB69BA681A64012163
:103A4000B869FFF7C3FEBB69FA7883F84C2000BF62
:103A50001037BD4680BD80B58AB002AFF860B9604E
:103A60007A60FB68002B0BD14FF0500383F3118871
:103A7000BFF36F8FBFF34F8FBB6100BF00BFFDE788
:103A8000BA68FB689A420BD94FF0500383F3118850
:103A9000BFF36F8FBFF34F8F7B6100BF00BFFDE7A8
:103AA000022300937B6800220021F868FFF7F8FEEC
:103AB000F861FB69002B02D0FB69BA689A63FB6965
:103AC00018462037BD4680BD80B586B000AF78600F
:103AD00039607B68002B0BD14FF0500383F31188C2
:103AE000BFF36F8FBFF34F8F3B6100BF00BFFDE798
:103AF0003A687B689A420BD94FF0500383F31188E0
:103B0000BFF36F8FBFF34F8FFB6000BF00BFFDE7B8
:103B1000022200217868FFF740FF78617B69002B63
:103B200002D07B693A689A637B6918461837BD46AC
:103B300080BD000080B58EB000AFF860B9607A60DB
:103B40003B6000237B63FB683B633B6B002B0BD12B
:103B50004FF0500383F31188BFF36F8FBFF34F8F84
:103B6000BB6200BF00BFFDE7BB68002B03D13B6B0E
:103B70001B6C002B01D1012300E00023002B0BD193
:103B80004FF0500383F31188BFF36F8FBFF34F8F54
:103B90007B6200BF00BFFDE73B68022B03D13B6B9C
:103BA000DB6B012B01D1012300E00023002B0BD1A3
:103BB0004FF0500383F31188BFF36F8FBFF34F8F24
:103BC0003B6200BF00BFFDE701F0AEFC0346002BE7
:103BD00002D17B68002B01D1012300E00023002BE0
:103BE0000BD14FF0500383F31188BFF36F8FBFF3F6
:103BF0004F8FFB6100BF00BFFDE703F0B5F83B6BE3
:103C00009A6B3B6BDB6B9A4202D33B68022B29D148
:103C10003A68B968386B00F06DFCF8623B6B5B6A20
:103C2000002B10D03B6B2433184601F0B7FA034643
:103C3000002B13D03F4B4FF080521A60BFF34F8FD1
:103C4000BFF36F8F0AE0FB6A002B07D0394B4FF0B0
:103C500080521A60BFF34F8FBFF36F8F03F0B6F837
:103C6000012363E07B68002B03D103F0AFF800234E
:103C70005CE07B6B002B06D107F11403184601F0C2
:103C8000F1FA01237B6303F0A1F801F059F803F086
:103C90006BF83B6B93F844305BB2B3F1FF3F03D159
:103CA0003B6B002283F844203B6B93F845305BB2BA
:103CB000B3F1FF3F03D13B6B002283F8452003F0B3
:103CC00085F83A1D07F114031146184601F0E0FA91
:103CD0000346002B24D1386B00F004FD0346002B73
:103CE00018D03B6B10337A681146184601F004FA7D
:103CF000386B00F08FFC01F031F80346002B7FF4A5
:103D00007CAF0C4B4FF080521A60BFF34F8FBFF364
:103D10006F8F72E7386B00F07DFC01F01FF86CE7E5
:103D2000386B00F077FC01F019F80023184638379B
:103D3000BD4680BD04ED00E080B590B000AFF860F6
:103D4000B9607A603B60FB68BB63BB6B002B0BD137
:103D50004FF0500383F31188BFF36F8FBFF34F8F82
:103D6000BB6200BF00BFFDE7BB68002B03D1BB6B8C
:103D70001B6C002B01D1012300E00023002B0BD191
:103D80004FF0500383F31188BFF36F8FBFF34F8F52
:103D90007B6200BF00BFFDE73B68022B03D1BB6B1A
:103DA000DB6B012B01D1012300E00023002B0BD1A1
:103DB0004FF0500383F31188BFF36F8FBFF34F8F22
:103DC0003B6200BF00BFFDE703F0AEF8EFF31182E6
:103DD0004FF0500383F31188BFF36F8FBFF34F8F02
:103DE000FA61BB61FB697B63BB6B9A6BBB6BDB6B83
:103DF0009A4202D33B68022B2FD1BB6B93F845301C
:103E000087F83330BB6B9B6BFB623A68B968B86B61
:103E100000F070FB97F93330B3F1FF3F12D1BB6B69
:103E20005B6A002B16D0BB6B2433184601F0B6F941
:103E30000346002B0ED07B68002B0BD07B68012241
:103E40001A6007E097F833300133DBB25AB2BB6B2C
:103E500083F845200123FB6301E00023FB637B6BB8
:103E60007B617B6983F3118800BFFB6B1846403789
:103E7000BD4680BD80B58EB000AF786039607B688C
:103E80003B633B6B002B0BD14FF0500383F3118846
:103E9000BFF36F8FBFF34F8F3B6200BF00BFFDE7E3
:103EA0003B6B1B6C002B0BD04FF0500383F311883E
:103EB000BFF36F8FBFF34F8FFB6100BF00BFFDE704
:103EC0003B6B1B68002B03D13B6B9B68002B01D124
:103ED000012300E00023002B0BD14FF0500383F3AC
:103EE0001188BFF36F8FBFF34F8FBB6100BF00BF5F
:103EF000FDE703F019F8EFF311824FF0500383F35D
:103F00001188BFF36F8FBFF34F8F7A613B617B697D
:103F1000FB623B6B9B6BBB623B6BDB6BBA6A9A428F
:103F20002BD23B6B93F8453087F82730BB6A5A1C7D
:103F30003B6B9A6397F92730B3F1FF3F12D13B6B8C
:103F40005B6A002B16D03B6B2433184601F026F930
:103F50000346002B0ED03B68002B0BD03B680122A0
:103F60001A6007E097F827300133DBB25AB23B6B97
:103F700083F8452001237B6301E000237B63FB6A18
:103F8000FB60FB6883F3118800BF7B6B18463837F2
:103F9000BD4680BD80B58CB000AFF860B9607A6076
:103FA0000023FB62FB68BB62BB6A002B0BD14FF0A6
:103FB000500383F31188BFF36F8FBFF34F8F3B62C2
:103FC00000BF00BFFDE7BB68002B03D1BB6A1B6CC1
:103FD000002B01D1012300E00023002B0BD14FF077
:103FE000500383F31188BFF36F8FBFF34F8FFB61D3
:103FF00000BF00BFFDE701F097FA0346002B02D196
:104000007B68002B01D1012300E00023002B0BD1A2
:104010004FF0500383F31188BFF36F8FBFF34F8FBF
:10402000BB6100BF00BFFDE702F09EFEBB6A9B6B59
:104030007B627B6A002B1FD0B968B86A00F0C4FAB3
:104040007B6A5A1EBB6A9A63BB6A1B69002B0FD03E
:10405000BB6A1033184601F0A1F80346002B07D0C5
:104060003C4B4FF080521A60BFF34F8FBFF36F8FFE
:1040700002F0ACFE012369E07B68002B03D102F063
:10408000A5FE002362E0FB6A002B06D107F11003B6
:10409000184601F0E7F80123FB6202F097FE00F0FA
:1040A0004FFE02F061FEBB6A93F844305BB2B3F19D
:1040B000FF3F03D1BB6A002283F84420BB6A93F818
:1040C00045305BB2B3F1FF3F03D1BB6A002283F8F6
:1040D000452002F07BFE3A1D07F1100311461846F9
:1040E00001F0D6F80346002B23D1B86A00F0E4FAB9
:1040F0000346002B17D0BB6A24337A681146184652
:1041000000F0FAFFB86A00F085FA00F027FE0346D7
:10411000002B89D10F4B4FF080521A60BFF34F8FA5
:10412000BFF36F8F80E7B86A00F074FA00F016FEF4
:104130007AE7B86A00F06EFA00F010FEB86A00F094
:10414000BBFA0346002B3FF46FAF0023184630370D
:10415000BD4680BD04ED00E080B58EB000AF786054
:10416000396000237B637B68FB6200233B63FB6A4F
:10417000002B0BD14FF0500383F31188BFF36F8FE7
:10418000BFF34F8F3B6200BF00BFFDE7FB6A1B6CB4
:10419000002B0BD04FF0500383F31188BFF36F8FC8
:1041A000BFF34F8FFB6100BF00BFFDE701F0BCF91B
:1041B0000346002B02D13B68002B01D1012300E014
:1041C0000023002B0BD14FF0500383F31188BFF372
:1041D0006F8FBFF34F8FBB6100BF00BFFDE702F0E1
:1041E000C3FDFB6A9B6BBB62BB6A002B24D0BB6A1E
:1041F0005A1EFB6A9A63FB6A1B68002B04D101F00C
:104200000DFB0246FB6A9A60FB6A1B69002B0FD00C
:10421000FB6A1033184600F0C1FF0346002B07D09D
:10422000544B4FF080521A60BFF34F8FBFF36F8F24
:1042300002F0CCFD012398E03B68002B12D13B6BD0
:10424000002B0BD04FF0500383F31188BFF36F8F17
:10425000BFF34F8F7B6100BF00BFFDE702F0B6FDEB
:10426000002382E07B6B002B06D107F10C0318467C
:1042700000F0F8FF01237B6302F0A8FD00F060FD71
:1042800002F072FDFB6A93F844305BB2B3F1FF3F7A
:1042900003D1FB6A002283F84420FB6A93F845307F
:1042A0005BB2B3F1FF3F03D1FB6A002283F84520E4
:1042B00002F08CFD3A4607F10C031146184600F057
:1042C000E7FF0346002B32D1F86A00F0F5F9034608
:1042D000002B26D0FB6A1B68002B09D102F044FD9D
:1042E000FB6A9B68184601F03DF9386302F06EFDE9
:1042F000FB6A24333A681146184600F0FDFEF86A5E
:1043000000F088F900F02AFD0346002B7FF467AF28
:10431000184B4FF080521A60BFF34F8FBFF36F8F6F
:104320005DE7F86A00F076F900F018FD57E7F86AE3
:1043300000F070F900F012FDF86A00F0BDF90346D4
:10434000002B3FF44CAF3B6B002B0DD002F00CFD6B
:10435000F86A00F0B7F87862FB6A9B68796A1846D9
:1043600001F0D8F902F032FD002318463837BD4677
:1043700080BD00BF04ED00E080B58EB000AFF860F6
:10438000B9607A60FB683B633B6B002B0BD14FF04D
:10439000500383F31188BFF36F8FBFF34F8F3B62DE
:1043A00000BF00BFFDE7BB68002B03D13B6B1B6C5C
:1043B000002B01D1012300E00023002B0BD14FF093
:1043C000500383F31188BFF36F8FBFF34F8FFB61EF
:1043D00000BF00BFFDE702F0A7FDEFF311824FF031
:1043E000500383F31188BFF36F8FBFF34F8FBA6110
:1043F0007B61BB69FB623B6B9B6BBB62BB6A002B47
:104400002FD03B6B93F8443087F82730B968386B6E
:1044100000F0DAF8BB6A5A1E3B6B9A6397F92730B3
:10442000B3F1FF3F12D13B6B1B69002B16D03B6BE6
:104430001033184600F0B2FE0346002B0ED07B6806
:10444000002B0BD07B6801221A6007E097F8273019
:104450000133DBB25AB23B6B83F8442001237B6308
:1044600001E000237B63FB6A3B613B6983F31188B6
:1044700000BF7B6B18463837BD4680BD80B584B021
:1044800000AF78607B68FB60FB68002B0BD14FF0BE
:10449000500383F31188BFF36F8FBFF34F8FBB605F
:1044A00000BF00BFFDE7F86800F05EF9FB6893F815
:1044B0004630002B02D1F86802F002FA00BF103734
:1044C000BD4680BD80B485B000AF78607B685B6A14
:1044D000002B06D07B681B6B1B68C3F13803FB60A5
:1044E00001E00023FB60FB6818461437BD465DF809
:1044F000047B704780B586B000AFF860B9607A6021
:1045000000237B61FB689B6B3B61FB681B6C002B92
:104510000DD1FB681B68002B4DD1FB689B681846CA
:1045200001F088F87861FB6800229A6043E07B68BC
:10453000002B19D1FB685868FB681B6C1A46B968D8
:1045400003F044FAFB685A68FB681B6C1A44FB686A
:104550005A60FB685A68FB689B689A422BD3FB68D9
:104560001A68FB685A6026E0FB68D868FB681B6C19
:104570001A46B96803F02AFAFB68DA68FB681B6C14
:104580005B421A44FB68DA60FB68DA68FB681B6808
:104590009A4207D2FB689A68FB681B6C5B421A441C
:1045A000FB68DA607B68022B05D13B69002B02D0E7
:1045B0003B69013B3B613B695A1CFB689A637B6921
:1045C00018461837BD4680BD80B582B000AF786010
:1045D00039607B681B6C002B18D07B68DA687B68BD
:1045E0001B6C1A447B68DA607B68DA687B689B68BE
:1045F0009A4203D37B681A687B68DA607B68D96863
:104600007B681B6C1A46386803F0E0F900BF083776
:10461000BD4680BD80B584B000AF786002F0A4FBD9
:104620007B6893F84530FB7311E07B685B6A002B75
:1046300012D07B682433184600F0B0FD0346002BEF
:1046400001D000F089FEFB7B013BDBB2FB7397F9E5
:104650000F30002BE9DC00E000BF7B68FF2283F80D
:10466000452002F0B3FB02F07FFB7B6893F84430F7
:10467000BB7311E07B681B69002B12D07B68103381
:10468000184600F08BFD0346002B01D000F064FEBD
:10469000BB7B013BDBB2BB7397F90E30002BE9DC2F
:1046A00000E000BF7B68FF2283F8442002F08EFB0D
:1046B00000BF1037BD4680BD80B584B000AF7860C4
:1046C00002F052FB7B689B6B002B02D10123FB6045
:1046D00001E00023FB6002F079FBFB68184610370D
:1046E000BD4680BD80B584B000AF786002F03CFB71
:1046F0007B689A6B7B68DB6B9A4202D10123FB607B
:1047000001E00023FB6002F061FBFB6818461037F4
:10471000BD4680BD80B485B000AF786039600023AD
:10472000FB6014E00F4AFB6852F83330002B0BD1CA
:104730000C49FB683A6841F833200A4AFB68DB0001
:1047400013447A685A6006E0FB680133FB60FB683B
:10475000072BE7D900BF00BF1437BD465DF8047BC7
:10476000704700BF8000002080B485B000AF786043
:104770000023FB6016E0104AFB68DB0013445B6813
:104780007A689A420BD10C4AFB68002142F8331038
:10479000094AFB68DB00134400225A6006E0FB680C
:1047A0000133FB60FB68072BE5D900BF00BF14375E
:1047B000BD465DF8047B70478000002080B586B060
:1047C00000AFF860B9607A60FB687B6102F0CCFAF8
:1047D0007B6993F844305BB2B3F1FF3F03D17B694F
:1047E000002283F844207B6993F845305BB2B3F133
:1047F000FF3F03D17B69002283F8452002F0E6FAEF
:104800007B699B6B002B06D17B6924337A68B9687E
:10481000184600F097FC7869FFF7FCFE00BF1837D8
:10482000BD4680BD80B58EB004AFF860B9607A60D7
:104830003B607B6B002B0BD14FF0500383F311884F
:10484000BFF36F8FBFF34F8F3B6200BF00BFFDE729
:10485000BB6B002B0BD14FF0500383F31188BFF3D8
:104860006F8FBFF34F8FFB6100BF00BFFDE74FF4B9
:1048700018733B613B69B3F5187F0BD04FF05003C1
:1048800083F31188BFF36F8FBFF34F8FBB6100BFFE
:1048900000BFFDE73B69BB6B002B1ED07B6B002B81
:1048A0001BD0BB6B7B627B6A7A6B1A637B6A0222CA
:1048B00083F85D22002303937B6A029307F11403BC
:1048C00001933B6B00933B687A68B968F86800F025
:1048D00051F8786A00F01EF901E000237B617B69E2
:1048E00018462837BD4680BD80B58CB004AFF8604F
:1048F000B9603B601346FB80FB889B00184601F0C3
:1049000011FF78617B69002B0FD04FF4187001F014
:1049100009FFF861FB69002B03D0FB697A691A6310
:1049200005E0786901F0CCFF01E00023FB61FB6941
:10493000002B17D0FB69002283F85D22FA88002340
:104940000393FB690293FB6A0193BB6A00933B6884
:10495000B968F86800F00EF8F86900F0DBF8012398
:10496000BB6102E04FF0FF33BB61BB6918462037E3
:10497000BD4680BD80B588B000AFF860B9607A6090
:104980003B603B6B186B7B689B001A46A52102F0CD
:1049900091FF3B6B1A6B7B6803F18043013B9B00EB
:1049A0001344BB61BB6923F00703BB61BB6903F020
:1049B0000703002B0BD04FF0500383F31188BFF394
:1049C0006F8FBFF34F8F7B6100BF00BFFDE7BB68F8
:1049D000002B1FD00023FB6112E0BA68FB6913446F
:1049E00019783A6BFB69134434330A461A70BA6873
:1049F000FB6913441B78002B06D0FB690133FB6174
:104A0000FB690F2BE9D900E000BF3B6B002283F864
:104A1000432003E03B6B002283F83420BB6A372B32
:104A200001D93723BB623B6BBA6ADA623B6BBA6A65
:104A3000DA643B6B00221A653B6B04331846FEF7C1
:104A400031FE3B6B18331846FEF72CFE3B6B3A6B7E
:104A50001A61BB6AC3F138023B6B9A613B6B3A6BDC
:104A60005A623B6B0022C3F858223B6B002283F84A
:104A70005C223B6B58334FF400720021184602F061
:104A800019FF3B6B204ADA653B6B204A1A663B6B89
:104A90001F4A5A66396B4FF001024FF00003C1E91B
:104AA0003C233B6B43F20E32A3F8F8203B6B4AF6F3
:104AB000CD32A3F8FA203B6B41F23422A3F8FC205C
:104AC0003B6B4EF26D62A3F8FE203B6B4DF6EC6241
:104AD000A3F800213B6B0522A3F802213B6B0B22BC
:104AE000A3F804213A68F968B86902F009F80246A7
:104AF0003B6B1A60FB6A002B02D0FB6A3A6B1A60B0
:104B000000BF2037BD4680BD781E0020E01E00207B
:104B1000481F002080B582B000AF786002F024F911
:104B20002D4B1B6801332C4A13602C4B1B68002B48
:104B300009D12A4A7B681360274B1B68012B10D1CF
:104B400000F02EFC0DE0264B1B68002B09D1234BF7
:104B50001B68DA6A7B68DB6A9A4202D81F4A7B6864
:104B60001360204B1B6801331E4A13601D4B1A68EB
:104B70007B685A647B68DA6A1B4B1B689A4203D9CC
:104B80007B68DB6A184A13607B68DA6A13469B000D
:104B900013449B00154A1A447B6804331946104697
:104BA000FEF78DFD02F012F90D4B1B68002B0ED0A5
:104BB0000A4B1B68DA6A7B68DB6A9A4207D20C4BA5
:104BC0004FF080521A60BFF34F8FBFF36F8F00BF5B
:104BD0000837BD4680BD00BF94050020C0000020FE
:104BE000A0050020B00500209C050020C400002086
:104BF00004ED00E080B584B000AF78600023FB6076
:104C00007B68002B18D0144B1B68002B0BD04FF087
:104C1000500383F31188BFF36F8FBFF34F8FBB60D7
:104C200000BF00BFFDE700F08BF80021786800F0BE
:104C300009FE00F093F8F860FB68002B07D1074BE2
:104C40004FF080521A60BFF34F8FBFF36F8F00BFDA
:104C50001037BD4680BD00BFBC05002004ED00E05C
:104C600080B58AB004AF0023BB6000237B603A4666
:104C7000391D07F10803184601F020FD39687B68EB
:104C8000BA68029201930023009300230A46244944
:104C90002448FFF7C7FD0346234A1360224B1B68D5
:104CA000002B02D001237B6101E000237B617B6943
:104CB000012B02D100F01AFE78617B69012B1BD118
:104CC0004FF0500383F31188BFF36F8FBFF34F8F03
:104CD0003B6100BF154B1B685833154A1360154BD9
:104CE0004FF0FF321A60144B01221A60134B00225E
:104CF0001A6001F095FF0FE07B69B3F1FF3F0BD124
:104D00004FF0500383F31188BFF36F8FBFF34F8FC2
:104D1000FB6000BF00BFFDE700BF1837BD4680BD88
:104D2000B07A000871530008B8050020C0000020C8
:104D300010000020B4050020A005002098050020E8
:104D400080B400AF044B1B680133034A136000BFFB
:104D5000BD465DF8047B7047BC05002080B584B07B
:104D600000AF0023FB600023BB60424B1B68002B9D
:104D70000BD14FF0500383F31188BFF36F8FBFF354
:104D80004F8F3B6000BF00BFFDE701F0EDFF394BE7
:104D90001B68013B374A1360364B1B68002B62D1FE
:104DA000354B1B68002B5ED02FE0344BDB68DB6893
:104DB000FB60FB6818331846FEF7DEFCFB68043323
:104DC0001846FEF7D9FCFB68DA6A2D4B1B689A423D
:104DD00003D9FB68DB6A2A4A1360FB68DA6A134668
:104DE0009B0013449B00274A1A44FB68043319466E
:104DF0001046FEF764FCFB68DA6A234B1B68DB6A2B
:104E00009A4202D3214B01221A601C4B1B68002BD3
:104E1000CBD1FB68002B01D000F066FB1C4B1B685C
:104E20007B607B68002B10D000F046F80346002B17
:104E300002D0164B01221A607B68013B7B607B68C5
:104E4000002BF1D1124B00221A60104B1B68002B73
:104E500009D00123BB600F4B4FF080521A60BFF3A3
:104E60004F8FBFF36F8F01F0B1FFBB68184610374B
:104E7000BD4680BDBC0500209405002054050020DF
:104E80009C050020C4000020C0000020A8050020D0
:104E9000A405002004ED00E080B483B000AF054B12
:104EA0001B687B607B6818460C37BD465DF8047B49
:104EB000704700BF9805002080B586B000AF002382
:104EC0007B614F4B1B68002B40F090804D4B1B6863
:104ED00001333B614B4A3B6913603B69002B21D195
:104EE000494B1B681B68002B0BD04FF0500383F31A
:104EF0001188BFF36F8FBFF34F8F3B6000BF00BFC0
:104F0000FDE7414B1B68FB60404B1B683E4A13604A
:104F10003E4AFB6813603E4B1B6801333C4A1360FA
:104F200000F0E2FA3B4B1B683A699A4249D3364B90
:104F30001B681B68002B04D1364B4FF0FF321A6000
:104F40003FE0314B1B68DB68DB68BB60BB685B68BC
:104F50007B603A697B689A4203D22E4A7B68136071
:104F60002FE0BB6804331846FEF706FCBB689B6A5B
:104F7000002B04D0BB6818331846FEF7FDFBBB6856
:104F8000DA6A254B1B689A4203D9BB68DB6A224A5E
:104F90001360BB68DA6A13469B0013449B001F4AE8
:104FA0001A44BB68043319461046FEF788FBBB68F9
:104FB000DA6A1B4B1B68DB6A9A42B8D301237B6118
:104FC000B5E7174B1B68DA6A144913469B00134474
:104FD0009B000B441B68012B01D901237B61114B02
:104FE0001B68002B07D001237B6104E00E4B1B687C
:104FF00001330D4A13607B6918461837BD4680BDE2
:10500000BC050020980500204C050020500500201C
:10501000AC050020B40500209C050020C400002041
:10502000C0000020A8050020A405002080B485B0A1
:1050300000AF2B4B1B68002B03D02A4B01221A60B8
:1050400047E0284B00221A60274B1B68FB6011E0E9
:10505000FB68002B0BD14FF0500383F31188BFF393
:105060006F8FBFF34F8F7B6000BF00BFFDE7FB6812
:10507000013BFB601D49FA6813469B0013449B00EB
:105080000B441B68002BE3D0FA6813469B001344C3
:105090009B00164A1344BB60BB685B685A68BB68D8
:1050A0005A60BB685A68BB6808339A4204D1BB682F
:1050B0005B685A68BB685A60BB685B68DB680C4A0F
:1050C0001360094AFB681360094B1B685833094A8F
:1050D000136000BF1437BD465DF8047B704700BF06
:1050E000BC050020A80500209C050020C40000206D
:1050F000C00000201000002080B584B000AF7860B0
:1051000039607B68002B0BD14FF0500383F311887B
:10511000BFF36F8FBFF34F8FFB6000BF00BFFDE792
:10512000074B1B68183319467868FEF7ECFA012123
:10513000386800F087FB00BF1037BD4680BD00BF58
:10514000C000002080B586B000AFF860B9607A601A
:10515000FB68002B0BD14FF0500383F31188BFF392
:105160006F8FBFF34F8F7B6100BF00BFFDE70A4B1E
:105170001B6818331946F868FEF7A1FA7B68002B04
:1051800002D04FF0FF33BB607968B86800F05AFB7B
:1051900000BF1837BD4680BDC000002080B586B076
:1051A00000AF78607B68DB68DB683B613B69002BA4
:1051B0000BD14FF0500383F31188BFF36F8FBFF310
:1051C0004F8FFB6000BF00BFFDE73B6918331846F7
:1051D000FEF7D2FA1D4B1B68002B1DD13B6904332F
:1051E0001846FEF7C9FA3B69DA6A194B1B689A42FE
:1051F00003D93B69DB6A164A13603B69DA6A1346D6
:105200009B0013449B00134A1A443B69043319461C
:105210001046FEF754FA05E03B69183319460E486C
:10522000FEF74DFA3B69DA6A0C4B1B68DB6A9A425F
:1052300005D901237B610A4B01221A6001E000239A
:105240007B617B6918461837BD4680BDBC050020D0
:105250009C050020C400002054050020C000002050
:10526000A805002080B483B000AF7860064B1A68B0
:105270007B681A60054B1A687B685A6000BF0C3760
:10528000BD465DF8047B7047AC0500209805002002
:1052900080B588B000AF786039607B68002B0BD197
:1052A0004FF0500383F31188BFF36F8FBFF34F8F1D
:1052B0003B6100BF00BFFDE73B68002B0BD14FF007
:1052C000500383F31188BFF36F8FBFF34F8FFB60E1
:1052D00000BF00BFFDE701F047FD1D4B1B68BB6130
:1052E0007B685B68BA69D31A7B613B681B68B3F162
:1052F000FF3F02D10023FB6123E07B681A68154B56
:105300001B689A4207D07B685B68BA699A4202D3ED
:105310000123FB6115E03B681B687A699A420BD256
:105320003B681A687B69D21A3B681A607868FFF795
:1053300099FF0023FB6104E03B6800221A6001230F
:10534000FB6101F043FDFB6918462037BD4680BD77
:1053500098050020AC05002080B400AF034B01226B
:105360001A6000BFBD465DF8047B7047A8050020A9
:1053700080B582B000AF786000F052F8064B1B6831
:10538000012BF9D9054B4FF080521A60BFF34F8FB4
:10539000BFF36F8FF0E700BFC400002004ED00E012
:1053A00080B582B000AF00237B600CE07A681346C2
:1053B0009B0013449B00124A13441846FEF752F90F
:1053C0007B6801337B607B68372BEFD90D48FEF794
:1053D00049F90D48FEF746F90C48FEF743F90C4829
:1053E000FEF740F90B48FEF73DF90B4B054A1A60F2
:1053F0000A4B054A1A6000BF0837BD4680BD00BF92
:10540000C400002024050020380500205405002099
:1054100068050020800500204C0500205005002074
:1054200080B582B000AF19E001F09EFC104BDB6844
:10543000DB687B607B6804331846FEF79DF90D4BF3
:105440001B68013B0B4A13600B4B1B68013B0A4A6C
:10545000136001F0BBFC786800F010F8064B1B6885
:10546000002BE1D100BF00BF0837BD4680BD00BFA3
:1054700068050020940500207C05002080B584B0DC
:1054800000AF78607B685833184602F01BFA7B68DF
:1054900093F85D32002B08D17B681B6B184601F036
:1054A0000FFA786801F00CFA19E07B6893F85D3226
:1054B000012B03D1786801F003FA10E07B6893F8C0
:1054C0005D32022B0BD04FF0500383F31188BFF3F2
:1054D0006F8FBFF34F8FFB6000BF00BFFDE700BFC2
:1054E0001037BD4680BD000080B483B000AF0C4BC8
:1054F0001B681B68002B04D10A4B4FF0FF321A6067
:1055000008E0074B1B68DB68DB687B607B685B68D7
:10551000044A136000BF0C37BD465DF8047B70473A
:105520004C050020B405002080B483B000AF0B4BC5
:105530001B68002B02D101237B6008E0084B1B682D
:10554000002B02D102237B6001E000237B607B689B
:1055500018460C37BD465DF8047B7047A005002057
:10556000BC05002080B584B000AF78607B68BB606C
:105570000023FB607B68002B51D0BB68DA6A2A4BA2
:105580001B68DB6A9A4241D2BB689B69002B06DB31
:10559000254B1B68DB6AC3F13802BB689A61BB68A4
:1055A0005969BB68DA6A13469B0013449B001F4A83
:1055B0001344994222D1BB6804331846FEF7DCF845
:1055C000194B1B68DA6ABB68DA62BB68DA6A184B87
:1055D0001B689A4203D9BB68DB6A154A1360BB6833
:1055E000DA6A13469B0013449B00104A1A44BB68B6
:1055F000043319461046FEF762F804E00A4B1B68B4
:10560000DA6ABB68DA620123FB6008E0BB68DA6C27
:10561000054B1B68DB6A9A4201D20123FB60FB68E1
:1056200018461037BD4680BDC0000020C4000020D1
:105630009C05002080B586B000AF78607B683B6138
:1056400000237B617B68002B58D02F4B1B683A6985
:105650009A420BD04FF0500383F31188BFF36F8F42
:10566000BFF34F8FFB6000BF00BFFDE73B691B6DC1
:10567000002B0BD14FF0500383F31188BFF36F8FD2
:10568000BFF34F8FBB6000BF00BFFDE73B691B6DE1
:105690005A1E3B691A653B69DA6A3B69DB6C9A42C0
:1056A0002CD03B691B6D002B28D13B690433184675
:1056B000FEF762F83B69DA6C3B69DA623B69DB6AE8
:1056C000C3F138023B699A613B69DA6A0F4B1B6888
:1056D0009A4203D93B69DB6A0C4A13603B69DA6A78
:1056E00013469B0013449B00094A1A443B69043348
:1056F00019461046FDF7E3FF01237B617B691846DD
:105700001837BD4680BD00BFC00000209C050020AA
:10571000C400002080B588B000AF786039607B6835
:10572000BB6101237B617B68002B6CD0BB691B6D67
:10573000002B0BD14FF0500383F31188BFF36F8F11
:10574000BFF34F8FFB6000BF00BFFDE7BB69DB6CA1
:105750003A689A4202D93B68FB6102E0BB69DB6CA4
:10576000FB61BB69DB6AFA699A424CD0BB691B6D6D
:105770007A699A4247D1264B1B68BA699A420BD183
:105780004FF0500383F31188BFF36F8FBFF34F8F38
:10579000BB6000BF00BFFDE7BB69DB6A3B61BB6963
:1057A000FA69DA62BB699B69002B04DBFB69C3F110
:1057B0003802BB699A61BB6959693A6913469B0013
:1057C00013449B00134A134499421CD1BB69043310
:1057D0001846FDF7D1FFBB69DA6A0F4B1B689A4286
:1057E00003D9BB69DB6A0C4A1360BB69DA6A1346EA
:1057F0009B0013449B00074A1A44BB6904331946B3
:105800001046FDF75CFF00BF2037BD4680BD00BFDE
:10581000C0000020C40000209C05002080B400AF20
:10582000074B1B68002B04D0054B1B681A6D013217
:105830001A65034B1B681846BD465DF8047B70472C
:10584000C000002080B584B000AF78603960214B83
:105850001B68FB60204B1B6804331846FDF78CFF68
:105860007B68B3F1FF3F0AD13B68002B07D01A4B8E
:105870001B68043319461948FDF721FF26E0FA6832
:105880007B681344BB60144B1B68BA685A60BA68E3
:10589000FB689A4209D2124B1A680F4B1B680433FB
:1058A00019461046FDF72FFF10E00E4B1A680A4B01
:1058B0001B68043319461046FDF725FF0A4B1B6889
:1058C000BA689A4202D2084ABB68136000BF103718
:1058D000BD4680BD98050020C00000208005002046
:1058E000500500204C050020B405002080B58AB08A
:1058F00004AF00237B6100F013FB1D4B1B68002BE2
:1059000021D00023FB600023BB603A1D07F1080192
:1059100007F10C03184600F0EBFE7968BB68FA68E3
:10592000029201930223009300230A461149124870
:10593000FEF778FF0346114A1360104B1B68002BDB
:1059400001D001237B617B69002B0BD14FF0500309
:1059500083F31188BFF36F8FBFF34F8F3B6100BF9D
:1059600000BFFDE77B6918461837BD4680BD00BF04
:10597000F0050020B87A0008B95A0008F4050020A4
:1059800080B58AB000AFF860B9607A603B600023F0
:105990007B62FB68002B0BD14FF0500383F311881F
:1059A000BFF36F8FBFF34F8F3B6200BF00BFFDE7B8
:1059B000194B1B68002B2AD0BB683B617B687B615D
:1059C000FB68BB61BB68052B18DCFFF7ADFD034628
:1059D000022B09D1104B186807F1100100233A6B14
:1059E000FEF7A8F8786212E00B4B186807F1100177
:1059F00000230022FEF79EF8786208E0064B186844
:105A000007F1100100233A68FEF796F978627B6A85
:105A100018462837BD4680BDF005002080B588B007
:105A200002AF78603960234B1B68DB68DB687B6101
:105A30007B6904331846FDF79FFE7B6993F8283095
:105A400003F00403002B23D07B699A697B68D1188B
:105A50007B683A68786900F0D5F80346002B20D0BF
:105A60000023009300237A6800217869FFF788FFFC
:105A700038613B69002B14D14FF0500383F3118838
:105A8000BFF36F8FBFF34F8FFB6000BF00BFFDE719
:105A90007B6993F8283023F00103DAB27B6983F83D
:105AA00028207B691B6A7869984700BF1837BD4674
:105AB00080BD00BFE805002080B584B000AF7860ED
:105AC00007F10803184600F059F8F860BB6819465A
:105AD000F86800F005F800F0D7F800BFF0E7000024
