:020000040800F2
:1000000000800020C1580008815600088956000869
:100010009156000899560008A156000800000000FB
:10002000000000000000000000000000C14F0008B8
:10003000A95600080000000011520008914800086D
:1000400011590008115900081159000811590008E8
:1000500011590008115900081159000811590008D8
:1000600011590008115900081159000811590008C8
:1000700011590008115900081159000811590008B8
:10008000115900081159000811590008000000001A
:1000900000000000000000000000000011590008EE
:1000A0001159000811590008115900081159000888
:1000B000115900080000000000000000115900085C
:1000C0001159000811590008115900081159000868
:1000D0001159000811590008115900081159000858
:1000E000115900081159000800000000000000002C
:1000F0000000000000000000000000000000000000
:1001000000000000000000000000000000000000EF
:100110000000000000000000B956000800000000C8
:100120001159000811590008115900081159000807
:10013000115900080000000000000000000000004D
:1001400011590008115900081159000811590008E7
:1001500011590008115900081159000811590008D7
:1001600011590008115900080000000000000000AB
:10017000000000001159000800000000000000000D
:100180001159000811590008115900080000000019
:1001900053B94AB9002908BF00281CBF4FF0FF31EE
:1001A0004FF0FF3000F00CB8ADF1080C6DE904CE53
:1001B00005F0B0FBDDF804E0DDE9022304B0704790
:1001C000704700BF0348044B834202D0034B03B186
:1001D0001847704760000020600000200000000009
:1001E0000548064B1B1AD90F01EBA301491002D099
:1001F000034B03B1184770476000002060000020E7
:100200000000000010B5064C237843B9FFF7DAFF71
:10021000044B13B10448AFF300800123237010BDD9
:100220006000002000000000EC5D000808B5054BF0
:100230001BB105490548AFF30080BDE80840FFF752
:10024000CFBF00BF0000000064000020EC5D00088C
:1002500080B400AF064BD3F88830054A43F47003EE
:10026000C2F8883000BFBD465DF8047B704700BF10
:1002700000ED00E080B582B000AF78607B68002BB5
:1002800001D1012349E07B6893F83D30DBB2002BBC
:1002900006D17B68002283F83C20786800F041F8A2
:1002A0007B68022283F83D207B681A687B680433F0
:1002B0001946104600F0C4F97B68012283F84820F3
:1002C0007B68012283F83E207B68012283F83F206F
:1002D0007B68012283F840207B68012283F841205B
:1002E0007B68012283F842207B68012283F8432047
:1002F0007B68012283F844207B68012283F8452033
:100300007B68012283F846207B68012283F847201E
:100310007B68012283F83D20002318460837BD463C
:1003200080BD80B483B000AF786000BF0C37BD469D
:100330005DF8047B7047000080B485B000AF786042
:100340007B6893F83D30DBB2012B01D001233BE009
:100350007B68022283F83D207B681B68DA687B6833
:100360001B6842F00102DA607B681B68194A9342FD
:1003700009D07B681B68B3F1804F04D07B681B6891
:10038000154A934215D17B681B689A68134B13403A
:10039000FB60FB68062B15D0FB68B3F5803F11D0DE
:1003A0007B681B681A687B681B6842F001021A6050
:1003B00008E07B681B681A687B681B6842F00102D2
:1003C0001A6000E000BF002318461437BD465DF8F0
:1003D000047B7047002C01400040014007000100F1
:1003E00080B584B000AF78607B681B68DB68FB6019
:1003F0007B681B681B69BB60BB6803F00203002BB2
:1004000020D0FB6803F00203002B1BD07B681B6825
:100410006FF002021A617B6801221A777B681B6801
:100420009B6903F00303002B03D0786800F0E9F820
:1004300005E0786800F0DBF8786800F0ECF87B689D
:1004400000221A77BB6803F00403002B20D0FB685E
:1004500003F00403002B1BD07B681B686FF00402C1
:100460001A617B6802221A777B681B689B6903F418
:100470004073002B03D0786800F0C3F805E078687B
:1004800000F0B5F8786800F0C6F87B6800221A77AB
:10049000BB6803F00803002B20D0FB6803F00803BF
:1004A000002B1BD07B681B686FF008021A617B6809
:1004B00004221A777B681B68DB6903F00303002BB7
:1004C00003D0786800F09DF805E0786800F08FF8B8
:1004D000786800F0A0F87B6800221A77BB6803F008
:1004E0001003002B20D0FB6803F01003002B1BD05F
:1004F0007B681B686FF010021A617B6808221A770C
:100500007B681B68DB6903F44073002B03D07868B9
:1005100000F077F805E0786800F069F8786800F096
:100520007AF87B6800221A77BB6803F00103002B7E
:100530000CD0FB6803F00103002B07D07B681B681D
:100540006FF001021A61786805F082F8BB6803F069
:100550008003002B04D1BB6803F40053002B0CD0A4
:10056000FB6803F08003002B07D07B681B686FF4E7
:1005700002521A61786800F0D7F8BB6803F4807300
:10058000002B0CD0FB6803F08003002B07D07B68A6
:100590001B686FF480721A61786800F0CFF8BB684E
:1005A00003F04003002B0CD0FB6803F04003002B4A
:1005B00007D07B681B686FF040021A61786800F012
:1005C00034F8BB6803F02003002B0CD0FB6803F069
:1005D0002003002B07D07B681B686FF020021A6194
:1005E000786800F097F800BF1037BD4680BD80B432
:1005F00083B000AF786000BF0C37BD465DF8047B68
:10060000704780B483B000AF786000BF0C37BD4640
:100610005DF8047B704780B483B000AF786000BFA2
:100620000C37BD465DF8047B704780B483B000AFE3
:10063000786000BF0C37BD465DF8047B7047000052
:1006400080B485B000AF786039607B681B68FB6060
:100650007B682D4A934203D07B68B3F1804F08D169
:10066000FB6823F07003FB603B685B68FA68134328
:10067000FB607B68244A93420BD07B68B3F1804FC8
:1006800007D07B68214A934203D07B68204A93427B
:1006900008D1FB6823F44073FB603B68DB68FA68B1
:1006A0001343FB60FB6823F080023B685B691343E4
:1006B000FB603B689A687B68DA623B681A687B6813
:1006C0009A627B68104A934207D07B680F4A934234
:1006D00003D07B680E4A934203D13B681A697B685A
:1006E0001A637B681B6843F004027B681A607B68AE
:1006F00001225A617B68FA681A6000BF1437BD4650
:100700005DF8047B704700BF002C014000400140B1
:100710000044014080B483B000AF786000BF0C3764
:10072000BD465DF8047B704780B483B000AF78604D
:1007300000BF0C37BD465DF8047B704780B483B0C2
:1007400000AF786000BF0C37BD465DF8047B704792
:1007500080B582B000AF0023FB71032001F009FBDC
:100760000F2005F033F80346002B02D00123FB7164
:1007700001E004F0ABFFFB7918460837BD4680BDA9
:1007800080B400AF064B1B781A46064B1B68134417
:10079000044A136000BFBD465DF8047B704700BF8C
:1007A000080000207C00002080B400AF034B1B68D1
:1007B0001846BD465DF8047B704700BF7C000020F2
:1007C00080B58AB000AF78607B68002B02D101232E
:1007D00000F04FBC974B9B6803F00C033B62954BBA
:1007E000DB6803F00303FB617B681B6803F0100305
:1007F000002B00F0E6803B6A002B07D03B6A0C2BF5
:1008000040F08D80FB69012B40F08980894B1B688B
:1008100003F00203002B06D07B68DB69002B02D1BA
:10082000012300F026BC7B685A6A824B1B6803F0E8
:100830000803002B04D07F4B1B6803F0F00305E096
:100840007C4BD3F894301B0903F0F003934224D27D
:100850007B685B6A184600F00BFE0346002B02D053
:10086000012300F006BC734B1B68724A43F0080377
:100870001360704B1B6823F0F0027B685B6A6D4964
:1008800013430B606B4B5B6823F47F427B681B6AEE
:100890001B02684913434B6025E0664B1B68654AA1
:1008A00043F008031360634B1B6823F0F0027B687E
:1008B0005B6A604913430B605E4B5B6823F47F42C5
:1008C0007B681B6A1B025B4913434B603B6A002B2E
:1008D00009D17B685B6A184600F0CAFD0346002B0D
:1008E00001D00123C5E300F0CDFC0246514B9B68CB
:1008F0001B0903F00F035049CB5C03F01F0322FADE
:1009000003F34E4A13604E4B1B68184604F05EFF1B
:100910000346FB75FB7D002B52D0FB7DA9E37B6872
:10092000DB69002B32D0434B1B68424A43F0010382
:100930001360FFF739FFB86108E0FFF735FF0246A3
:10094000BB69D31A022B01D9032392E3394B1B68ED
:1009500003F00203002BF0D0364B1B68354A43F0FE
:1009600008031360334B1B6823F0F0027B685B6A5B
:10097000304913430B602F4B5B6823F47F427B6845
:100980001B6A1B022B4913434B601AE0294B1B685F
:10099000284A23F001031360FFF706FFB86108E05F
:1009A000FFF702FF0246BB69D31A022B01D90323CA
:1009B0005FE3204B1B6803F00203002BF0D100E043
:1009C00000BF7B681B6803F00103002B73D03B6AF8
:1009D000082B05D03B6A0C2B0ED1FB69032B0BD1E6
:1009E000144B1B6803F40033002B63D07B685B68F7
:1009F000002B5FD101233CE37B685B68B3F5803F4C
:100A000006D10C4B1B680B4A43F48033136025E07E
:100A10007B685B68B3F5A02F14D1064B1B68054AB1
:100A200043F480231360034B1B68024A43F4803372
:100A3000136013E0001002403C5E0008000000203C
:100A4000040000208F4B1B688E4A23F48033136010
:100A50008C4B1B688B4A23F4802313607B685B6894
:100A6000002B13D0FFF7A0FEB86108E0FFF79CFE53
:100A70000246BB69D31A642B01D90323F9E2814BE7
:100A80001B6803F40033002BF0D014E0FFF78CFE5A
:100A9000B86108E0FFF788FE0246BB69D31A642BF1
:100AA00001D90323E5E2774B1B6803F40033002BE5
:100AB000F0D100E000BF7B681B6803F00203002B4D
:100AC00060D03B6A042B05D03B6A0C2B19D1FB6923
:100AD000022B16D16B4B1B6803F48063002B05D0EF
:100AE0007B68DB68002B01D10123C2E2654B5B68A8
:100AF00023F0FE427B681B691B06624913434B606F
:100B000040E07B68DB68002B23D05E4B1B685D4AAE
:100B100043F480731360FFF747FEB86108E0FFF706
:100B200043FE0246BB69D31A022B01D90323A0E27C
:100B3000544B1B6803F48063002BF0D0514B5B686F
:100B400023F0FE427B681B691B064E4913434B6032
:100B500018E04C4B1B684B4A23F480731360FFF77B
:100B600023FEB86108E0FFF71FFE0246BB69D31AF7
:100B7000022B01D903237CE2424B1B6803F4806300
:100B8000002BF0D17B681B6803F00803002B00F0FA
:100B900082807B685B69002B5FD03A4BD3F894303E
:100BA0003B617B689A693B6903F010039A4237D036
:100BB0003B6903F00203002B06D03B6903F00103FD
:100BC000002B01D1012354E23B6903F00103002B08
:100BD0001BD02C4BD3F894302A4A23F00103C2F8DF
:100BE0009430FFF7E1FDB86108E0FFF7DDFD024654
:100BF000BB69D31A112B01D903233AE2214BD3F855
:100C0000943003F00203002BEFD11E4BD3F8943045
:100C100023F010027B689B691A491343C1F8943092
:100C2000184BD3F89430174A43F00103C2F89430BC
:100C3000FFF7BAFDB86108E0FFF7B6FD0246BB69F1
:100C4000D31A112B01D9032313E20E4BD3F894309E
:100C500003F00203002BEFD01DE00A4BD3F89430D1
:100C6000084A23F00103C2F89430FFF79DFDB861F4
:100C70000AE0FFF799FD0246BB69D31A112B03D98D
:100C80000323F6E100100240A94BD3F8943003F09F
:100C90000203002BEDD17B681B6803F00403002BDB
:100CA00000F0BD80002387F82730A14B9B6D03F037
:100CB0008053002B0ED19E4B9B6D9D4A43F0805379
:100CC00093659B4B9B6D03F08053FB60FB68012396
:100CD00087F82730974B1B6803F48073002B18D1DB
:100CE000944B1B68934A43F480731360FFF75CFDD9
:100CF000B86108E0FFF758FD0246BB69D31A022B22
:100D000001D90323B5E18B4B1B6803F48073002BDF
:100D1000F0D07B689B6803F00103002B2CD0844B40
:100D2000D3F8903023F080027B689B6803F0800347
:100D30007F491343C1F890307B689B6803F004033C
:100D4000002B10D07A4BD3F89030794A43F004034B
:100D5000C2F89030764BD3F89030754A43F00103D7
:100D6000C2F8903018E0724BD3F89030704A43F0DC
:100D70000103C2F890300FE06D4BD3F890306C4A0D
:100D800023F00103C2F89030694BD3F89030684AE1
:100D900023F00403C2F890307B689B68002B16D0C8
:100DA000FFF702FDB8610AE0FFF7FEFC0246BB69EF
:100DB000D31A41F28832934201D9032359E15C4BA3
:100DC000D3F8903003F00203002BEDD01DE0FFF7C5
:100DD000EBFCB8610AE0FFF7E7FC0246BB69D31AF7
:100DE00041F28832934201D9032342E1504BD3F8B8
:100DF000903003F00203002BEDD14D4BD3F890302F
:100E00004B4A23F08003C2F8903097F82730012B2B
:100E100005D1474B9B6D464A23F0805393657B6811
:100E20001B6803F02003002B3CD07B689B6A002BDF
:100E30001CD03F4BD3F898303D4A43F00103C2F831
:100E40009830FFF7B1FCB86108E0FFF7ADFC02464F
:100E5000BB69D31A022B01D903230AE1344BD3F81F
:100E6000983003F00203002BEFD01BE0304BD3F897
:100E700098302F4A23F00103C2F89830FFF794FC12
:100E8000B86108E0FFF790FC0246BB69D31A022B59
:100E900001D90323EDE0264BD3F8983003F0020389
:100EA000002BEFD17B68DB6A002B00F0E1807B68D0
:100EB000DB6A022B40F0B5801D4BDB68FB61FB69F0
:100EC00003F003027B681B6B9A4224D1FB6903F099
:100ED00070027B685B6B013B1B019A421BD1FB6973
:100EE00003F4FE427B689B6B1B029A4213D1FB69A1
:100EF00003F4C0027B68DB6B5B08013B5B059A4235
:100F000009D1FB6903F0C0627B681B6C5B08013B85
:100F10005B069A425FD03B6A0C2B5AD0044B1B688D
:100F2000034A23F080731360FFF73EFCB8610CE0C6
:100F30000010024000700040FFF736FC0246BB691B
:100F4000D31A022B01D9032393E04C4B1B6803F007
:100F50000073002BF0D1494BDA68494B13407A6893
:100F6000116B7A68526B013A120111437A68926BE5
:100F7000120211437A68D26B5208013A52051143AA
:100F80007A68126C5208013A52060A433B491343ED
:100F9000CB603A4B1B68394A43F080731360374B80
:100FA000DB68364A43F08073D360FFF7FDFBB8611E
:100FB00008E0FFF7F9FB0246BB69D31A022B01D9FF
:100FC000032356E02D4B1B6803F00073002BF0D079
:100FD0004EE001234DE0294B1B6803F00073002B0A
:100FE00046D1264B1B68254A43F080731360234B80
:100FF000DB68224A43F08073D360FFF7D5FBB8610A
:1010000008E0FFF7D1FB0246BB69D31A022B01D9D6
:1010100003232EE0194B1B6803F00073002BF0D064
:1010200026E03B6A0C2B21D0144B1B68134A23F09B
:1010300080731360FFF7B8FBB86108E0FFF7B4FBFB
:101040000246BB69D31A022B01D9032311E00B4BD3
:101050001B6803F00073002BF0D1084BDB68074AD4
:1010600023F0887323F00303D36001E0012300E041
:10107000002318462837BD4680BD00BF001002403F
:101080008C809FF980B584B000AF786039607B6850
:10109000002B01D10123E7E0754B1B6803F0070328
:1010A0003A689A4210D9724B1B6823F007027049C4
:1010B0003B6813430B606E4B1B6803F007033A68F1
:1010C0009A4201D00123CFE07B681B6803F0020342
:1010D000002B10D07B689A68664B9B6803F0F00386
:1010E0009A4208D9634B9B6823F0F0027B689B68A7
:1010F000604913438B607B681B6803F00103002B7E
:101100004CD07B685B68032B07D15A4B1B6803F0FC
:101110000073002B21D10123A6E07B685B68022BC2
:1011200007D1544B1B6803F40033002B15D1012366
:101130009AE07B685B68002B07D14E4B1B6803F07D
:101140000203002B09D101238EE04A4B1B6803F4F4
:101150008063002B01D1012386E0464B9B6823F07E
:1011600003027B685B68434913438B60FFF71CFBFA
:10117000F8600AE0FFF718FB0246FB68D31A41F259
:101180008832934201D903236EE03A4B9B6803F007
:101190000C027B685B689B009A42EBD17B681B6802
:1011A00003F00203002B10D07B689A68314B9B68D8
:1011B00003F0F0039A4208D22E4B9B6823F0F00212
:1011C0007B689B682B4913438B60294B1B6803F09A
:1011D00007033A689A4210D2254B1B6823F0070296
:1011E00023493B6813430B60214B1B6803F0070343
:1011F0003A689A4201D0012336E07B681B6803F00D
:101200000403002B08D01B4B9B6823F4E0627B682F
:10121000DB68184913438B607B681B6803F0080385
:10122000002B09D0134B9B6823F460527B681B6929
:10123000DB00104913438B6000F024F802460D4B8D
:101240009B681B0903F00F030B49CB5C03F01F03E2
:1012500022FA03F3094A1360094B1B68184604F08D
:10126000B5FA0346FB72FB7A18461037BD4680BDBF
:1012700000200240001002403C5E000800000020F8
:101280000400002080B489B000AF0023FB6100237C
:10129000BB613E4B9B6803F00C033B613B4BDB683F
:1012A00003F00303FB603B69002B05D03B690C2B6B
:1012B00021D1FB68012B1ED1344B1B6803F00803BE
:1012C000002B07D1314BD3F894301B0A03F00F03E6
:1012D000FB6105E02D4B1B681B0903F00F03FB614D
:1012E0002B4AFB6952F82330FB613B69002B0DD17F
:1012F000FB69BB610AE03B69042B02D1254BBB6152
:1013000004E03B69082B01D1234BBB613B690C2BEB
:1013100034D11E4BDB6803F00303BB60BB68022BB8
:1013200003D0BB68032B03D005E01A4B7B6105E0BB
:10133000194B7B6102E0FB697B6100BF134BDB68EB
:101340001B0903F0070301337B60104BDB681B0AAA
:1013500003F07F037A6903FB02F27B68B2FBF3F3CD
:101360007B610A4BDB685B0E03F0030301335B0018
:101370003B607A693B68B2FBF3F3BB61BB6918461B
:101380002437BD465DF8047B704700BF0010024063
:10139000545E00080024F40000127A0080B400AF0C
:1013A000034B1B681846BD465DF8047B704700BFC1
:1013B0000000002080B500AFFFF7F0FF0246064BAB
:1013C0009B681B0A03F007030449CB5C03F01F036F
:1013D00022FA03F3184680BD001002404C5E00085C
:1013E00080B500AFFFF7DAFF0246064B9B68DB0AC9
:1013F00003F007030449CB5C03F01F0322FA03F355
:10140000184680BD001002404C5E000880B483B0D6
:1014100000AF786039607B680F221A60124B9B68BE
:1014200003F003027B685A600F4B9B6803F0F002E5
:101430007B689A600C4B9B6803F4E0627B68DA601F
:10144000094B9B68DB0803F4E0627B681A61074B79
:101450001B6803F007023B681A6000BF0C37BD46EB
:101460005DF8047B704700BF00100240002002407E
:1014700080B586B000AF786000233B612A4B9B6D3E
:1014800003F08053002B03D000F062FB786114E07E
:10149000254B9B6D244A43F080539365224B9B6DF3
:1014A00003F08053FB60FB6800F052FB78611E4B39
:1014B0009B6D1D4A23F0805393657B69B3F5007FD4
:1014C0000BD17B68802B19D97B68A02B02D9022312
:1014D0003B6113E001233B6110E07B68802B02D964
:1014E00003233B610AE07B68802B02D102233B612E
:1014F00004E07B68702B01D101233B610B4B1B681F
:1015000023F0070209493B6913430B60074B1B6833
:1015100003F007033A699A4201D0012300E0002357
:1015200018461837BD4680BD00100240002002401A
:1015300080B586B000AF78600023FB740023BB74D5
:101540007B681B6803F40033002B00F09E800023AF
:101550007B74464B9B6D03F08053002B01D101231C
:1015600000E00023002B0DD0404B9B6D3F4A43F021
:10157000805393653D4B9B6D03F08053BB60BB680C
:1015800001237B743A4B1B68394A43F48073136020
:10159000FFF70AF9F86009E0FFF706F90246FB6871
:1015A000D31A022B02D90323FB7405E0304B1B68CE
:1015B00003F48073002BEFD0FB7C002B5AD12B4B14
:1015C000D3F8903003F440737B617B69002B1ED00D
:1015D0007B681B6B7A699A4219D0244BD3F8903000
:1015E00023F440737B61214BD3F890301F4A43F4BE
:1015F0008033C2F890301D4BD3F890301B4A23F44F
:101600008033C2F89030194A7B69C2F890307B6908
:1016100003F00103002B16D0FFF7C6F8F8600BE0CB
:10162000FFF7C2F80246FB68D31A41F288329342B0
:1016300002D90323FB7406E00C4BD3F8903003F07F
:101640000203002BECD0FB7C002B0BD1074BD3F813
:10165000903023F440727B681B6B04491343C1F83C
:10166000903009E0FB7CBB7406E000BF0010024034
:1016700000700040FB7CBB747B7C012B05D16E4B62
:101680009B6D6D4A23F0805393657B681B6803F064
:101690000103002B0AD0684BD3F8883023F00302F3
:1016A0007B685B6864491343C1F888307B681B68BA
:1016B00003F00203002B0AD05F4BD3F8883023F0ED
:1016C0000C027B689B685C491343C1F888307B68D7
:1016D0001B6803F00403002B0AD0574BD3F8883063
:1016E00023F030027B68DB6853491343C1F888302C
:1016F0007B681B6803F02003002B0AD04E4BD3F805
:10170000883023F440627B681B694B491343C1F85E
:1017100088307B681B6803F40073002B0AD0464BAB
:10172000D3F8883023F440227B681B6A4249134374
:10173000C1F888307B681B6803F48063002B0AD0F3
:101740003D4BD3F8883023F440127B685B6A3A49FA
:101750001343C1F888307B681B6803F04003002BFB
:101760000AD0354BD3F8883023F440527B685B694C
:1017700031491343C1F888307B681B6803F080034C
:10178000002B0AD02C4BD3F8883023F440427B68DE
:101790009B6929491343C1F888307B681B6803F4AF
:1017A0008073002B0AD0244BD3F8883023F44032C6
:1017B0007B68DB6920491343C1F888307B681B686C
:1017C00003F40053002B15D01B4BD3F8883023F0C3
:1017D00040627B689B6A18491343C1F888307B6874
:1017E0009B6AB3F1006F05D1134BDB68124A43F4D7
:1017F0008013D3607B681B6803F48023002B15D013
:101800000D4BD3F8883023F040627B68DB6A0A49CD
:101810001343C1F888307B68DB6AB3F1006F05D1F0
:10182000054BDB68044A43F48013D360BB7C184645
:101830001837BD4680BD00BF0010024080B487B09D
:1018400000AF7860396000237B614EE13B681A6825
:1018500001217B6901FA03F31340FB60FB68002B55
:1018600000F040813B685B6803F00303012B05D067
:101870003B685B6803F00303022B30D17B689B68F5
:101880003B617B695B00032202FA03F3DB433A69A5
:1018900013403B613B68DA687B695B0002FA03F343
:1018A0003A6913433B617B683A699A607B685B687D
:1018B0003B6101227B6902FA03F3DB433A6913407F
:1018C0003B613B685B681B0903F001027B6902FA1C
:1018D00003F33A6913433B617B683A695A603B689A
:1018E0005B6803F00303032B17D07B68DB683B6165
:1018F0007B695B00032202FA03F3DB433A6913407E
:101900003B613B689A687B695B0002FA03F33A69C2
:1019100013433B617B683A69DA603B685B6803F0BC
:101920000303022B23D17B69DA087B68083253F862
:1019300022303B617B6903F007039B000F2202FA10
:1019400003F3DB433A6913403B613B681A697B69E7
:1019500003F007039B0002FA03F33A6913433B6168
:101960007B69DA087B680832396943F822107B68A2
:101970001B683B617B695B00032202FA03F3DB43D4
:101980003A6913403B613B685B6803F003027B6983
:101990005B0002FA03F33A6913433B617B683A69DF
:1019A0001A603B685B6803F44033002B00F09A80B8
:1019B000554B1B6E544A43F001031366524B1B6E8A
:1019C00003F00103BB60BB68504A7B699B0802338C
:1019D00052F823303B617B6903F003039B000F2225
:1019E00002FA03F3DB433A6913403B617B68B3F1CE
:1019F000904F13D07B68464A93420DD07B68454A8E
:101A0000934207D07B68444A934201D1032306E006
:101A1000072304E0022302E0012300E000237A69A7
:101A200002F00302920093403A6913433B61374945
:101A30007B699B0802333A6941F82320374B9B6846
:101A40003B61FB68DB433A6913403B613B685B6881
:101A500003F48013002B03D03A69FB6813433B6106
:101A60002E4A3B6993602D4BDB683B61FB68DB438F
:101A70003A6913403B613B685B6803F40013002B39
:101A800003D03A69FB6813433B61244A3B69D36046
:101A9000224B5B683B61FB68DB433A6913403B6167
:101AA0003B685B6803F40033002B03D03A69FB68A2
:101AB00013433B61194A3B695360184B1B683B61F8
:101AC000FB68DB433A6913403B613B685B6803F4A6
:101AD0008033002B03D03A69FB6813433B610F4A04
:101AE0003B6913607B6901337B613B681A687B69E2
:101AF00022FA03F3002B7FF4A9AE00BF00BF1C370E
:101B0000BD465DF8047B70470010024000000140B4
:101B10000004004800080048000C00480004014090
:101B200080B483B000AF78600B467B8013467B7037
:101B30007B78002B03D07A887B689A6102E07A88F0
:101B40007B689A6200BF0C37BD465DF8047B704726
:101B500080B400AF044B1B6803F4C0631846BD4655
:101B60005DF8047B704700BF0070004080B485B012
:101B700000AF78607B68B3F5007F30D1234B1B68E2
:101B800003F4C063B3F5007F38D0204B1B6823F407
:101B9000C0631E4A43F4007313601D4B1B6832225E
:101BA00002FB03F31B4AA2FB03239B0C0133FB60E4
:101BB00002E0FB68013BFB60144B5B6903F480634C
:101BC000B3F5806F02D1FB68002BF2D10F4B5B693C
:101BD00003F48063B3F5806F10D103230FE00B4B48
:101BE0001B6803F4C063B3F5806F07D0074B1B6815
:101BF00023F4C063054A43F480631360002318464E
:101C00001437BD465DF8047B704700BF007000408C
:101C10000000002083DE1B4380B485B000AF7860F5
:101C20007B6803F00703FB600C4BDB68BB60BA68A2
:101C30004FF6FF031340BB60FB681A02BB681343F7
:101C400043F0BF6343F40033BB60044ABB68D36016
:101C500000BF1437BD465DF8047B704700ED00E01F
:101C600080B400AF044BDB681B0A03F0070318467F
:101C7000BD465DF8047B704700ED00E080B483B0A2
:101C800000AF0346FB7197F90730002B0BDBFB79A4
:101C900003F01F02074997F907305B09012000FA9A
:101CA00002F241F8232000BF0C37BD465DF8047BEB
:101CB000704700BF00E100E080B483B000AF03468E
:101CC0003960FB7197F90730002B0ADB3B68DAB209
:101CD0000C4997F907301201D2B20B4483F8002364
:101CE0000AE03B68DAB20849FB7903F00F03043BD2
:101CF0001201D2B20B441A7600BF0C37BD465DF814
:101D0000047B704700E100E000ED00E080B489B0A2
:101D100000AFF860B9607A60FB6803F00703FB610D
:101D2000FB69C3F10703042B28BF0423BB61FB69D4
:101D30000433062B02D9FB69033B00E000237B61DF
:101D40004FF0FF32BB6902FA03F3DA43BB681A4073
:101D50007B699A404FF0FF317B6901FA03F3D94365
:101D60007B680B40134318462437BD465DF8047B5F
:101D7000704780B582B000AF78607868FFF74CFF9D
:101D800000BF0837BD4680BD80B586B000AF0346B2
:101D9000B9607A60FB7300237B61FFF761FF7861B4
:101DA0007A68B9687869FFF7B1FF024697F90F3092
:101DB00011461846FFF780FF00BF1837BD4680BDAB
:101DC00080B582B000AF0346FB7197F90730184623
:101DD000FFF754FF00BF0837BD4680BD80B582B015
:101DE00000AF78607B68002B01D1012340E07B6865
:101DF000DB6F002B06D17B68002283F8782078689F
:101E000003F08CFC7B682422DA677B681B681A6805
:101E10007B681B6822F001021A607B685B6A002BFA
:101E200002D0786800F082FA786800F025F803465E
:101E3000012B01D101231BE07B681B685A687B687A
:101E40001B6822F490425A607B681B689A687B6822
:101E50001B6822F02A029A607B681B681A687B68FC
:101E60001B6842F001021A60786800F001FB03462B
:101E700018460837BD4680BD2DE9B04F8AB000AF87
:101E8000F860002387F82230FB689A68FB681B69BA
:101E90001A43FB685B691A43FB68DB6913437B6287
:101EA000FB681B681A689E4B1340FA681268796ACF
:101EB0000B431360FB681B685B6823F44051FB68AD
:101EC000DA68FB681B680A435A60FB689B697B629F
:101ED000FB681B68934A934204D0FB681B6A7A6ACA
:101EE00013437B62FB681B689B6823F43061FB68CB
:101EF0001B687A6A0A439A60FB681B688A4A9342A5
:101F000026D18A4BD3F8883003F00303032B1BD868
:101F100001A252F823F000BF291F0008391F000852
:101F2000311F0008411F0008012387F82330ABE070
:101F3000022387F82330A7E0042387F82330A3E0A7
:101F4000082387F823309FE0102387F823309BE095
:101F5000FB681B68764A934238D1744BD3F88830BB
:101F600003F00C030C2B2DD801A252F823F000BF74
:101F7000A51F0008C51F0008C51F0008C51F0008D1
:101F8000B51F0008C51F0008C51F0008C51F0008B1
:101F9000AD1F0008C51F0008C51F0008C51F0008A9
:101FA000BD1F0008002387F823306DE0022387F867
:101FB000233069E0042387F8233065E0082387F89D
:101FC000233061E0102387F823305DE0FB681B6855
:101FD000584A934225D1554BD3F8883003F030034B
:101FE000302B16D0302B18D8202B0AD0202B14D809
:101FF000002B02D0102B08D00FE0002387F82330ED
:1020000042E0022387F823303EE0042387F82330A0
:102010003AE0082387F8233036E0102387F823308E
:1020200032E0FB681B683F4A93422AD13F4BD3F80A
:10203000883003F44063B3F5406F1AD0B3F5406FB6
:102040001BD8B3F5006F0CD0B3F5006F15D8002B7B
:1020500003D0B3F5806F08D00FE0002387F823305A
:1020600012E0022387F823300EE0042387F82330A0
:102070000AE0082387F8233006E0102387F823308E
:1020800002E0102387F82330FB681B68254A93423F
:1020900040F08A8097F82330082B24D801A252F808
:1020A00023F000BFC9200008E7200008D120000865
:1020B000E7200008D7200008E7200008E7200008F4
:1020C000E7200008DF200008FFF774F9F86110E04E
:1020D000194BFB610DE0FFF7D5F8F86109E04FF40B
:1020E0000043FB6105E00023FB61012387F82230F8
:1020F00000BFFB69002B00F00981FB685A6813469A
:102100005B001344FA699A4205D3FB685B681B03C2
:10211000FA699A4212D9012387F82230F6E000BF0B
:10212000F369FFEF008000400038014000100240DA
:1021300000440040004800400024F400FB690022F5
:102140001C4615464FF000024FF000032B0243EAF5
:1021500014632202F96849684908002088468146CC
:1021600012EB080A43EB090BFB685B6800223B603B
:102170007A60D7E9002350465946FEF709F802462F
:102180000B461346BB61BB69B3F5407F08D3BB69FF
:10219000B3F5801F04D2FB681B68BA69DA60B5E04A
:1021A000012387F82230B1E0FB68DB69B3F5004F0B
:1021B0005DD197F82330082B27D801A252F823F0DD
:1021C000E5210008ED210008F52100080B22000898
:1021D000FB2100080B2200080B2200080B2200083C
:1021E00003220008FFF7E6F8F86114E0FFF7F8F8BB
:1021F000F86110E04C4BFB610DE0FFF743F8F8612C
:1022000009E04FF40043FB6105E00023FB6101237B
:1022100087F8223000BFFB69002B77D0FB695A009A
:10222000FB685B685B081A44FB685B68B2FBF3F30E
:10223000BB61BB690F2B16D9BB69B3F5803F12D2C6
:10224000BB699BB223F00F03FB82BB695B089BB2A7
:1022500003F007039AB2FB8A1343FB82FB681B68F7
:10226000FA8ADA6052E0012387F822304EE097F8CC
:102270002330082B27D801A252F823F0A12200080E
:10228000A9220008B1220008C7220008B7220008CE
:10229000C7220008C7220008C7220008BF22000882
:1022A000FFF788F8F86114E0FFF79AF8F86110E09A
:1022B0001D4BFB610DE0FEF7E5FFF86109E04FF40F
:1022C0000043FB6105E00023FB61012387F8223016
:1022D00000BFFB69002B19D0FB685B685A08FB69DB
:1022E0001A44FB685B68B2FBF3F3BB61BB690F2B5D
:1022F00009D9BB69B3F5803F05D2BB699AB2FB68C7
:102300001B68DA6002E0012387F82230FB680022B4
:102310009A66FB680022DA6697F82230184628375A
:10232000BD46BDE8B08F00BF0024F40080B483B088
:1023300000AF78607B685B6A03F00803002B0AD06B
:102340007B681B685B6823F400417B685A6B7B6881
:102350001B680A435A607B685B6A03F00103002B29
:102360000AD07B681B685B6823F400317B689A6A3B
:102370007B681B680A435A607B685B6A03F0020350
:10238000002B0AD07B681B685B6823F480317B6874
:10239000DA6A7B681B680A435A607B685B6A03F0F1
:1023A0000403002B0AD07B681B685B6823F4802140
:1023B0007B681A6B7B681B680A435A607B685B6AA0
:1023C00003F01003002B0AD07B681B689B6823F482
:1023D00080517B689A6B7B681B680A439A607B68B4
:1023E0005B6A03F02003002B0AD07B681B689B68A4
:1023F00023F400517B68DA6B7B681B680A439A60A0
:102400007B685B6A03F04003002B1AD07B681B6873
:102410005B6823F480117B681A6C7B681B680A4335
:102420005A607B681B6CB3F5801F0AD17B681B6800
:102430005B6823F4C0017B685A6C7B681B680A43A5
:102440005A607B685B6A03F08003002B0AD07B68CC
:102450001B685B6823F400217B689A6C7B681B68AF
:102460000A435A6000BF0C37BD465DF8047B7047D5
:1024700080B598B002AF78607B680022C3F88420F2
:10248000FEF792F978657B681B681B6803F0080308
:10249000082B2ED16FF07E4300937B6D00224FF40A
:1024A0000011786800F08CF80346002B21D07B687F
:1024B0001B68BB63BB6B53E8003F7B637B6B23F004
:1024C00080033B657B681B681A463B6D7B643A64FE
:1024D000396C7A6C41E80023FB63FB6B002BE6D17F
:1024E0007B682022DA677B68002283F87820032348
:1024F00062E07B681B681B6803F00403042B49D16E
:102500006FF07E4300937B6D00224FF4800178686A
:1025100000F056F80346002B3CD07B681B687B62BA
:102520007B6A53E8003F3B623B6A23F49073FB6491
:102530007B681B681A46FB6C3B63FA62F96A3A6B6C
:1025400041E80023BB62BB6A002BE6D17B681B68B5
:1025500008333B613B6953E8003FFB60FB6823F0B5
:102560000103BB647B681B680833BA6CFA61BB610A
:10257000B969FA6941E800237B617B69002BE5D1E9
:102580007B682022C3F880207B68002283F87820B3
:10259000032311E07B682022DA677B682022C3F8DE
:1025A00080207B6800221A667B6800225A667B685E
:1025B000002283F87820002318465837BD4680BD96
:1025C00080B584B000AFF860B9603B601346FB7122
:1025D0004FE0BB69B3F1FF3F4BD0FEF7E5F8024691
:1025E0003B68D31ABA699A4202D3BB69002B01D166
:1025F00003234EE0FB681B681B6803F00403002BF9
:1026000037D0BB68802B34D0BB68402B31D0FB68FF
:102610001B68DB6903F00803082B10D1FB681B68FB
:1026200008221A62F86800F038F8FB680822C3F83C
:102630008420FB68002283F87820012329E0FB68CE
:102640001B68DB6903F40063B3F5006F11D1FB680D
:102650001B684FF400621A62F86800F01EF8FB680D
:102660002022C3F88420FB68002283F8782003230B
:102670000FE0FB681B68DA69BB681340BA689A42CE
:102680000CBF01230023DBB21A46FB799A42A0D08B
:10269000002318461037BD4680BD80B495B000AF0A
:1026A00078607B681B687B637B6B53E8003F3B6310
:1026B0003B6B23F49073FB647B681B681A46FB6CCE
:1026C0003B64FA63F96B3A6C41E80023BB63BB6B74
:1026D000002BE6D17B681B6808333B623B6A53E8FA
:1026E000003FFB61FB6923F00103BB647B681B684F
:1026F0000833BA6CFA62BB62B96AFA6A41E800232D
:102700007B627B6A002BE5D17B681B6E012B18D1A5
:102710007B681B68FB60FB6853E8003FBB60BB68DD
:1027200023F010037B647B681B681A467B6CBB61DB
:102730007A617969BA6941E800233B613B69002B02
:10274000E6D17B682022C3F880207B6800221A66CD
:102750007B6800229A6600BF5437BD465DF8047B53
:10276000704780B483B000AF78607B6803F10802E3
:102770007B685A607B684FF0FF329A607B6803F198
:1027800008027B68DA607B6803F108027B681A61E3
:102790007B6800221A6000BF0C37BD465DF8047BE1
:1027A000704780B483B000AF78607B6800221A6104
:1027B00000BF0C37BD465DF8047B704780B485B020
:1027C00000AF786039607B685B68FB603B68FA68E3
:1027D0005A60FB689A683B689A60FB689B683A6835
:1027E0005A60FB683A689A603B687A681A617B684D
:1027F0001B685A1C7B681A6000BF1437BD465DF821
:10280000047B704780B485B000AF786039603B6866
:102810001B68BB60BB68B3F1FF3F03D17B681B69DA
:10282000FB600CE07B680833FB6002E0FB685B68E0
:10283000FB60FB685B681B68BA689A42F6D2FB686B
:102840005A683B685A603B685B683A689A603B68C4
:10285000FA689A60FB683A685A603B687A681A615D
:102860007B681B685A1C7B681A6000BF1437BD4622
:102870005DF8047B704780B485B000AF78607B68FA
:102880001B69FB607B685B687A6892689A607B680A
:102890009B687A6852685A60FB685B687A689A42FB
:1028A00003D17B689A68FB685A607B6800221A61D2
:1028B000FB681B685A1EFB681A60FB681B68184699
:1028C0001437BD465DF8047B7047000080B584B0C6
:1028D00000AF786039607B68FB60FB68002B0BD130
:1028E0004FF0500383F31188BFF36F8FBFF34F8F07
:1028F000BB6000BF00BFFDE702F02EFCFB681A685A
:10290000FB68DB6BF968096C01FB03F31A44FB6895
:102910009A60FB6800229A63FB681A68FB685A6039
:10292000FB681A68FB68DB6B013BF968096C01FB0B
:1029300003F31A44FB68DA60FB68FF2283F8442043
:10294000FB68FF2283F845203B68002B14D1FB680D
:102950001B69002B1AD0FB681033184601F06CF984
:102960000346002B12D00D4B4FF080521A60BFF37C
:102970004F8FBFF36F8F09E0FB6810331846FFF7E6
:10298000F0FEFB6824331846FFF7EBFE02F016FC5E
:10299000012318461037BD4680BD00BF04ED00E09E
:1029A00080B58EB002AFF860B9607A603B60FB68BA
:1029B000002B0BD14FF0500383F31188BFF36F8FBF
:1029C000BFF34F8FBB6200BF00BFFDE73B68002B2A
:1029D0000BD14FF0500383F31188BFF36F8FBFF318
:1029E0004F8F7B6200BF00BFFDE77B68002B02D0EA
:1029F000BB68002B01D0012300E00023002B0BD18A
:102A00004FF0500383F31188BFF36F8FBFF34F8FE5
:102A10003B6200BF00BFFDE77B68002B02D1BB68B3
:102A2000002B01D1012300E00023002B0BD14FF03C
:102A3000500383F31188BFF36F8FBFF34F8FFB6198
:102A400000BF00BFFDE750237B617B69502B0BD09B
:102A50004FF0500383F31188BFF36F8FBFF34F8F95
:102A6000BB6100BF00BFFDE77B693B68FB62FB6A9F
:102A7000002B0DD0FB6A012283F8462097F83820FE
:102A8000FB6A009313467A68B968F86800F005F8A5
:102A9000FB6A18463037BD4680BD80B584B000AFB4
:102AA000F860B9607A60FB70BB68002B03D1BB692A
:102AB000BA691A6002E0BB697A681A60BB69FA6891
:102AC000DA63BB69BA681A640121B869FFF7FEFED0
:102AD000BB69FA7883F84C2000BF1037BD4680BD33
:102AE00080B58EB000AFF860B9607A603B600023BB
:102AF0007B63FB683B633B6B002B0BD14FF05003B8
:102B000083F31188BFF36F8FBFF34F8FBB6200BF9A
:102B100000BFFDE7BB68002B03D13B6B1B6C002B98
:102B200001D1012300E00023002B0BD14FF0500313
:102B300083F31188BFF36F8FBFF34F8F7B6200BFAA
:102B400000BFFDE73B68022B03D13B6BDB6B012B26
:102B500001D1012300E00023002B0BD14FF05003E3
:102B600083F31188BFF36F8FBFF34F8F3B6200BFBA
:102B700000BFFDE701F026FA0346002B02D17B6877
:102B8000002B01D1012300E00023002B0BD14FF0DB
:102B9000500383F31188BFF36F8FBFF34F8FFB6137
:102BA00000BF00BFFDE702F0D7FA3B6B9A6B3B6BAF
:102BB000DB6B9A4202D33B68022B29D13A68B96891
:102BC000386B00F00FFAF8623B6B5B6A002B10D099
:102BD0003B6B2433184601F02FF80346002B13D02B
:102BE0003F4B4FF080521A60BFF34F8FBFF36F8F90
:102BF0000AE0FB6A002B07D0394B4FF080521A6075
:102C0000BFF34F8FBFF36F8F02F0D8FA012363E059
:102C10007B68002B03D102F0D1FA00235CE07B6BD0
:102C2000002B06D107F11403184601F069F80123BF
:102C30007B6302F0C3FA00F0D1FD02F08DFA3B6B2A
:102C400093F844305BB2B3F1FF3F03D13B6B0022FA
:102C500083F844203B6B93F845305BB2B3F1FF3F00
:102C600003D13B6B002283F8452002F0A7FA3A1DFE
:102C700007F114031146184601F058F80346002BDB
:102C800024D1386B00F0A6FA0346002B18D03B6B1A
:102C900010337A681146184600F07CFF386B00F05C
:102CA00031FA00F0A9FD0346002B7FF47CAF0C4BFA
:102CB0004FF080521A60BFF34F8FBFF36F8F72E7F0
:102CC000386B00F01FFA00F097FD6CE7386B00F0EE
:102CD00019FA00F091FD002318463837BD4680BD33
:102CE00004ED00E080B590B000AFF860B9607A60A4
:102CF0003B60FB68BB63BB6B002B0BD14FF05003F9
:102D000083F31188BFF36F8FBFF34F8FBB6200BF98
:102D100000BFFDE7BB68002B03D1BB6B1B6C002B16
:102D200001D1012300E00023002B0BD14FF0500311
:102D300083F31188BFF36F8FBFF34F8F7B6200BFA8
:102D400000BFFDE73B68022B03D1BB6BDB6B012BA4
:102D500001D1012300E00023002B0BD14FF05003E1
:102D600083F31188BFF36F8FBFF34F8F3B6200BFB8
:102D700000BFFDE702F0D0FAEFF311824FF05003ED
:102D800083F31188BFF36F8FBFF34F8FFA61BB617D
:102D9000FB697B63BB6B9A6BBB6BDB6B9A4202D3A9
:102DA0003B68022B2FD1BB6B93F8453087F833304B
:102DB000BB6B9B6BFB623A68B968B86B00F012F9A9
:102DC00097F93330B3F1FF3F12D1BB6B5B6A002B35
:102DD00016D0BB6B2433184600F02EFF0346002BA1
:102DE0000ED07B68002B0BD07B6801221A6007E0B5
:102DF00097F833300133DBB25AB2BB6B83F845200E
:102E00000123FB6301E00023FB637B6B7B617B6938
:102E100083F3118800BFFB6B18464037BD4680BD69
:102E200080B58CB000AFF860B9607A600023FB62B7
:102E3000FB68BB62BB6A002B0BD14FF0500383F3DE
:102E40001188BFF36F8FBFF34F8F3B6200BF00BF8E
:102E5000FDE7BB68002B03D1BB6A1B6C002B01D1C3
:102E6000012300E00023002B0BD14FF0500383F32C
:102E70001188BFF36F8FBFF34F8FFB6100BF00BF9F
:102E8000FDE701F09FF80346002B02D17B68002B81
:102E900001D1012300E00023002B0BD14FF05003A0
:102EA00083F31188BFF36F8FBFF34F8FBB6100BFF8
:102EB00000BFFDE702F050F9BB6A9B6B7B627B6A47
:102EC000002B1FD0B968B86A00F0F6F87B6A5A1E6A
:102ED000BB6A9A63BB6A1B69002B0FD0BB6A1033B5
:102EE000184600F0A9FE0346002B07D03C4B4FF0DC
:102EF00080521A60BFF34F8FBFF36F8F02F05EF9FD
:102F0000012369E07B68002B03D102F057F900230D
:102F100062E0FB6A002B06D107F11003184600F0AF
:102F2000EFFE0123FB6202F049F900F057FC02F0CA
:102F300013F9BB6A93F844305BB2B3F1FF3F03D19E
:102F4000BB6A002283F84420BB6A93F845305BB229
:102F5000B3F1FF3F03D1BB6A002283F8452002F0A2
:102F60002DF93A1D07F110031146184600F0DEFE58
:102F70000346002B23D1B86A00F016F90346002B54
:102F800017D0BB6A24337A681146184600F002FE57
:102F9000B86A00F0B7F800F02FFC0346002B89D187
:102FA0000F4B4FF080521A60BFF34F8FBFF36F8FFC
:102FB00080E7B86A00F0A6F800F01EFC7AE7B86A6D
:102FC00000F0A0F800F018FCB86A00F0EDF8034635
:102FD000002B3FF46FAF002318463037BD4680BD4D
:102FE00004ED00E080B586B000AFF860B9607A60AB
:102FF00000237B61FB689B6B3B61FB681B6C002BB8
:103000000DD1FB681B68002B4DD1FB689B681846EF
:1030100000F0F6FF7861FB6800229A6043E07B686D
:10302000002B19D1FB685868FB681B6C1A46B968FD
:1030300002F078FEFB685A68FB681B6C1A44FB6858
:103040005A60FB685A68FB689B689A422BD3FB68FE
:103050001A68FB685A6026E0FB68D868FB681B6C3E
:103060001A46B96802F05EFEFB68DA68FB681B6C02
:103070005B421A44FB68DA60FB68DA68FB681B682D
:103080009A4207D2FB689A68FB681B6C5B421A4441
:10309000FB68DA607B68022B05D13B69002B02D00C
:1030A0003B69013B3B613B695A1CFB689A637B6946
:1030B00018461837BD4680BD80B582B000AF786035
:1030C00039607B681B6C002B18D07B68DA687B68E2
:1030D0001B6C1A447B68DA607B68DA687B689B68E3
:1030E0009A4203D37B681A687B68DA607B68D96888
:1030F0007B681B6C1A46386802F014FE00BF083764
:10310000BD4680BD80B584B000AF786002F024F881
:103110007B6893F84530FB7311E07B685B6A002B9A
:1031200012D07B682433184600F086FD0346002B3E
:1031300001D000F05FFEFB7B013BDBB2FB7397F934
:103140000F30002BE9DC00E000BF7B68FF2283F832
:10315000452002F033F801F0FFFF7B6893F844301C
:10316000BB7311E07B681B69002B12D07B681033A6
:10317000184600F061FD0346002B01D000F03AFE36
:10318000BB7B013BDBB2BB7397F90E30002BE9DC54
:1031900000E000BF7B68FF2283F8442002F00EF8B5
:1031A00000BF1037BD4680BD80B584B000AF7860E9
:1031B00001F0D2FF7B689B6B002B02D10123FB60E7
:1031C00001E00023FB6001F0F9FFFB6818461037AF
:1031D000BD4680BD80B584B000AF786001F0BCFF13
:1031E0007B689A6B7B68DB6B9A4202D10123FB60A0
:1031F00001E00023FB6001F0E1FFFB681846103797
:10320000BD4680BD80B485B000AF786039600023D2
:10321000FB6014E00F4AFB6852F83330002B0BD1EF
:103220000C49FB683A6841F833200A4AFB68DB0026
:1032300013447A685A6006E0FB680133FB60FB6860
:10324000072BE7D900BF00BF1437BD465DF8047BEC
:10325000704700BF8000002080B586B000AFF860E6
:10326000B9607A60FB687B6101F076FF7B6993F857
:1032700044305BB2B3F1FF3F03D17B69002283F896
:1032800044207B6993F845305BB2B3F1FF3F03D133
:103290007B69002283F8452001F090FF7B699B6BDE
:1032A000002B06D17B6924337A68B968184600F090
:1032B00097FC7869FFF726FF00BF1837BD4680BD31
:1032C00080B58EB004AFF860B9607A603B607B6B0C
:1032D000002B0BD14FF0500383F31188BFF36F8F96
:1032E000BFF34F8F3B6200BF00BFFDE7BB6B002BFE
:1032F0000BD14FF0500383F31188BFF36F8FBFF3EF
:103300004F8FFB6100BF00BFFDE74FF418733B61B7
:103310003B69B3F5187F0BD04FF0500383F311884E
:10332000BFF36F8FBFF34F8FBB6100BF00BFFDE7DF
:103330003B69BB6B002B1ED07B6B002B1BD0BB6B88
:103340007B627B6A7A6B1A637B6A022283F85D2256
:10335000002303937B6A029307F1140301933B6BF1
:1033600000933B687A68B968F86800F051F8786AA9
:1033700000F01EF901E000237B617B6918462837C5
:10338000BD4680BD80B58CB004AFF860B9603B60CD
:103390001346FB80FB889B00184601F0BFFB786159
:1033A0007B69002B0FD04FF4187001F0B7FBF86168
:1033B000FB69002B03D0FB697A691A6305E0786921
:1033C00001F07AFC01E00023FB61FB69002B17D0C0
:1033D000FB69002283F85D22FA8800230393FB69CE
:1033E0000293FB6A0193BB6A00933B68B968F86873
:1033F00000F00EF8F86900F0DBF80123BB6102E091
:103400004FF0FF33BB61BB6918462037BD4680BD16
:1034100080B588B000AFF860B9607A603B603B6B04
:10342000186B7B689B001A46A52102F0EFFB3B6BF3
:103430001A6B7B6803F18043013B9B001344BB6123
:10344000BB6923F00703BB61BB6903F00703002BD3
:103450000BD04FF0500383F31188BFF36F8FBFF38E
:103460004F8F7B6100BF00BFFDE7BB68002B1FD003
:103470000023FB6112E0BA68FB69134419783A6BC8
:10348000FB69134434330A461A70BA68FB69134463
:103490001B78002B06D0FB690133FB61FB690F2B06
:1034A000E9D900E000BF3B6B002283F8432003E032
:1034B0003B6B002283F83420BB6A372B01D93723BA
:1034C000BB623B6BBA6ADA623B6BBA6ADA643B6B2B
:1034D00000221A653B6B04331846FFF762F93B6B19
:1034E00018331846FFF75DF93B6B3A6B1A61BB6AFC
:1034F000C3F138023B6B9A613B6B3A6B5A623B6B90
:103500000022C3F858223B6B002283F85C223B6BFD
:1035100058334FF400720021184602F077FB3B6BE2
:10352000204ADA653B6B204A1A663B6B1F4A5A6693
:10353000396B4FF001024FF00003C1E93C233B6BB4
:1035400043F20E32A3F8F8203B6B4AF6CD32A3F8D3
:10355000FA203B6B41F23422A3F8FC203B6B4EF285
:103560006D62A3F8FE203B6B4DF6EC62A3F80021E0
:103570003B6B0522A3F802213B6B0B22A3F804212D
:103580003A68F968B86901F0B7FC02463B6B1A600B
:10359000FB6A002B02D0FB6A3A6B1A6000BF20372F
:1035A000BD4680BD701E0020D81E0020401F002098
:1035B00080B582B000AF786001F0CEFD2D4B1B6866
:1035C00001332C4A13602C4B1B68002B09D12A4A6B
:1035D0007B681360274B1B68012B10D100F02EFC79
:1035E0000DE0264B1B68002B09D1234B1B68DA6AC0
:1035F0007B68DB6A9A4202D81F4A7B681360204BC3
:103600001B6801331E4A13601D4B1A687B685A649D
:103610007B68DA6A1B4B1B689A4203D97B68DB6ABA
:10362000184A13607B68DA6A13469B0013449B00B8
:10363000154A1A447B68043319461046FFF7BEF852
:1036400001F0BCFD0D4B1B68002B0ED00A4B1B6814
:10365000DA6A7B68DB6A9A4207D20C4B4FF08052E1
:103660001A60BFF34F8FBFF36F8F00BF0837BD469F
:1036700080BD00BF94050020C0000020A0050020F0
:10368000B00500209C050020C400002004ED00E0EF
:1036900080B584B000AF78600023FB607B68002BAE
:1036A00018D0144B1B68002B0BD04FF0500383F342
:1036B0001188BFF36F8FBFF34F8FBB6000BF00BF98
:1036C000FDE700F08BF80021786800F009FD00F0BC
:1036D00093F8F860FB68002B07D1074B4FF080523E
:1036E0001A60BFF34F8FBFF36F8F00BF1037BD4617
:1036F00080BD00BFBC05002004ED00E080B58AB0AD
:1037000004AF0023BB6000237B603A46391D07F1FC
:103710000803184601F0CEF939687B68BA6802924E
:1037200001930023009300230A4624492448FFF70D
:10373000C7FD0346234A1360224B1B68002B02D0AF
:1037400001237B6101E000237B617B69012B02D1B6
:1037500000F01AFD78617B69012B1BD14FF05003FB
:1037600083F31188BFF36F8FBFF34F8F3B6100BFAF
:10377000154B1B685833154A1360154B4FF0FF3239
:103780001A60144B01221A60134B00221A6001F0D8
:103790003FFC0FE07B69B3F1FF3F0BD14FF05003CB
:1037A00083F31188BFF36F8FBFF34F8FFB6000BFB0
:1037B00000BFFDE700BF1837BD4680BD085E0008AA
:1037C0000D3E0008B8050020C000002010000020B9
:1037D000B4050020A00500209805002080B400AFAB
:1037E000044B1B680133034A136000BFBD465DF8FC
:1037F000047B7047BC05002080B584B000AF002377
:10380000FB600023BB60424B1B68002B0BD14FF0C9
:10381000500383F31188BFF36F8FBFF34F8F3B606B
:1038200000BF00BFFDE701F097FC394B1B68013B6F
:10383000374A1360364B1B68002B62D1354B1B682F
:10384000002B5ED02FE0344BDB68DB68FB60FB684D
:1038500018331846FFF70FF8FB6804331846FFF7D4
:103860000AF8FB68DA6A2D4B1B689A4203D9FB6899
:10387000DB6A2A4A1360FB68DA6A13469B0013442A
:103880009B00274A1A44FB68043319461046FEF78A
:1038900095FFFB68DA6A234B1B68DB6A9A4202D306
:1038A000214B01221A601C4B1B68002BCBD1FB68FB
:1038B000002B01D000F066FB1C4B1B687B607B6813
:1038C000002B10D000F046F80346002B02D0164B18
:1038D00001221A607B68013B7B607B68002BF1D181
:1038E000124B00221A60104B1B68002B09D00123D9
:1038F000BB600F4B4FF080521A60BFF34F8FBFF386
:103900006F8F01F05BFCBB6818461037BD4680BD69
:10391000BC05002094050020540500209C050020D3
:10392000C4000020C0000020A8050020A40500203D
:1039300004ED00E080B483B000AF054B1B687B60F2
:103940007B6818460C37BD465DF8047B704700BFA6
:103950009805002080B586B000AF00237B614F4BF7
:103960001B68002B40F090804D4B1B6801333B617E
:103970004B4A3B6913603B69002B21D1494B1B68C3
:103980001B68002B0BD04FF0500383F31188BFF35B
:103990006F8FBFF34F8F3B6000BF00BFFDE7414B10
:1039A0001B68FB60404B1B683E4A13603E4AFB6845
:1039B00013603E4B1B6801333C4A136000F0E2FA8F
:1039C0003B4B1B683A699A4249D3364B1B681B68CC
:1039D000002B04D1364B4FF0FF321A603FE0314BE1
:1039E0001B68DB68DB68BB60BB685B687B603A694F
:1039F0007B689A4203D22E4A7B6813602FE0BB6833
:103A000004331846FEF737FFBB689B6A002B04D0CF
:103A1000BB6818331846FEF72EFFBB68DA6A254BE1
:103A20001B689A4203D9BB68DB6A224A1360BB68F1
:103A3000DA6A13469B0013449B001F4A1A44BB6872
:103A4000043319461046FEF7B9FEBB68DA6A1B4B11
:103A50001B68DB6A9A42B8D301237B61B5E7174B39
:103A60001B68DA6A144913469B0013449B000B44FD
:103A70001B68012B01D901237B61114B1B68002BB3
:103A800007D001237B6104E00E4B1B6801330D4A14
:103A900013607B6918461837BD4680BDBC05002001
:103AA000980500204C05002050050020AC050020A2
:103AB000B40500209C050020C4000020C0000020A8
:103AC000A8050020A405002080B485B000AF2B4BD2
:103AD0001B68002B03D02A4B01221A6047E0284BB9
:103AE00000221A60274B1B68FB6011E0FB68002B6B
:103AF0000BD14FF0500383F31188BFF36F8FBFF3E7
:103B00004F8F7B6000BF00BFFDE7FB68013BFB60A0
:103B10001D49FA6813469B0013449B000B441B6825
:103B2000002BE3D0FA6813469B0013449B00164A0F
:103B30001344BB60BB685B685A68BB685A60BB686B
:103B40005A68BB6808339A4204D1BB685B685A68FC
:103B5000BB685A60BB685B68DB680C4A1360094A43
:103B6000FB681360094B1B685833094A136000BF98
:103B70001437BD465DF8047B704700BFBC050020CC
:103B8000A80500209C050020C4000020C0000020E3
:103B90001000002080B584B000AF786039607B6889
:103BA000002B0BD14FF0500383F31188BFF36F8FBD
:103BB000BFF34F8FFB6000BF00BFFDE7074B1B68E3
:103BC000183319467868FEF71DFE0121386800F0A9
:103BD00087FA00BF1037BD4680BD00BFC00000207F
:103BE00080B586B000AFF860B9607A60FB68002BE2
:103BF0000BD14FF0500383F31188BFF36F8FBFF3E6
:103C00004F8F7B6100BF00BFFDE70A4B1B68183375
:103C10001946F868FEF7D2FD7B68002B02D04FF002
:103C2000FF33BB607968B86800F05AFA00BF1837F4
:103C3000BD4680BDC000002080B586B000AF786072
:103C40007B68DB68DB683B613B69002B0BD14FF085
:103C5000500383F31188BFF36F8FBFF34F8FFB6067
:103C600000BF00BFFDE73B6918331846FEF703FEAF
:103C70001D4B1B68002B1DD13B6904331846FEF712
:103C8000FAFD3B69DA6A194B1B689A4203D93B6912
:103C9000DB6A164A13603B69DA6A13469B001344D9
:103CA0009B00134A1A443B69043319461046FEF739
:103CB00085FD05E03B69183319460E48FEF77EFD89
:103CC0003B69DA6A0C4B1B68DB6A9A4205D901230F
:103CD0007B610A4B01221A6001E000237B617B6952
:103CE00018461837BD4680BDBC0500209C05002045
:103CF000C400002054050020C0000020A8050020BA
:103D000080B483B000AF7860064B1A687B681A6095
:103D1000054B1A687B685A6000BF0C37BD465DF8DA
:103D2000047B7047AC0500209805002080B588B062
:103D300000AF786039607B68002B0BD14FF05003E7
:103D400083F31188BFF36F8FBFF34F8F3B6100BFC9
:103D500000BFFDE73B68002B0BD14FF0500383F30E
:103D60001188BFF36F8FBFF34F8FFB6000BF00BFA1
:103D7000FDE701F0F1F91D4B1B68BB617B685B68D7
:103D8000BA69D31A7B613B681B68B3F1FF3F02D16C
:103D90000023FB6123E07B681A68154B1B689A427D
:103DA00007D07B685B68BA699A4202D30123FB6142
:103DB00015E03B681B687A699A420BD23B681A6827
:103DC0007B69D21A3B681A607868FFF799FF002375
:103DD000FB6104E03B6800221A600123FB6101F0F3
:103DE000EDF9FB6918462037BD4680BD98050020D7
:103DF000AC05002080B400AF034B01221A6000BF65
:103E0000BD465DF8047B7047A805002080B582B0F0
:103E100000AF786000F052F8064B1B68012BF9D90F
:103E2000054B4FF080521A60BFF34F8FBFF36F8F77
:103E3000F0E700BFC400002004ED00E080B582B0D0
:103E400000AF00237B600CE07A6813469B001344AC
:103E50009B00124A13441846FEF783FC7B6801332B
:103E60007B607B68372BEFD90D48FEF77AFC0D4855
:103E7000FEF777FC0C48FEF774FC0C48FEF771FC6B
:103E80000B48FEF76EFC0B4B054A1A600A4B054ABD
:103E90001A6000BF0837BD4680BD00BFC4000020C7
:103EA0002405002038050020540500206805002066
:103EB000800500204C0500205005002080B582B010
:103EC00000AF19E001F048F9104BDB68DB687B605C
:103ED0007B6804331846FEF7CEFC0D4B1B68013B94
:103EE0000B4A13600B4B1B68013B0A4A136001F03D
:103EF00065F9786800F010F8064B1B68002BE1D1DB
:103F000000BF00BF0837BD4680BD00BF6805002068
:103F1000940500207C05002080B584B000AF786057
:103F20007B685833184601F079FE7B6893F85D3260
:103F3000002B08D17B681B6B184600F0BDFE78682B
:103F400000F0BAFE19E07B6893F85D32012B03D1D3
:103F5000786800F0B1FE10E07B6893F85D32022BC8
:103F60000BD04FF0500383F31188BFF36F8FBFF373
:103F70004F8FFB6000BF00BFFDE700BF1037BD469D
:103F800080BD000080B483B000AF0C4B1B681B6881
:103F9000002B04D10A4B4FF0FF321A6008E0074BA8
:103FA0001B68DB68DB687B607B685B68044A1360C6
:103FB00000BF0C37BD465DF8047B70474C05002000
:103FC000B405002080B483B000AF0B4B1B68002BFE
:103FD00002D101237B6008E0084B1B68002B02D153
:103FE00002237B6001E000237B607B6818460C376E
:103FF000BD465DF8047B7047A0050020BC0500208D
:1040000080B586B000AF78607B683B6100237B6140
:104010007B68002B58D02F4B1B683A699A420BD013
:104020004FF0500383F31188BFF36F8FBFF34F8FAF
:10403000FB6000BF00BFFDE73B691B6D002B0BD190
:104040004FF0500383F31188BFF36F8FBFF34F8F8F
:10405000BB6000BF00BFFDE73B691B6D5A1E3B699B
:104060001A653B69DA6A3B69DB6C9A422CD03B6982
:104070001B6D002B28D13B6904331846FEF7FBFB70
:104080003B69DA6C3B69DA623B69DB6AC3F138028F
:104090003B699A613B69DA6A0F4B1B689A4203D904
:1040A0003B69DB6A0C4A13603B69DA6A13469B0082
:1040B00013449B00094A1A443B69043319461046CD
:1040C000FEF77CFB01237B617B6918461837BD46F0
:1040D00080BD00BFC00000209C050020C40000205F
:1040E00080B584B000AF78603960214B1B68FB60FD
:1040F000204B1B6804331846FEF7BDFB7B68B3F109
:10410000FF3F0AD13B68002B07D01A4B1B680433D2
:1041100019461948FEF752FB26E0FA687B681344FB
:10412000BB60144B1B68BA685A60BA68FB689A4255
:1041300009D2124B1A680F4B1B68043319461046FC
:10414000FEF760FB10E00E4B1A680A4B1B68043345
:1041500019461046FEF756FB0A4B1B68BA689A428E
:1041600002D2084ABB68136000BF1037BD4680BD4D
:1041700098050020C0000020800500205005002088
:104180004C050020B405002080B58AB004AF0023A0
:104190007B6100F013FB1D4B1B68002B21D000231B
:1041A000FB600023BB603A1D07F1080107F10C0317
:1041B000184600F099FC7968BB68FA68029201938E
:1041C0000223009300230A4611491248FFF778F8AA
:1041D0000346114A1360104B1B68002B01D00123CA
:1041E0007B617B69002B0BD14FF0500383F3118867
:1041F000BFF36F8FBFF34F8F3B6100BF00BFFDE781
:104200007B6918461837BD4680BD00BFF005002009
:10421000105E000855430008F405002080B58AB000
:1042200000AFF860B9607A603B6000237B62FB6896
:10423000002B0BD14FF0500383F31188BFF36F8F26
:10424000BFF34F8F3B6200BF00BFFDE7194B1B68F8
:10425000002B2AD0BB683B617B687B61FB68BB613C
:10426000BB68052B18DCFFF7ADFE0346022B09D116
:10427000104B186807F1100100233A6BFEF730FC71
:10428000786212E00B4B186807F11001002300223E
:10429000FEF726FC786208E0064B186807F110016B
:1042A00000233A68FEF71EFD78627B6A18462837BD
:1042B000BD4680BDF005002080B588B002AF7860B3
:1042C0003960234B1B68DB68DB687B617B690433E7
:1042D0001846FEF7D0FA7B6993F8283003F0040300
:1042E000002B23D07B699A697B68D1187B683A6878
:1042F000786900F0D5F80346002B20D00023009306
:1043000000237A6800217869FFF788FF38613B69EC
:10431000002B14D14FF0500383F31188BFF36F8F3C
:10432000BFF34F8FFB6000BF00BFFDE77B6993F8D1
:10433000283023F00103DAB27B6983F828207B69F7
:104340001B6A7869984700BF1837BD4680BD00BF1B
:10435000E805002080B584B000AF786007F108035D
:10436000184600F059F8F860BB681946F86800F084
:1043700005F800F0D7F800BFF0E7000080B584B082
:1043800000AF78603960FFF729FA07F10803184693
:1043900000F066F8F860BB68002B30D13B68002B5A
:1043A0000AD17A68FB689A4206D8FFF725FAF968BD
:1043B0007868FFF781FF24E03B68002B08D0134B9F
:1043C0001B681B68002B01D1012300E000233B6028
:1043D0000F4B18687A68FB68D31A3A681946FEF7DB
:1043E0003BFFFFF709FA0346002B0AD1094B4FF0B8
:1043F00080521A60BFF34F8FBFF36F8F01E0FFF75A
:10440000FBF900BF1037BD4680BD00BFEC050020A2
:10441000F005002004ED00E080B485B000AF7860C6
:104420000E4B1B681B68002B01D1012200E000220B
:104430007B681A607B681B68002B05D1074B1B68E3
:10444000DB681B68FB6001E00023FB60FB6818462B
:104450001437BD465DF8047B704700BFE8050020B7
:1044600080B584B000AF7860FFF764FAF8600B4B5A
:104470001B68FA689A4205D200F03AF97B6801227B
:104480001A6002E07B6800221A60044AFB6813602D
:10449000FB6818461037BD4680BD00BFF8050020F8
:1044A00080B586B000AFF860B9607A603B600023E9
:1044B0007B61FB68BA685A60FB68FA681A61BA687F
:1044C0007B689A4212D87A683B68D21AFB689B696B
:1044D0009A4202D301237B611BE0104B1A68FB68F0
:1044E000043319461046FEF78DF912E07A683B68EE
:1044F0009A4206D2BA683B689A4202D301237B6192
:1045000007E0074B1A68FB68043319461046FEF7AC
:1045100079F97B6918461837BD4680BDEC05002047
:10452000E805002080B58EB002AFCEE07B68002B9E
:1045300019DA3B1D0433FB62FB6A002B0BD14FF0F1
:10454000500383F31188BFF36F8FBFF34F8FFB616D
:1045500000BF00BFFDE7FB6A1B68FA6A5068FA6A91
:104560009268114698477B68002BC0F2AE80FB68CA
:10457000BB62BB6A5B69002B04D0BB6A043318467C
:10458000FEF779F93B461846FFF76AFF78627B68C9
:10459000092B00F2978001A252F823F0C5450008CC
:1045A000C5450008C54500083B4600084F460008C1
:1045B0009B460008C5450008C54500083B46000865
:1045C0004F460008BB6A93F8283043F00103DAB283
:1045D000BB6A83F82820BA68BB6A9B69D118BB689C
:1045E0007A6AB86AFFF75CFF0346002B6CD0BB6A9F
:1045F0001B6AB86A9847BB6A93F8283003F0040333
:10460000002B61D0BA68BB6A9B691A4400230093EF
:1046100000230021B86AFFF701FE38623B6A002BD5
:1046200052D14FF0500383F31188BFF36F8FBFF364
:104630004F8FBB6100BF00BFFDE7BB6A93F8283016
:1046400023F00103DAB2BB6A83F828203DE0BB6A9D
:1046500093F8283043F00103DAB2BB6A83F82820CC
:10466000BA68BB6A9A61BB6A9B69002B0BD14FF099
:10467000500383F31188BFF36F8FBFF34F8F7B61BC
:1046800000BF00BFFDE7BB6A9A697B6AD1187B6AED
:104690007A6AB86AFFF704FF17E0BB6A93F828301C
:1046A00003F00203002B03D1B86A00F005FB0CE015
:1046B000BB6A93F8283023F00103DAB2BB6A83F8AF
:1046C000282002E000BF00E000BF084B1B68391D36
:1046D00000221846FEF7A4FB0346002B7FF426AF0A
:1046E00000BF00BF3037BD4680BD00BFF0050020D1
:1046F00080B588B002AF49E02E4B1B68DB681B68B1
:104700003B612C4B1B68DB68DB68FB60FB68043398
:104710001846FEF7B0F8FB681B6AF8689847FB6814
:1047200093F8283003F00403002B2FD0FB689B691B
:104730003A691344BB60BA683B699A420ED9FB6878
:10474000BA685A60FB68FA681A611A4B1A68FB6803
:10475000043319461046FEF755F817E0002300937E
:1047600000233A690021F868FFF758FD78607B68FC
:10477000002B0BD14FF0500383F31188BFF36F8FE1
:10478000BFF34F8F3B6000BF00BFFDE7094B1B68C5
:104790001B68002BB0D1074B1B687B61064B1B6865
:1047A000044A1360044A7B69136000BF1837BD4692
:1047B00080BD00BFE8050020EC05002080B582B078
:1047C00002AF00F0C9FC154B1B68002B20D1144828
:1047D000FDF7C7FF1348FDF7C4FF134B104A1A60DB
:1047E000124B104A1A6000230093114B114A1021FA
:1047F0000A20FEF7D5F80346084A1360074B1B68EA
:10480000002B05D0054B1B680B491846FEF7FAFC38
:1048100000F0D4FC00BFBD4680BD00BFF005002005
:10482000C0050020D4050020E8050020EC0500208C
:104830009C060020FC050020185E000880B483B0B0
:1048400000AF03463960FB7197F90730002B0ADB94
:104850003B68DAB20C4997F907301201D2B20B4427
:1048600083F800230AE03B68DAB20849FB7903F0D9
:104870000F03043B1201D2B20B441A7600BF0C376F
:10488000BD465DF8047B704700E100E000ED00E00C
:1048900080B500AF054B1B68FFF794FB0346012B67
:1048A00001D000F0E9FC00BF80BD00BF10E000E0D7
:1048B00080B500AF00216FF00400FFF7BFFF00BF1D
:1048C00080BD000080B483B000AFEFF305833B6090
:1048D0003B68002B03D06FF005037B600CE00A4BB4
:1048E0001B68002B05D1084B01221A6000237B6056
:1048F00002E04FF0FF337B607B6818460C37BD4603
:104900005DF8047B704700BFEC06002080B582B0E4
:1049100000AFEFF305833B603B68002B03D06FF0E3
:1049200005037B6010E00B4B1B68012B09D1FFF7DF
:10493000BFFF084B02221A60FEF7E0FE00237B60F7
:1049400002E04FF0FF337B607B6818460837BD46B6
:1049500080BD00BFEC06002080B58EB004AFF860CB
:10496000B9607A6000233B61EFF305837B617B696B
:10497000002B7FD1FB68002B7CD080233B62182367
:10498000FB6100237B624FF0FF33BB617B68002B30
:1049900046D07B681B68002B02D07B681B687B625B
:1049A0007B689B69002B02D07B689B69FB61FB697C
:1049B000002B08D0FB69382B05D87B685B6803F0B7
:1049C0000103002B01D0002355E07B685B69002BBD
:1049D00003D07B685B699B083B627B689B68002B0C
:1049E0000FD07B68DB68B3F5187F0AD37B681B693F
:1049F000002B06D07B685B69002B02D00123BB61D2
:104A000010E07B689B68002B0CD17B68DB68002B77
:104A100008D17B681B69002B04D10023BB6101E036
:104A20000023BB61BB69012B10D17B681B697A68CD
:104A3000926802920193FB690093BB683A6A796AB3
:104A4000F868FEF73DFC03463B6113E0BB69002BB1
:104A500010D13B6A9AB207F110030193FB690093EE
:104A6000BB68796AF868FEF78DFC0346012B01D01C
:104A700000233B613B6918462837BD4680BD80B5A1
:104A800084B000AF7860EFF30583BB60BB68002B98
:104A900003D06FF00503FB6007E00023FB607B6839
:104AA000002B02D07868FEF7F3FDFB68184610373C
:104AB000BD4680BD80B485B000AFF860B9607A6053
:104AC000FB68074A1A60BB68064A1A607B68802246
:104AD0001A6000BF1437BD465DF8047B704700BF05
:104AE000F00600205009002080B485B000AFF860C7
:104AF000B9607A60FB68074A1A60BB68064A1A60A8
:104B00007B684FF480721A6000BF1437BD465DF8B1
:104B1000047B7047500B0020B00D002080B58AB098
:104B200000AF78600023FB61FEF758FE5C4B1B680A
:104B3000002B01D100F024F95A4B1A687B6813400E
:104B4000002B40F095807B68002B1ED008227B68EC
:104B500013447B607B6803F00703002B15D07B6850
:104B600023F0070308337B607B6803F00703002B07
:104B70000BD04FF0500383F31188BFF36F8FBFF357
:104B80004F8F7B6100BF00BFFDE77B68002B6FD0BC
:104B9000454B1B687A689A426AD8444B3B62434B48
:104BA0001B687B6204E07B6A3B627B6A1B687B62FA
:104BB0007B6A5B687A689A4203D97B6A1B68002B20
:104BC000F1D1374B1B687A6A9A4251D03B6A1B6815
:104BD00008221344FB617B6A1A683B6A1A607B6A8D
:104BE0005A687B68D21A08235B009A4220D97A6AF5
:104BF0007B681344BB61BB6903F00703002B0BD038
:104C00004FF0500383F31188BFF36F8FBFF34F8FC3
:104C10003B6100BF00BFFDE77B6A5A687B68D21A20
:104C2000BB695A607B6A7A685A60B86900F00AF911
:104C30001D4B1A687B6A5B68D31A1B4A13601A4BB8
:104C40001A681B4B1B689A4203D2174B1B68184A01
:104C500013607B6A5A68134B1B681A437B6A5A605D
:104C60007B6A00221A60134B1B680133114A1360E0
:104C7000FEF7C2FDFB6903F00703002B0BD04FF0DA
:104C8000500383F31188BFF36F8FBFF34F8FFB6027
:104C900000BF00BFFDE7FB6918462837BD4680BD51
:104CA000701D0020841D0020741D0020681D002040
:104CB000781D00207C1D002080B586B000AF786094
:104CC0007B687B617B68002B4FD008235B427A694D
:104CD00013447B617B693B613B695A68254B1B68C8
:104CE0001340002B0BD14FF0500383F31188BFF317
:104CF0006F8FBFF34F8FFB6000BF00BFFDE73B69C5
:104D00001B68002B0BD04FF0500383F31188BFF3C7
:104D10006F8FBFF34F8FBB6000BF00BFFDE73B69E4
:104D20005A68144B1B681340002B1ED03B691B684C
:104D3000002B1AD13B695A680E4B1B68DB431A40A3
:104D40003B695A60FEF74AFD3B695A680A4B1B688B
:104D50001344094A1360386900F074F8074B1B6864
:104D60000133064A1360FEF747FD00BF1837BD4602
:104D700080BD00BF841D0020741D0020801D002008
:104D800080B485B000AF40F6B833BB60274BFB6002
:104D9000FB6803F00703002B0CD0FB680733FB60B4
:104DA000FB6823F00703FB60BA68FB68D31A1F4A4D
:104DB0001344BB60FB687B601D4A7B6813601C4B1F
:104DC00000225A607B68BA681344FB600822FB68C3
:104DD0009B1AFB60FB6823F00703FB60FB68154A26
:104DE0001360144B1B6800225A60124B1B68002290
:104DF0001A607B683B603B68FA68D21A3B685A606D
:104E00000C4B1A683B681A603B685B680A4A13607F
:104E10003B685B68094A1360094B4FF000421A6017
:104E200000BF1437BD465DF8047B7047B011002009
:104E3000681D0020701D0020781D0020741D0020BA
:104E4000841D002080B485B000AF7860284BFB60E3
:104E500002E0FB681B68FB60FB681B687A689A428B
:104E6000F7D8FB68BB60FB685B68BA6813447A6874
:104E70009A4208D1FB685A687B685B681A44FB68F1
:104E80005A60FB687B607B68BB607B685B68BA6864
:104E90001A44FB681B689A4218D1FB681A68154BC4
:104EA0001B689A420DD07B685A68FB681B685B6878
:104EB0001A447B685A60FB681B681A687B681A6032
:104EC00008E00C4B1A687B681A6003E0FB681A68FC
:104ED0007B681A60FA687B689A4202D0FB687A683D
:104EE0001A6000BF1437BD465DF8047B704700BFF1
:104EF000681D0020701D002080B485B000AFF860F0
:104F0000B9607A60FB68043BFB60FB684FF080721D
:104F10001A60FB68043BFB60BB6823F00102FB687E
:104F20001A60FB68043BFB600C4AFB681A60FB6874
:104F3000143BFB607A68FB681A60FB68043BFB600B
:104F4000FB686FF002021A60FB68203BFB60FB68A5
:104F500018461437BD465DF8047B7047614F000862
:104F600080B485B000AF00237B60134B1B68B3F1A6
:104F7000FF3F0BD04FF0500383F31188BFF36F8FC7
:104F8000BFF34F8FFB6000BF00BFFDE74FF0500342
:104F900083F31188BFF36F8FBFF34F8FBB6000BFE8
:104FA00000BF7B68002BFCD000BF00BF1437BD469C
:104FB0005DF8047B704700BF0C000020000000007B
:104FC000074B19680868B0E8F04F80F30988BFF311
:104FD0006F8F4FF0000080F311887047AFF30080AF
:104FE000C000002000BF00BF08480068006880F3D0
:104FF00008884FF0000080F3148862B661B6BFF3F2
:105000004F8FBFF36F8F00DF00BF00BF08ED00E0E0
:1050100080B586B000AF474B1B68474A93420BD11F
:105020004FF0500383F31188BFF36F8FBFF34F8F9F
:10503000FB6000BF00BFFDE73E4B1B683F4A934249
:105040000BD14FF0500383F31188BFF36F8FBFF381
:105050004F8F3B6100BF00BFFDE7394B7B617B6930
:105060001B78DBB27B607B69FF221A707B691B783F
:10507000DBB2FB70FB78DBB203F05003DAB2314BEA
:105080001A70314B07221A6009E02F4B1B68013B55
:105090002D4A1360FB78DBB25B00DBB2FB70FB7860
:1050A000DBB203F08003802BEFD0274B1B68C3F1EA
:1050B0000703042B0BD04FF0500383F31188BFF389
:1050C0006F8FBFF34F8FBB6000BF00BFFDE71E4B6C
:1050D0001B681B021C4A13601B4B1B6803F4E06334
:1050E000194A13607B68DAB27B691A70174B1B6828
:1050F000164A43F470031360144B1B68134A43F0C1
:105100007043136000F0DAF8114B00221A6000F0CF
:10511000F9F8104B1B680F4A43F040431360FFF748
:1051200063FFFEF7D1FCFFF71BFF0023184618377B
:10513000BD4680BD00ED00E071C20F4170C20F415D
:1051400000E400E0881D00208C1D002020ED00E020
:105150000C00002034EF00E080B483B000AF4FF0CB
:10516000500383F31188BFF36F8FBFF34F8F7B60C2
:1051700000BF104B1B6801330E4A13600D4B1B68B8
:10518000012B10D10C4B1B68DBB2002B0BD04FF066
:10519000500383F31188BFF36F8FBFF34F8F3B60D2
:1051A00000BF00BFFDE700BF0C37BD465DF8047BC4
:1051B000704700BF0C00002004ED00E080B483B015
:1051C00000AF124B1B68002B0BD14FF0500383F341
:1051D0001188BFF36F8FBFF34F8F7B6000BF00BF9D
:1051E000FDE70A4B1B68013B084A1360074B1B682D
:1051F000002B05D100233B603B6883F3118800BF7F
:1052000000BF0C37BD465DF8047B70470C000020E2
:10521000EFF30980BFF36F8F154B1A681EF0100F64
:1052200008BF20ED108A20E9F04F106009B44FF05C
:10523000500080F31188BFF34F8FBFF36F8FFEF7DD
:1052400043FC4FF0000080F3118809BC196808681E
:10525000B0E8F04F1EF0100F08BFB0EC108A80F3DA
:105260000988BFF36F8F7047AFF30080AFF3008002
:10527000C000002000BF00BF80B582B000AF4FF07B
:10528000500383F31188BFF36F8FBFF34F8F7B60A1
:1052900000BFFEF75FFB0346002B03D0064B4FF029
:1052A00080521A6000233B603B6883F3118800BF83
:1052B00000BF0837BD4680BD04ED00E080B400AFFC
:1052C0000B4B00221A600B4B00221A600A4B1B6822
:1052D0000A4AA2FB03239B09094A013B1360044BC2
:1052E00007221A6000BFBD465DF8047B704700BF0F
:1052F00010E000E018E000E000000020D34D621054
:1053000014E000E0DFF80C00016841F47001016076
:10531000704700BF88ED00E080B485B000AFEFF3C8
:105320000583FB60FB680F2B15D9184AFB681344F3
:105330001B78FB72164B1B78FA7A9A420BD24FF00D
:10534000500383F31188BFF36F8FBFF34F8F7B60E0
:1053500000BF00BFFDE70F4B1B6803F4E0620E4B7C
:105360001B689A420BD94FF0500383F31188BFF3A7
:105370006F8FBFF34F8F3B6000BF00BFFDE700BFE3
:105380001437BD465DF8047B704700BFF0E300E0D2
:10539000881D00200CED00E08C1D002080B500AFC2
:1053A000FBF7D6F900F034F800F0A8F800F076F832
:1053B000FFF788FA0D4A00210D48FFF7CDFA0346A2
:1053C0000C4A13600C4A00210C48FFF7C5FA03464B
:1053D0000B4A13600B4A00210B48FFF7BDFA034646
:1053E0000A4A1360FFF792FA00BFFDE7845E0008E7
:1053F00021560008181E0020A85E0008315600083B
:105400001C1E0020CC5E000841560008201E002013
:1054100080B596B000AF07F114034422002118466E
:1054200000F0F4FB3B4600221A605A609A60DA6092
:105430001A614FF40070FCF799FB0346002B01D072
:1054400000F018F910237B6101233B6300237B6389
:105450006023BB6300233B6407F114031846FBF78A
:10546000AFF90346002B01D000F004F90F233B6095
:1054700000237B600023BB600023FB6000233B61B3
:105480003B4600211846FBF7FDFD0346002B01D0EB
:1054900000F0F0F800BF5837BD4680BD80B500AFC2
:1054A000144B154A1A60134B4FF4E1325A60114BFA
:1054B00000229A600F4B0022DA600E4B00221A6124
:1054C0000C4B0C225A610B4B00229A61094B0022B3
:1054D000DA61084B00221A62064B00225A62054824
:1054E000FCF77CFC0346002B01D000F0C3F800BFA2
:1054F00080BD00BF901D00200044004080B588B0F2
:1055000000AF07F10C0300221A605A609A60DA605B
:105510001A61404BDB6C3F4A43F00403D3643D4BBC
:10552000DB6C03F00403BB60BB683A4BDB6C394AAD
:1055300043F00103D364374BDB6C03F001037B6062
:105540007B68344BDB6C334A43F00203D364314B4A
:10555000DB6C03F002033B603B68002201212E4814
:10556000FCF7DEFA0022C0212C48FCF7D9FA002211
:105570004FF400614FF09040FCF7D2FA0223FB6039
:1055800000233B6100237B6107F10C03194623488C
:10559000FCF754F90123FB6001233B6100237B618D
:1055A0000023BB6107F10C0319461B48FCF746F9C1
:1055B000C023FB6001233B6100237B610023BB61AF
:1055C00007F10C0319461548FCF738F94FF400634E
:1055D000FB6001233B6100237B610323BB6107F177
:1055E0000C0319464FF09040FCF728F9C023FB60EC
:1055F00002233B6100237B610323BB610723FB6123
:1056000007F10C0319460448FCF718F900BF2037CE
:10561000BD4680BD0010024000040048000800485C
:1056200080B582B000AF78600120FFF728FAFBE771
:1056300080B582B000AF78600120FFF720FAFBE769
:1056400080B582B000AF78600120FFF718FAFBE761
:1056500080B582B000AF78607B681B68044A9342D3
:1056600001D1FBF78DF800BF0837BD4680BD00BFF4
:105670000010004080B400AF72B600BF00BFFDE76D
:1056800080B400AF00BFFDE780B400AF00BFFDE70E
:1056900080B400AF00BFFDE780B400AF00BFFDE7FE
:1056A00080B400AF00BFFDE780B400AF00BFBD46CF
:1056B0005DF8047B7047000080B500AF0248FAF740
:1056C0008FFE00BF80BD00BF241E002080B582B0C9
:1056D00000AF114B1B6E104A43F0010313660E4BD3
:1056E0001B6E03F001037B607B680B4B9B6D0A4ACA
:1056F00043F080539365084B9B6D03F080533B60F0
:105700003B6800220F216FF00100FCF73DFB00BF5A
:105710000837BD4680BD00BF0010024080B596B07E
:1057200000AF786007F1440300221A605A609A6063
:10573000DA601A6107F1100334220021184600F0E4
:1057400065FA7B681B681F4A934236D102233B618E
:105750000023BB6107F110031846FBF7E9FE03467F
:10576000002B01D0FFF786FF174B9B6D164A43F4C1
:1057700000339365144B9B6D03F40033FB60FB68AF
:10578000114BDB6C104A43F00103D3640E4BDB6C0E
:1057900003F00103BB60BB680C237B640223BB6482
:1057A0000023FB6403233B6507237B6507F1440368
:1057B00019464FF09040FCF741F800BF5837BD46FE
:1057C00080BD00BF004400400010024080B58EB094
:1057D00000AF7860002387F83330344B9B6D334A39
:1057E00043F010039365314B9B6D03F01003FB6096
:1057F000FB6807F1100207F1140311461846FBF786
:1058000005FE3B6AFB62FB6A002B03D1FBF7D2FD6E
:10581000786304E0FBF7CEFD03465B007B637B6BA4
:10582000234AA2FB03239B0C013BBB62214B224A70
:105830001A60204B40F2E732DA601E4ABB6A5360BE
:105840001C4B00221A611B4B00229A60194B00224C
:105850009A611848FAF70EFD034687F8333097F837
:105860003330002B1BD11348FAF766FD034687F847
:10587000333097F83330002B11D13620FCF7A0FAE3
:105880007B680F2B08D8002279683620FCF77CFA59
:105890000A4A7B68136002E0012387F8333097F8E7
:1058A000333018463837BD4680BD00BF0010024077
:1058B00083DE1B43241E0020001000400400002053
:1058C000DFF834D0FAF7C4FC0C480D490D4A002328
:1058D00002E0D458C4500433C4188C42F9D30A4AA5
:1058E0000A4C002301E013600432A242FBD300F013
:1058F000F3F9FFF753FDFEE70080002000000020D1
:1059000060000020085F000860000020B01F002039
:10591000FEE700002DE9F047089D0F4604468C463F
:10592000002B48D18A42164661D9B2FA82F34BB1B4
:10593000C3F1200201FA03FC20FA02F29E4042EA7F
:105940000C0C9C404FEA164EB7B2BCFBFEF1220C89
:105950000EFB11CC42EA0C4201FB07F0904209D940
:10596000B21801F1FF3C80F0EE80904240F2EB80F3
:1059700002393244121AA4B2B2FBFEF00EFB10221E
:1059800044EA024400FB07F7A74209D9341900F1A1
:10599000FF3280F0DA80A74240F2D78034440238E8
:1059A00040EA0140E41B00211DB1DC400023C5E9B1
:1059B0000043BDE8F0878B4206D90DB1C5E900016F
:1059C00000210846BDE8F087B3FA83F1002948D1E9
:1059D000BB4202D3824200F20781841A67EB0302C2
:1059E00001209446002DE4D0C5E9004CE1E7002AEF
:1059F00000F09280B2FA82F3002B40F0A8808A1A5D
:105A00004FEA164E1FFA86FC0121200CB2FBFEF76E
:105A10000EFB172240EA02420CFB07F0904207D926
:105A2000B21807F1FF3802D2904200F2E2804746F6
:105A3000121AA4B2B2FBFEF00EFB102244EA02449A
:105A40000CFB00FCA44507D9341900F1FF3202D247
:105A5000A44500F2CB801046A4EB0C0440EA0740BA
:105A6000A2E7C1F120068B4022FA06FC4CEA030CA7
:105A700007FA01F420FA06F3F7404FEA1C492343E2
:105A800000FA01F81FFA8CFEB7FBF9F01C0C09FBB9
:105A9000107744EA074400FB0EF7A74202FA01F22E
:105AA0000AD91CEB040400F1FF3A80F09B80A74266
:105AB00040F2988002386444E41B9FB2B4FBF9F3CF
:105AC00009FB134447EA044403FB0EFEA64509D92B
:105AD0001CEB040403F1FF3780F08280A6457FD9D8
