:020000040800F2
:10000000008000200543000891410008934100084A
:100010009541000897410008994100080000000040
:10002000000000000000000000000000713C00081B
:100030009B41000800000000013D0008093600084F
:100040005543000855430008554300085543000830
:100050005543000855430008554300085543000820
:100060005543000855430008554300085543000810
:100070005543000855430008554300085543000800
:100080005543000855430008554300080000000090
:1000900000000000000000000000000055430008C0
:1000A00055430008554300085543000855430008D0
:1000B0005543000800000000000000005543000800
:1000C00055430008554300085543000855430008B0
:1000D0005543000855430008693F00085543000890
:1000E00055430008554300080000000000000000D0
:1000F0000000000000000000000000000000000000
:1001000000000000000000000000000000000000EF
:1001100000000000000000009D41000800000000F9
:10012000554300085543000855430008554300084F
:10013000554300080000000000000000000000001F
:10014000554300085543000855430008554300082F
:10015000554300085543000855430008554300081F
:10016000554300085543000800000000000000004F
:1001700000000000554300080000000000000000DF
:10018000554300085543000855430008000000008F
:1001900053B94AB9002908BF00281CBF4FF0FF31EE
:1001A0004FF0FF3000F00CB8ADF1080C6DE904CE53
:1001B00004F0D2F8DDF804E0DDE9022304B0704772
:1001C000704700BF0348044B834202D0034B03B186
:1001D0001847704760000020600000200000000009
:1001E0000548064B1B1AD90F01EBA301491002D099
:1001F000034B03B1184770476000002060000020E7
:100200000000000010B5064C237843B9FFF7DAFF71
:10021000044B13B10448AFF300800123237010BDD9
:1002200060000020000000003048000808B5054BC1
:100230001BB105490548AFF30080BDE80840FFF752
:10024000CFBF00BF0000000064000020304800085D
:10025000034AD2F8883043F47003C2F888307047FC
:1002600000ED00E07047000090F83D30012B1FD1F9
:10027000022380F83D300368DA6842F00102DA6058
:100280000C4A934206D0B3F1804F03D002F5A0523E
:10029000934207D19968084A0A40062A06D0B2F567
:1002A000803F03D01A6842F001021A6000207047B4
:1002B00001207047002C0140070001007047704783
:1002C000704770477047036870B5DD681E69B207F4
:1002D00004460DD5A9070BD56FF002021A61012261
:1002E00002779B699A0775D0FFF7EAFF002323770F
:1002F000730710D568070ED523686FF004021A61E2
:10030000022222779B6913F4407F204668D0FFF7D2
:10031000D7FF0023237731070FD52A070DD5236890
:100320006FF008021A6104222277DB699B072046DE
:100330005CD0FFF7C5FF00232377F10610D5EA064E
:100340000ED523686FF010021A6108222277DB694C
:1003500013F4407F20464FD0FFF7B2FF00232377EE
:10036000F30708D5E80706D523686FF001021A6184
:100370002046FFF7A3FF16F4025F08D0290606D532
:1003800023686FF402521A61204600F0A8F8F205C3
:1003900008D52B0606D523686FF480721A612046B3
:1003A00000F09EF8700608D5690606D523686FF040
:1003B00040021A612046FFF785FFB20622D5AB0640
:1003C00020D523686FF0200220461A61BDE87040F6
:1003D00000F084B8FFF773FF2046FFF772FF85E750
:1003E000FFF76DFF2046FFF76CFF92E7FFF767FF0F
:1003F0002046FFF766FF9EE7FFF761FF2046FFF705
:1004000060FFABE770BD00001A4A036890420BD052
:10041000B0F1804F08D002F5A052904209D1CA68CD
:1004200023F44073134307E04A6823F07003134337
:10043000F5E7114A9042F2D04A6923F08003134352
:100440008A68C2620A6882620A4A904207D002F54C
:10045000A052904203D002F58062904201D10A6915
:100460000263026842F004020260012242610360FA
:10047000704700BF002C01400044014010B5044605
:1004800050B390F83D3003F0FF021BB980F83C20D8
:10049000FFF7E8FE0223206884F83D30211DFFF7B6
:1004A000B3FF012384F84830002084F83E3084F8FC
:1004B0003F3084F8403084F8413084F8423084F88A
:1004C000433084F8443084F8453084F8463084F86A
:1004D000473084F83D3010BD0120FCE7704770477D
:1004E000704710B5032000F07DFE0F2003F0BCFE26
:1004F000044618B903F058FE204610BD0124FBE75E
:10050000014B1868704700BF7C00002038B50446D6
:10051000FFF7F6FF631C1CBF054B1B78054618BF91
:10052000E418FFF7EDFF431BA342FAD338BD00BF29
:100530000400002037B51E4DAB6DDA00044618D517
:1005400000F048FEB0F5007F23D1802C29D9A02CE3
:100550008CBF0224012417490A6822F007022243B3
:100560000A60086800F00700001B18BF012003B0F4
:1005700030BDAB6D43F08053AB65AB6D03F0805382
:100580000193019B00F026FEAB6D23F08053AB6519
:10059000D8E7802C07D808D0A4F170035C425C41F6
:1005A000D9E70024D7E70324D5E70224D3E700BF27
:1005B0000010024000200240204B9A68D96812F0D7
:1005C0000C0205D00C2A2CD101F0030101292FD1F6
:1005D00019681B48090755BFD3F894101968C1F36F
:1005E0000321C1F3031150F8210032B3DA6802F09D
:1005F0000302022A1ED01349032A08BF0846D968FD
:10060000DA68C2F306224243D868C0F34160C1F3FE
:100610000211013001314000B2FBF1F2B2FBF0F007
:100620007047042A08D0082A064818BF00207047DF
:100630000020DBE70448E2E703487047001002406F
:100640004848000800127A000024F4002DE9F7431E
:10065000054618B9012003B0BDE8F083944C036847
:10066000A668E768DB0606F00C0607F003073DD531
:100670001EB10C2E6AD1012F68D12368980702D5CC
:10068000EB69002BE6D02368686A190756BFD4F8D7
:10069000943023681B0903F0F00398423FD9FFF719
:1006A00049FF0028D6D1236843F00803236023685C
:1006B0006A6A23F0F0031343236063682A6A23F411
:1006C0007F4343EA02236360FFF776FFA368794A1A
:1006D000C3F30313D35C03F01F03D840764B1860B9
:1006E000764B186803F0C0FD0028B4D12B68D807FA
:1006F00063D42B68990700F1A2802B68180700F1DA
:10070000DF802B68590700F12F812B68990600F1D3
:10071000AB81EB6A002B40F0D18100209BE723687E
:1007200043F008032360236823F0F00303432360AE
:1007300063682A6A23F47F4343EA02236360002E3E
:10074000C2D1FFF7F7FE0028BED083E7EB691BB3E9
:10075000236843F001032360FFF7D2FE804623683D
:100760009A0711D5236843F00803236023686A6A57
:1007700023F0F0031343236063682A6A23F47F4362
:1007800043EA02236360B1E7FFF7BAFEA0EB08007B
:100790000228E4D903205EE7236823F001032360E5
:1007A000FFF7AEFE804623689B079FD5FFF7A8FEA4
:1007B000A0EB08000228F6D9ECE7082E03D00C2E97
:1007C00008D1032F06D123689A0392D56B68002BBA
:1007D0008FD13FE76B68B3F5803F10D1236843F4B6
:1007E00080332360FFF78CFE804623689B0380D410
:1007F000FFF786FEA0EB08006428F6D9CAE7B3F538
:10080000A02F04D1236843F480232360E6E7226805
:1008100022F480322260226822F480222260002B9F
:10082000E0D1FFF76DFE8046236898037FF561AF46
:10083000FFF766FEA0EB08006428F5D9AAE7042EAE
:1008400003D00C2E10D1022F0ED12368590503D5E9
:10085000EB68002B3FF4FEAE63682A6923F0FE4389
:1008600043EA0263636048E7EB687BB1236843F4C3
:1008700080732360FFF744FE074623685A05EBD4D4
:10088000FFF73EFEC01B0228F7D983E7236823F455
:1008900080732360FFF734FE074623685B057FF50E
:1008A0002CAFFFF72DFEC01B0228F6D972E700BF60
:1008B00000100240804800080000002008000020CE
:1008C0006B69002B3CD0D4F89430A96903F0100276
:1008D00091420ED003F00302022A3FF4BBAEDA07C6
:1008E0001BD4D4F89430AA6923F010031343C4F83E
:1008F0009430D4F8943043F00103C4F89430FFF7F7
:10090000FFFD0746D4F8943098073FF5FAAEFFF79D
:10091000F7FDC01B1128F5D93CE7D4F8943023F03B
:100920000103C4F89430FFF7EBFD0746D4F8943088
:100930009B07D6D5FFF7E4FDC01B1128F6D929E7A0
:10094000D4F8943023F00103C4F89430FFF7D8FDB5
:100950000746D4F8943099077FF5D3AEFFF7D0FD62
:10096000C01B1128F5D915E7A36DDA0030D4A36DAB
:1009700043F08053A365A36D03F080530193019B63
:100980000127DFF86C82D8F80030DB0522D5AA6891
:10099000D00733D4D4F8903023F00103C4F890305A
:1009A000D4F8903023F00403C4F89030002A3CD1EE
:1009B000FFF7A6FD41F288398046D4F890309807B9
:1009C0004BD4D4F8903023F08003C4F8903035E055
:1009D0000027D6E7D8F8003043F48073C8F8003019
:1009E000FFF78EFD8146D8F80030D905CFD4FFF748
:1009F00087FDA0EB09000228F5D9CBE6D4F89030AA
:100A000002F0800123F080030B43C4F89030D4F847
:100A10009030520742BF43F00403C4F89030D4F83A
:100A2000903043F00103C4F89030FFF769FD41F2C4
:100A300088398046D4F890309B0707D5002F3FF4C3
:100A400064AEA36D23F08053A3655EE6FFF758FD07
:100A5000A0EB08004845EDD99CE6FFF751FDA0EB5F
:100A600008004845A9D995E6AB6A9BB1D4F89830FF
:100A700043F00103C4F89830FFF742FD0746D4F86D
:100A800098309A073FF545AEFFF73AFDC01B0228A4
:100A9000F5D97FE6D4F8983023F00103C4F89830F4
:100AA000FFF72EFD0746D4F898309B077FF531AE4F
:100AB000FFF726FDC01B0228F5D96BE6022B7AD181
:100AC000E3682A6B03F0030191421CD1696B03F0C8
:100AD00070020139B2EB011F15D1A96B03F4FE427C
:100AE000B2EB012F0FD1EA6B520803F4C001013AB7
:100AF000B1EB425F07D12A6C520803F0C063013AA0
:100B0000B3EB426F3ED00C2E3FF4A4AD236823F02C
:100B100080732360FFF7F4FC064623689F012BD403
:100B2000E268324B13402A6B1343AA6B43EA022359
:100B30006A6B013A43EA0213EA6B5208013A43EA4C
:100B400042532A6C5208013A43EA4263E360236845
:100B500043F080732360E36843F08073E360FFF742
:100B6000CFFC0546236898013FF5D7ADFFF7C8FCD9
:100B7000401B0228F6D90DE6FFF7C2FC801B0228B5
:100B8000CBD907E6236899013FF5C7AD236843F049
:100B900080732360E36843F08073E360FFF7B0FC89
:100BA000054623689A013FF5B8ADFFF7A9FC401B45
:100BB0000228F6D9EEE50C2E3FF44CAD236823F065
:100BC00080732360FFF79CFC054623689B0106D4D5
:100BD000E36823F0887323F00303E3609DE5FFF7E8
:100BE0008FFC401B0228F0D9D4E500BF8C809FF910
:100BF000007000402DE9F0410D46044610B9012077
:100C0000BDE8F0814B4A136803F007038B422CD3F5
:100C10002168880734D4C9073FD421688A0768D47B
:100C2000444A136803F00703AB426FD811F0040F76
:100C3000414D77D10B0706D5AB68226923F4605389
:100C400043EAC203AB60FFF7B7FCAB683B4AC3F3B0
:100C50000313BDE8F041D35C03F01F03D840384BC9
:100C60001860384B186803F0FFBA136823F00703C5
:100C70000B431360136803F007038B42BFD1C7E730
:100C80002D4AA068936803F0F003984281BF9368EF
:100C900023F0F00303439360BDE76268264E032A06
:100CA00033681AD113F0007FA9D0B36823F003038F
:100CB0001343B360FFF724FC41F288380746B3685A
:100CC000626803F00C03B3EB820FA6D0FFF718FCA9
:100CD000C01B4045F3D9032092E7022A02D113F446
:100CE000003FE1E712B913F0020FDDE713F4806F64
:100CF000DAE7114AA068936803F0F00398423FBF17
:100D0000936823F0F0030343936089E7136823F0AB
:100D100007032B431360136803F00703AB427FF410
:100D20006EAF83E7AB68E26823F4E0631343AB6024
:100D300080E700BF00200240001002408048000809
:100D40000000002008000020054B064A9B68C3F302
:100D50000223D35C044A106803F01F03D840704795
:100D6000001002407848000800000020054B064AA9
:100D70009B68C3F3C223D35C044A106803F01F03CB
:100D8000D84070470010024078480008000000205A
:100D90000F2303600B4B9A6802F0030242609A68CB
:100DA00002F0F00282609A6802F4E062C2609B681E
:100DB000DB0803F4E0630361034B1B6803F00703E4
:100DC0000B60704700100240002002402DE9F34103
:100DD0000446006810F4003056D0744DAB6DD80056
:100DE00044D4AB6D43F08053AB65AB6D03F08053DF
:100DF0000193019B01266E4F3B6843F480733B6077
:100E0000FFF77EFB80463B68D90531D5D5F8903099
:100E100013F4407320D0226B9A421DD0D5F8902055
:100E2000D5F8903043F48033C5F89030D5F8903041
:100E300022F4407123F48033D207C5F89030C5F80E
:100E4000901009D5FFF75CFB41F288380746D5F8CA
:100E500090309B0740F1A380D5F89030226B23F4AB
:100E600040731343C5F89030002008E00026C2E725
:100E7000FFF746FBA0EB08000228C4D903201EB1EF
:100E8000AB6D23F08053AB652368DF0708D5474976
:100E90006568D1F8882022F003022A43C1F888202F
:100EA0009E0708D54149A568D1F8882022F00C0298
:100EB0002A43C1F888205D0708D53C49E568D1F888
:100EC000882022F030022A43C1F88820990608D5EC
:100ED00036492569D1F8882022F440622A43C1F8B6
:100EE00088209A0508D53149256AD1F8882022F44E
:100EF00040222A43C1F888205F0508D52B49656A3E
:100F0000D1F8882022F440122A43C1F888205E06D6
:100F100008D526496569D1F8882022F440522A4331
:100F2000C1F888201D0608D52049A569D1F8882078
:100F300022F440422A43C1F88820D90508D51B492C
:100F4000E569D1F8882022F440322A43C1F888208C
:100F50009A040FD51549A56AD1F8882022F040627D
:100F60002A43C1F88820B5F1006F02BFCA6842F475
:100F70008012CA605B030FD50C4AE16AD2F8883050
:100F800023F040630B43B1F1006FC2F8883003D106
:100F9000D36843F48013D36002B0BDE8F081FFF75B
:100FA000AFFAC01B40457FF652AF67E70010024022
:100FB000007000402DE9F74FDFF87091594C002385
:100FC0000A6832FA03F502D103B0BDE8F08F0125BB
:100FD00005FA03F818EA020200F09C804E68032725
:100FE00006F003054FEA430E07FA0EFC6F1E012FB1
:100FF0006FEA0C0C34D8876807EA0C0ACF6807FA46
:101000000EF747EA0A078760476827EA0808C6F329
:1010100000179F4047EA08074760C76807EA0C08BF
:101020008F6807FA0EF747EA0807022DC76019D143
:101030004FEAD30800EB880803F0070AD8F82070BD
:101040004FEA8A0A4FF00F0B0BFA0AFB27EA0B0B49
:101050000F6907FA0AF747EA0B07C8F8207001E0A2
:10106000032DDAD1076805FA0EF507EA0C073D43B0
:1010700016F4403F05604DD0D9F8605045F00105A9
:10108000C9F86050D9F8605023F0030707F1804792
:1010900005F0010507F58037019503F0030C019D6C
:1010A000BD684FEA8C0C4FF00F0E0EFA0CFEB0F13B
:1010B000904F25EA0E0E2FD01B4DA8422ED005F5DD
:1010C0008065A8422CD005F58065A84214BF07258D
:1010D000032505FA0CF545EA0E05BD60A568D74362
:1010E00016F4801F0CBF3D401543A560E56816F45B
:1010F000001F0CBF3D401543E560656816F4003FD6
:101100000CBF3D40154365602568F60354BF3D4064
:1011100015432560013353E70025DAE70125D8E7B9
:101120000225D6E7000401400004004800100240F8
:10113000436901EA030221EA030141EA02418161B4
:101140007047034640B190F82520022A06D00422B9
:10115000C263002280F824200120704702681168D1
:1011600021F001011160116821F00E011160D0E938
:101170001002012102F01C0201FA02F2426000207A
:1011800083F8251083F82400704710B590F82520C7
:10119000022A03D00422C263012010BD0268836BBF
:1011A000116821F001011160116821F00E01116038
:1011B000D0E91042012102F01C0201FA02F2626041
:1011C000002280F8251080F8242003B198470020E1
:1011D000E3E70000024B186800F4C060704700BFEE
:1011E000007000400749CA6822F4E062030212045A
:1011F00003F4E063120C134343F0BF6343F4003382
:10120000CB60704700ED00E0164B30B5DC68C4F3EE
:101210000224C4F10703251D042B28BF0423062D37
:101220004FF0FF358CBF033C002405FA03F321EA9D
:101230000303A54022EA0502A340002843EA020373
:10124000ACBF00F16040084A4FEA0313B8BF00F09A
:101250000F00DBB2AABF00F56140135480F80033E1
:1012600030BD00BF00ED00E014ED00E0002807DB1A
:10127000044A4109012300F01F00834042F8213055
:10128000704700BF00E100E0026852E8003F23F42D
:10129000907342E8003102680029F5D102F1080399
:1012A00053E8003F23F0010302F1080C4CE8003141
:1012B0000029F3D1036E012B07D152E8003F23F040
:1012C000100342E800310029F7D12023C0F8803014
:1012D0000023036683667047026852E8003F23F0EC
:1012E000800342E8003102680029F5D152E8003F4E
:1012F00043F0400342E800310029F7D17047C26F44
:10130000212A034611D1B0F8522092B20AB9FFF750
:10131000E3BFC26C016812F8010B8862DA64B3F8AB
:101320005220013A92B2A3F852207047C26F212A8C
:10133000034613D1B0F8522092B20AB9FFF7CCBFDE
:10134000DA6C006832F8021BC1F308018162DA64CA
:10135000B3F85220013A92B2A3F85220704700002D
:101360000346C06F202822D119B312B3A3F852202C
:10137000A3F850200022C3F884202122DA679A685B
:10138000D964B2F5805F10D118690B4A0B49002867
:1013900018BF0A46DA66196851E8002F42F0800249
:1013A00041E800200028F6D17047044AF2E7022005
:1013B00070470120704700BF2D130008FF1200087E
:1013C00008B5806A02F008FE08BD70470368DA6954
:1013D000196870B540F60F0632429D6804460BD17D
:1013E000960640F188808E0640F18580836E002B42
:1013F0007BD0BDE8704018479C4E05F001000E40C0
:10140000064378D0D60709D5CD0507D501251D623D
:10141000D4F8845045F00105C4F88450960708D5E7
:1014200038B102251D62D4F8845045F00405C4F893
:101430008450550708D538B104251D62D4F884506E
:1014400045F00205C4F8845016070BD501F02005BD
:10145000054307D008201862D4F8840040F0080043
:10146000C4F8840015050AD5480108D54FF400607A
:101470001862D4F8843043F02003C4F88430D4F8E0
:101480008430002B31D0930605D58E0603D5A36E8C
:101490000BB1204698472668D4F88420B36802F040
:1014A000280203F0400353EA020520461ED0FFF74E
:1014B000EBFEB3685D0615D5226802F1080353E818
:1014C000003F23F04003083242E800310029F3D105
:1014D000606F38B1664B8363FFF757FE28B1606FCA
:1014E000836B86E7204602F077FD70BD02F074FD45
:1014F000C4F88450F9E7206E012840F08B80D006B4
:1015000040F18880CE0640F1858010221A629A68E8
:10151000B4F8581050064FD5626F1068426892B206
:10152000002A41D091423FD9A4F85A20026892067D
:101530002ED453E8002F22F4807243E800210029C2
:10154000F7D103F1080252E8002F22F0010203F163
:10155000080040E800210029F3D103F1080252E815
:10156000002F22F0400203F1080040E8002100298A
:10157000F3D12022C4F88020216653E8002F22F006
:10158000100243E800210029F7D1606FFFF7D9FD71
:1015900002236366B4F85A30B4F85810C91A89B2F5
:1015A0002046FFF712FFA0E791429ED103689B06F9
:1015B0009BD502236366F3E7B4F85A20B4F85A00C7
:1015C00080B292B2002890D0891A89B200298CD0BA
:1015D00053E8002F22F4907243E800200028F7D14E
:1015E00003F1080252E8002F22F0010203F108057E
:1015F00045E800200028F3D12022C4F88020A0660E
:10160000206653E8002F22F0100243E80020002853
:10161000F7D1CEE7D60209D5680207D54FF480127C
:1016200020461A62BDE8704000F074BB160607D56C
:101630000D0605D5E36E002B3FF457AF2046D8E6E4
:1016400050067FF552AF4A067FF54FAF53E8002FA3
:1016500022F0400243E800210029F7D12023E3676C
:10166000E166204602F0AAFC3FE700BF200100042B
:10167000C1130008D0F88020222A08B5036857D18A
:101680005B6AB0F85C10426D0B401370436D013320
:101690004365B0F85A30013B9BB2A0F85A30B0F81D
:1016A0005A309BB2002B42D1026852E8003F23F42B
:1016B000907342E8003103680029F5D103F1080274
:1016C00052E8002F22F0010203F1080C4CE800213F
:1016D0000029F3D12022C0F88020184A8166934265
:1016E000416605D1026E012A0ED002F043FC1EE0D5
:1016F0005A681102F6D553E8002F22F0806243E8C1
:1017000000210029F7D1EDE70022026653E8002FFF
:1017100022F0100243E800210029F7D1DA69B0F87D
:101720005810D20644BF10221A62FFF74EFE08BDC1
:101730009A6942F008029A61F9E700BF0080004010
:10174000D0F88020222A08B5036854D1596AB0F82D
:101750005C201140426D22F8021B4265B0F85A200D
:10176000013A92B2A0F85A20B0F85A2092B2002A58
:1017700040D153E8002F22F4907243E80021002961
:10178000F7D103F1080252E8002F22F0010203F121
:10179000080C4CE800210029F3D12022C0F8802059
:1017A000174A81669342416605D1026E012A0ED026
:1017B00002F0E0FB1EE05A681102F6D553E8002F54
:1017C00022F0806243E800210029F7D1EDE70022F2
:1017D000026653E8002F22F0100243E8002100299E
:1017E000F7D1DA69B0F85810D20644BF10221A6255
:1017F000FFF7EBFD08BD9A6942F008029A61F9E72C
:101800000080004038B50446C0692169A268236899
:101810000A4361691D680A436549024329400A4336
:101820001A605A68E16822F440520A435A60614AD9
:10183000A16993421CBF226A11439A6822F4306264
:101840000A439A605C4A934213D15C4BD3F88830C8
:1018500003F00303022B00F0A580032B00F09C8013
:10186000012B00F09380B0F5004F61D0FFF77EFAB6
:1018700079E0534A934214D1504BD3F8883003F0A7
:101880000C03082B00F08E8007D8002B7ED1B0F51A
:10189000004F66D1FFF758FA4CE00C2B7CD00120AA
:1018A00026E0484A934209D1444BD3F8883003F0EC
:1018B0003003202B76D0E8D9302BEFE73D4A934216
:1018C000EDD13E4BD3F8883003F44063B3F5006F9D
:1018D00012D003D843B9FFF737FA07E0B3F5406FEA
:1018E000DDD14FF4004008E0FEF766FE28B9002085
:1018F0000023C4E91A3338BD3348626802EB42035F
:101900008342CCD8B0EB023FC9D8510800238C46A3
:101910004FF480751946E0FB05C16046FEF738FCC0
:101920002A4BA0F540729A42B9D82368D860DEE706
:10193000FFF71CFA0028DAD06268530803EB400373
:10194000B3FBF2F34FF6EF72A3F110019142A6D868
:1019500023F00F02216892B2C3F342031343CB601A
:10196000C5E7FFF7F1F90028C1D0626800EB520328
:10197000B3FBF2F34FF6EF72A3F1100191428ED850
:101980002268D360B3E7FEF717FEECE7B0F5004F2F
:10199000F9D1FEF711FECDE7B0F5004FCCD04FF4F2
:1019A0000040E2E7B0F5004F0748DED1C4E700BFD2
:1019B000F369FFEF00800040003801400010024052
:1019C00000440040004800400024F400FFFC0F00E9
:1019D000436A1A0710B506D50168446B4A6822F4B9
:1019E000004222434A60DC0706D50168846A4A68DF
:1019F00022F4003222434A60990706D50168C46A7E
:101A00004A6822F4803222434A605A0706D50168A8
:101A1000046B4A6822F4802222434A60DC0606D521
:101A20000168846B8A6822F4805222438A60990696
:101A300006D50168C46B8A6822F4005222438A608A
:101A40005A060FD50168046C4A6822F480122243BA
:101A5000B4F5801F4A6005D14A68446C22F4C00284
:101A600022434A601B0606D50268816C536823F442
:101A700000230B43536010BD2DE9F843DDF820909F
:101A800004460D46174698462268D36935EA030393
:101A90000CBF01230023BB4201D0002022E0B9F19A
:101AA000FF3FF2D0FEF72CFDA0EB0800484529D8F7
:101AB000B9F1000F26D021680B685A07E4D5802DB4
:101AC000E2D0402DE0D0CE6916F008060CD00825F3
:101AD00020460D62FFF7D8FB0023C4F8845084F839
:101AE00078300120BDE8F883CB691B05CCD54FF4D5
:101AF00000630B622046FFF7C7FB2023C4F8843045
:101B000084F878600320EDE773B504460026C0F83A
:101B10008460FEF7F5FC23681B681A0705461BD591
:101B20006FF07E430093324603464FF40011204687
:101B3000FFF7A2FF80B1226852E8003F23F0800344
:101B400042E800310029F6D12023E3670320002377
:101B500084F8783002B070BD23681B685B0724D519
:101B60006FF07E43009300222B464FF48001204605
:101B7000FFF782FFC8B1226852E8003F23F4907358
:101B800042E8003122680029F5D102F1080353E848
:101B9000003F23F0010302F1080040E80031002972
:101BA000F3D12023C4F88030D0E720230020E3675E
:101BB000C4F8803020666066C9E710B5044640B3BB
:101BC000C36F1BB980F8783002F00CFB2268242325
:101BD000E367136823F001031360636A13B12046BF
:101BE000FFF7F6FE2046FFF70DFE012811D023680F
:101BF0005A6822F490425A609A6822F02A029A6047
:101C00001A6842F0010220461A60BDE81040FFF752
:101C10007BBF012010BD0000A0F85820A0F85A207A
:101C2000826841650023B2F5805F83662CD1036929
:101C3000002B40F2FF1318BFFF23A0F85C300023F5
:101C4000C0F884302223C0F88030026802F1080313
:101C500053E8003F43F00103083242E800310268D4
:101C60000029F2D181680369B1F5805F27D1DBB12A
:101C7000154B836652E8003F43F4907342E800310D
:101C80000029F7D1002070472AB90369002B0CBF47
:101C9000FF237F23D1E7B2F1805FCED10369002B10
:101CA0000CBF7F233F23C8E7084B836652E8003F01
:101CB00043F0200342E800310029F7D1E2E702496E
:101CC0008166002BF2D0D5E7751600084117000891
:101CD00038B5D0F88030202B16D1B9B1B2B100237D
:101CE000046803660A4B9C420AD063681B0207D54E
:101CF00054E8003F43F0806344E80035002DF7D1FD
:101D0000FFF78AFF002038BD0220FCE70120FAE738
:101D100000800040704700F108034FF0FF32C0E937
:101D200002234360036100230360704700230361C3
:101D3000704743684B609A688A6051609960036895
:101D4000086101330360704730B50C68631C0AD129
:101D500003695A684A6091608B6059600368086142
:101D60000133036030BD00F1080213465268156864
:101D7000A542FAD9EDE7D0E9011203698A60516002
:101D80005968814208BF5A60002202611A68013A0C
:101D90001A601868704710B5044601F07BFFA46B09
:101DA00001F098FFB4FA84F0400910BD70B51646F2
:101DB000026C856B044642B906689EB9806801F0E2
:101DC000A5F9A6600135A56370BD6EB9406802F043
:101DD000CBFC6368226C1344A2686360934224BF07
:101DE000236863600020EDE7C06802F0BDFC226C50
:101DF000E36851429B1A2268E36093423EBFA368A6
:101E00005B18E360022EEDD10DB1013DEAE72846F3
:101E1000D8E7034610B41A6C084662B1DC68A11812
:101E20009C68D960A14228BF19685DF8044B28BF9F
:101E3000D96002F099BC5DF8044B704770B5044658
:101E400001F028FF94F8455004F124066DB2002DEE
:101E500001DD636AB3B9FF2384F8453001F03AFF2E
:101E600001F018FF94F8445004F110066DB2002DF3
:101E700001DD23697BB9FF2384F84430BDE870405D
:101E800001F028BF304601F065F808B101F0EAF82A
:101E9000013D6DB2DBE7304601F05CF808B101F0BE
:101EA000E1F8013D6DB2E2E738B50D46044640B9B0
:101EB0004FF0500383F31188BFF36F8FBFF34F8F41
:101EC000FEE701F0E7FED4E90F31226862604B4380
:101ED000D0185B1A1A44A060FF230020A063E260C0
:101EE00084F8443084F84530A5B9236973B104F10E
:101EF000100001F02FF848B14FF0E0234FF080526E
:101F0000C3F8042DBFF34F8FBFF36F8F01F0E2FED4
:101F1000012038BD04F11000FFF7FDFE04F124009C
:101F2000FFF7F9FEF2E737B50D461C4640B94FF012
:101F3000500383F31188BFF36F8FBFF34F8FFEE71A
:101F400043B94FF0500383F31188BFF36F8FBFF392
:101F50004F8FFEE74AB191B94FF0500383F31188D8
:101F6000BFF36F8FBFF34F8FFEE741B14FF05003C8
:101F700083F31188BFF36F8FBFF34F8FFEE75023BA
:101F80000193019B502B08D04FF0500383F311882D
:101F9000BFF36F8FBFF34F8FFEE70121002D08BF06
:101FA0002246C4E90F0584F8461022602046019BB2
:101FB000FFF77AFF9DF8183084F84C30204603B0C4
:101FC00030BDF8B50D461746064640B94FF05003F0
:101FD00083F31188BFF36F8FBFF34F8FFEE7484342
:101FE000503001F015FD044670B1002380F84630F2
:101FF00065B100F15003C4E90F652360012120465B
:10200000FFF752FF84F84C702046F8BD0346F2E714
:1020100013B513460C4640B94FF0500383F31188B3
:10202000BFF36F8FBFF34F8FFEE7884208D24FF0A8
:10203000500383F31188BFF36F8FBFF34F8FFEE719
:102040000222009200221146FFF76DFF846302B066
:1020500010BD10B50C4640B94FF0500383F3118802
:10206000BFF36F8FBFF34F8FFEE7884208D24FF068
:10207000500383F31188BFF36F8FBFF34F8FFEE7D9
:1020800002220021FFF79DFF00B1846310BD2DE9FE
:10209000FF410F4601921E46044640B94FF05003DF
:1020A00083F31188BFF36F8FBFF34F8FFEE751B9F2
:1020B000036C43B14FF0500383F31188BFF36F8F6C
:1020C000BFF34F8FFEE7022E0BD1E36B012B08D03D
:1020D0004FF0500383F31188BFF36F8FBFF34F8F1F
:1020E000FEE700F0C5FF054650B9019B4BB14FF02C
:1020F000500383F31188BFF36F8FBFF34F8FFEE759
:1021000000254FF0000839E0022E3DD0019B1BB99D
:1021100001F0E0FD002050E015B902A800F05AFFE0
:1021200001F0D8FD00F064FD01F0B4FD94F84430F6
:10213000FF2B08BF84F8448094F84530FF2B08BF7C
:1021400084F8458001F0C6FD01A902A800F04EFF09
:10215000002848D101F09EFDA26BE36B9A422FD17B
:1021600001F0B8FD019904F1100000F0BBFE20461B
:10217000FFF764FE00F0E0FD50B3012501F08AFD99
:10218000A26BE36B9A42BFD2324639462046FFF734
:102190000DFE636A1BB104F1240000F0DBFE48B1C0
:1021A0004FF0E0234FF08052C3F8042DBFF34F8F60
:1021B000BFF36F8F01F08EFD012004B0BDE8F08108
:1021C00001F088FD2046FFF739FE00F0B5FDD4E7A9
:1021D0004FF0E0234FF08052C3F8042DBFF34F8F30
:1021E000BFF36F8FC9E72046FFF728FE00F0A4FD7C
:1021F00090E72DE9F843894617461E46044640B944
:102200004FF0500383F31188BFF36F8FBFF34F8FED
:10221000FEE751B9036C43B14FF0500383F31188CB
:10222000BFF36F8FBFF34F8FFEE7022E0BD1E36B2F
:10223000012B08D04FF0500383F31188BFF36F8F49
:10224000BFF34F8FFEE701F039FEEFF311884FF037
:10225000500383F31188BFF36F8FBFF34F8FA26BCF
:10226000E36B9A4201D3022E1ED194F84550A36B22
:102270006DB2324649462046FFF798FD6B1C0ED1E1
:10228000636A3BB104F1240000F064FE10B10FB1A9
:1022900001233B60012088F31188BDE8F8830135F4
:1022A0006DB284F84550F5E70020F4E770B50D46AF
:1022B000044640B94FF0500383F31188BFF36F8F8A
:1022C000BFF34F8FFEE7036C43B14FF0500383F32E
:1022D0001188BFF36F8FBFF34F8FFEE7036853B9C9
:1022E000836843B14FF0500383F31188BFF36F8FBE
:1022F000BFF34F8FFEE701F0E1FDEFF311864FF0E2
:10230000500383F31188BFF36F8FBFF34F8FA26B1E
:10231000E36B934219D994F845100132FF294BB26F
:10232000A2630DD1636A3BB104F1240000F012FEF8
:1023300010B10DB101232B60012086F3118870BD0F
:1023400001335BB284F84530F6E70020F5E72DE96C
:10235000FF410E460192044640B94FF0500383F30B
:102360001188BFF36F8FBFF34F8FFEE751B9036C36
:1023700043B14FF0500383F31188BFF36F8FBFF366
:102380004F8FFEE700F074FE054650B9019B4BB13C
:102390004FF0500383F31188BFF36F8FBFF34F8F5C
:1023A000FEE700254FF000083DE0019B1BB901F05E
:1023B00091FC002056E015B902A800F00BFE01F0D8
:1023C00089FC00F015FC01F065FC94F84430FF2B0B
:1023D00008BF84F8448094F84530FF2B08BF84F888
:1023E000458001F077FC01A902A800F0FFFD00285C
:1023F00041D12046FFF7CFFCB8B3019904F1240086
:1024000000F070FD2046FFF719FD00F095FC48B97B
:102410004FF0E0234FF08052C3F8042DBFF34F8FED
:10242000BFF36F8F012501F035FCA76B002FBCD0E7
:1024300031462046013FFFF7ECFCA763236973B1E7
:1024400004F1100000F086FD48B14FF0E0234FF09A
:102450008052C3F8042DBFF34F8FBFF36F8F01F08D
:1024600039FC012004B0BDE8F0812046FFF7E6FC0E
:1024700000F062FCD6E72046FFF7E0FC00F05CFCD1
:102480002046FFF788FC0028CCD092E7F0B585B055
:102490000446019140B94FF0500383F31188BFF314
:1024A0006F8FBFF34F8FFEE7056C45B14FF05003C0
:1024B00083F31188BFF36F8FBFF34F8FFEE700F0F8
:1024C000D7FD064650B9019B5BB14FF0500383F333
:1024D0001188BFF36F8FBFF34F8FFEE72E460027A3
:1024E00052E00546FBE7019B5BB9002D00F08A80B6
:1024F0004FF0500383F31188BFF36F8FBFF34F8FFB
:10250000FEE716B902A800F065FD01F0E3FB00F05C
:102510006FFB01F0BFFB94F84430FF2B08BF84F839
:10252000447094F84530FF2B08BF84F8457001F0E3
:10253000D1FB01A902A800F059FD00284CD120468A
:10254000FFF729FC002841D023683BB901F0A2FB2A
:10255000A06800F09DFD054601F0BCFB019904F167
:10256000240000F0BFFC2046FFF768FC00F0E4FB0D
:1025700048B94FF0E0234FF08052C3F8042DBFF369
:102580004F8FBFF36F8F012601F084FBA36B002BED
:10259000A9D0013BA363236813B900F047FEA060F4
:1025A000236973B104F1100000F0D4FC48B14FF07E
:1025B000E0234FF08052C3F8042DBFF34F8FBFF3D9
:1025C0006F8F01F087FB012005B0F0BD2046FFF7BB
:1025D00035FC00F0B1FBD6E72046FFF72FFC00F0FA
:1025E000ABFB2046FFF7D7FB0028CCD065B101F04C
:1025F00051FB616A19B1236B1968C1F13801A068F8
:1026000000F0C6FD01F066FB0020DDE72DE9F84390
:1026100089469046044640B94FF0500383F3118831
:10262000BFF36F8FBFF34F8FFEE751B9036C43B118
:102630004FF0500383F31188BFF36F8FBFF34F8FB9
:10264000FEE701F03BFCEFF311874FF0500383F3FB
:102650001188BFF36F8FBFF34F8FA56B0DB394F845
:102660004460494676B22046FFF7D3FB013D731C18
:10267000A56311D1236953B104F1100000F06AFC85
:1026800028B1B8F1000F02D00123C8F800300120B2
:1026900087F31188BDE8F883013676B284F8446088
:1026A000F5E72846F4E7000030B5074A002352F862
:1026B000335002EBC3041DB942F83310606030BDE3
:1026C0000133082BF3D1FAE78000002010B5094A46
:1026D000002352F8331081424FEAC30406D1064A60
:1026E000002142F833102244516010BD0133082B01
:1026F000EFD1FAE7840000208000002010B540B937
:102700004FF0500383F31188BFF36F8FBFF34F8FE8
:10271000FEE7FFF7DBFF90F846301BB9BDE810403D
:1027200001F00EBA10BD70B504460D46164601F014
:10273000B1FA94F84430FF2B04BF002384F84430EE
:1027400094F84530FF2B04BF002384F8453001F096
:10275000C1FAA36B2BB93246294604F1240000F0DC
:10276000DBFB2046BDE87040FFF768BB2DE9F04178
:10277000044601F08FFA304B304E1A68304F013268
:102780001A603568002D4BD134601B68012B1FD1B6
:10279000B84640460135FFF7BEFA382D08F1140857
:1027A000F7D1DFF8C480274D4046FFF7B4FA28463A
:1027B000FFF7B1FA2448FFF7AEFA2448FFF7ABFA67
:1027C0002348FFF7A8FA234BC3F80080224B1D6073
:1027D000224A136801331360214A63641168E36A73
:1027E00014208B4200FB037004F1040188BF1360C6
:1027F000FFF79FFA01F06EFA1A4B1B6873B133684A
:10280000DA6AE36A9A4209D24FF0E0234FF080522D
:10281000C3F8042DBFF34F8FBFF36F8FBDE8F08176
:10282000104B1B68002BD3D13368DA6AE36A9A42F3
:1028300098BF3460CCE700BFE4000020B80500205A
:102840005801002030010020140100200001002068
:10285000E80000202C01002028010020C8000020F2
:10286000DC000020D800002044010020F8B5154B02
:10287000154D1C680646286804300F46FFF77BFAA2
:10288000731C07D137B129681048BDE8F8400431FE
:10289000FFF74FBA2B68A4195C6007D30C4B18687C
:1028A0002968BDE8F8400431FFF74EBA094B1868B3
:1028B00029680431FFF748FA074B1A68A24288BF1B
:1028C0001C60F8BDE0000020B8050020E8000020F2
:1028D000280100202C010020C4000020064A1368B3
:1028E0001968064B19B94FF0FF321A607047126829
:1028F000D268D2685268F8E72C010020C40000209A
:1029000010B50446583001F0ABFE94F85D323BB987
:10291000206B01F015F92046BDE8104001F010B918
:10292000012BF8D0022B08D04FF0500383F311880D
:10293000BFF36F8FBFF34F8FFEE710BD80B5134C11
:10294000134F144D236873B9134B1B68012BF8D92F
:102950004FF0E0234FF08052C3F8042DBFF34F8FA8
:10296000BFF36F8FEDE701F095F9FB68DE68301D6E
:10297000FFF701FA2B68013B2B602368013B2360C2
:1029800001F0A8F93046FFF7BBFFDBE7FC000020B1
:1029900000010020E4000020580100202DE9F0474C
:1029A000DDE909949600324607460D46206BA521C5
:1029B000984601F04DFE236B043E1E4426F00706A8
:1029C000002D50D06B1E04F133020F3513F8011F98
:1029D00002F8011F09B1AB42F8D1002384F843305B
:1029E000089D372D28BF37254FF0000AE562E564C2
:1029F000201DC4F850A0FFF799F9C5F1380504F17E
:102A00001800FFF793F9C4F858A24FF4007251462A
:102A10002461A561646284F85CA204F1580001F0AD
:102A200017FE124BE36503F16802D033226663663A
:102A300001220023C4E93C230D4A0E4BC4E93E2386
:102A40000D4BC4F800310B23A4F80431424639463B
:102A5000304601F0F1F82060B9F1000F01D0C9F85B
:102A60000040BDE8F08784F83450B9E7741E0020B8
:102A70000E33CDAB34126DE6ECDE050070B586B0DA
:102A8000DDE90B5445B94FF0500383F31188BFF3D0
:102A90006F8FBFF34F8FFEE744B94FF0500383F3BE
:102AA0001188BFF36F8FBFF34F8FFEE74FF4187697
:102AB0000596059EB6F5187F08D04FF0500383F3B6
:102AC0001188BFF36F8FBFF34F8FFEE72563022599
:102AD00084F85D5204AD01950A9D02940095059E0F
:102AE000FFF75CFF2046FFF741FE049806B070BD7B
:102AF0002DE9F043074685B0900088461646994672
:102B000000F086FF054620B94FF0FF3005B0BDE864
:102B1000F0834FF4187000F07BFF044698B1002357
:102B200080F85D320D9B056301930C9B029000932E
:102B300032464B4641463846FFF730FF2046FFF706
:102B400015FE0120E2E7284600F0FAFFDCE700006E
:102B500010B588B0002407AA06A905A8CDE9054448
:102B600000F018FF059B0293069B079A19491A4823
:102B7000CDE900432346FFF781FF40B300F0B4FBEB
:102B8000012819D14FF0500383F31188BFF36F8FE1
:102B9000BFF34F8F114B124A1B6858331360114B10
:102BA0004FF0FF321A60104B1860104B1C6008B0D9
:102BB000BDE8104001F0FEB8013008D14FF05003DD
:102BC00083F31188BFF36F8FBFF34F8FFEE708B019
:102BD00010BD00BF904800083D290008B80500203E
:102BE00010000020C4000020D8000020E0000020D9
:102BF000024A136801331360704700BFC000002011
:102C0000014B1868704700BFE00000203F4B1B6875
:102C10002DE9F74F002B73D13D4B1C6801341C602C
:102C2000BCB93C4B1A68126842B14FF0500383F3B1
:102C30001188BFF36F8FBFF34F8FFEE7364A1968D5
:102C4000106818601160354A136801331360FFF78C
:102C500045FE334E334F3368DFF8D4809C424FF04B
:102C600000050AD3DFF8ACA0DFF8C8B0DAF800300E
:102C70001B68A3B94FF0FF333360D8F80030DB6A2C
:102C800014225343F858284B1B68012898BF002B87
:102C900014BF01200020284303B0BDE8F08FDAF80C
:102CA0000030DB68D3F80C90D9F80420944201D2AC
:102CB0003260E2E709F1040318460193FFF75BF87D
:102CC000D9F828201AB109F11800FFF754F8D9F8FB
:102CD0002C00DBF800201423904288BFCBF80000C2
:102CE00009F1040103FB0070FFF723F8D8F8001086
:102CF000D9F82C20CB6A9A4228BF45F00105B5E7E8
:102D00000A4A1368013313600020C5E7C0000020A1
:102D1000E00000202C01002028010020CC00002031
:102D2000C400002058010020D0000020D400002062
:102D3000B8050020DC0000202DE9F041304C23686C
:102D400043B94FF0500383F31188BFF36F8FBFF384
:102D50004F8FFEE700F09EFF2368013B236024684D
:102D60002CB1002400F0B6FF2046BDE8F081254BD1
:102D70001B68002BF5D0244D244EDFF8A0801DE009
:102D8000EB68DC68271D04F11800FEF7F4FF3846F5
:102D9000FEF7F1FFE36A32681420934200FB0380E0
:102DA000394688BF3360FEF7C4FF194BE26A1B68DF
:102DB000DB6A9A4202D3174B01221A602B68002B60
:102DC000DED10CB1FFF78AFD134D2C6844B1114ED2
:102DD0000127FFF71BFF00B13760013CF9D12C60E0
:102DE0000C4B1B68002BBCD04FF0E0234FF08052FF
:102DF000C3F8042DBFF34F8FBFF36F8F0124B1E7EA
:102E0000C0000020E400002014010020DC000020AD
:102E1000B8050020D0000020D40000205801002078
:102E200008B550B94FF0E0234FF08052C3F8042D9D
:102E3000BFF34F8FBFF36F8F08BD0A4B196841B1C5
:102E40004FF0500383F31188BFF36F8FBFF34F8FA1
:102E5000FEE7FFF7CDFEFFF709FDFFF76DFF002846
:102E6000E0D0E9E7C0000020184B1A68184B70B595
:102E700012B101221A6070BD164D1A602968164CF5
:102E8000142606FB01F3E018E25892B142680833B9
:102E90005268426023449A4208BF52680F4B08BFF1
:102EA0004260D2681A6029601B680D4A583313606B
:102EB000E1E741B94FF0500383F31188BFF36F8FFF
:102EC000BFF34F8FFEE70139DBE700BFC0000020F2
:102ED000D0000020DC00002058010020B8050020B0
:102EE0001000002010B50C4640B94FF0500383F39A
:102EF0001188BFF36F8FBFF34F8FFEE7054B196843
:102F00001831FEF721FF20460121BDE81040FFF7F0
:102F1000ADBC00BFB805002038B50D46144640B919
:102F20004FF0500383F31188BFF36F8FBFF34F8FC0
:102F3000FEE7074B19681831FEF7FBFE002C21460F
:102F40000CBF28464FF0FF30BDE83840FFF78EBC7D
:102F5000B805002038B5C368DC6844B94FF05003A9
:102F600083F31188BFF36F8FBFF34F8FFEE704F138
:102F700018052846FEF7FFFE104B1B68DBB9251D20
:102F80002846FEF7F8FE0E4AE36A11688B4288BFB6
:102F900013600C4A1420294600FB0320FEF7C9FEEB
:102FA000094BE26A1B68DB6A9A4283BF074B012028
:102FB0001860002038BD06482946EFE7C000002011
:102FC000DC00002058010020B8050020D0000020BF
:102FD00014010020034B1B680360034B1B68436014
:102FE000704700BFCC000020E000002070B50C4608
:102FF000054640B94FF0500383F31188BFF36F8F3C
:10300000BFF34F8FFEE741B94FF0500383F31188B0
:10301000BFF36F8FBFF34F8FFEE700F03BFE0F4B08
:10302000196823685A1C10D00D482E6800686A6819
:10303000864201D08A420FD9881A83420AD95B1A84
:10304000134423602846FFF7C5FF002400F042FE2A
:10305000204670BD002323600124F7E7E000002034
:10306000CC000020014B01221A607047D0000020E4
:10307000054B1B6833B1054B1868B0FA80F0400966
:103080004000704701207047D8000020C000002099
:10309000F8B5044638B31A4DC36A2A68D26A934217
:1030A00026D28269174E002AA1BF2A68D26AC2F1CD
:1030B00038028261142202FB036342699A4213D1EF
:1030C000071D3846FEF757FE2B680F4ADB6A11686A
:1030D000E36214208B4200FB0360394688BF136013
:1030E000FEF727FE0120F8BD2B68DB6AC362F9E713
:1030F0002B68C06CDB6A98422CBF00200120F2E7ED
:10310000B805002058010020DC00002038B508B9BF
:10311000002038BD1B4B1C68844208D04FF0500380
:1031200083F31188BFF36F8FBFF34F8FFEE7236DDB
:1031300043B94FF0500383F31188BFF36F8FBFF390
:103140004F8FFEE7E16AE26C013B91422365DFD0DD
:10315000002BDDD1251D2846FEF70DFEE36CE36252
:10316000C3F13802A261084A11688B4288BF13601C
:10317000064A142000FB03202946FEF7DAFD012051
:10318000C7E700BFB8050020DC0000205801002080
:1031900070B50446002841D0026D42B94FF050038B
:1031A00083F31188BFF36F8FBFF34F8FFEE7C36CBC
:1031B000994238BF1946C36A8B422FD0012A2DD1BC
:1031C000174A1268824208D14FF0500383F31188E6
:1031D000BFF36F8FBFF34F8FFEE78269114DC1625E
:1031E000002A4FF0140202FB03534269A4BFC1F14D
:1031F000380181619A4211D1061D3046FEF7BBFDB0
:10320000094AE36A116814208B4200FB03503146DF
:10321000BDE8704088BF1360FEF78BBD70BD00BF76
:10322000B805002058010020DC000020044B1A687B
:103230001AB119680A6D01320A651868704700BF33
:10324000B8050020914208B5416000610AD8D21A41
:1032500083699A420DD2084B011D1868FEF774FD70
:10326000002008BD9A4201D2994202D2034B011DAF
:10327000F3E70120F5E700BFB8060020BC060020F8
:10328000F7B5114C00F006FD2568BDB90F4F104E83
:103290003846FEF740FD3046FEF73DFD0D4B0E4A29
:1032A0001F600E4B10211E600A200D4B0095FEF78B
:1032B0003AFE206010B10B49FFF7F6F903B0BDE804
:1032C000F04000F007BD00BFB4060020D406002087
:1032D000C0060020BC0600200C060020B806002016
:1032E000BC0500209548000810B588B0FFF7C8FF5E
:1032F000124B1B68B3B1002407AA06A905A8CDE9A3
:10330000054400F053FB059B0293069B01930223A7
:103310000093079A0A490B482346FFF7AFFB0A4B75
:10332000186040B94FF0500383F31188BFF36F8FDB
:10333000BFF34F8FFEE7012008B010BDB406002098
:103340009A48000819340008B00600207FB51546D9
:1033500004461A4640B94FF0500383F31188BFF377
:103360006F8FBFF34F8FFEE70D4E306888B1052990
:10337000CDE9001502940EDCFFF77AFE0346022B1E
:103380004FF0000330680CBF089A1A466946FEF7F2
:103390007EFE04B070BD00236946FEF72AFFF8E701
:1033A000B4060020F7B51A4D2B681A682AB9194AD5
:1033B00011682960136003B0F0BDDB68DC681E682B
:1033C000271D3846FEF7D7FC236A2046984794F815
:1033D00028305B07E8D5A36933449E4206D22868AB
:1033E000636024613946FEF7AFFCDDE700230093FC
:1033F000324619462046FFF7A9FF0028D4D14FF0E6
:10340000500383F31188BFF36F8FBFF34F8FFEE735
:10341000BC060020B80600202DE9F043764F774E19
:1034200087B03B68D3F80080B8F1000F28D0DB6884
:10343000D3F800800024FFF7DBFBFFF7E1FB3368E4
:10344000984205461ED3306024B36D4B1B681C6840
:10345000B4FA84F464096B4B22461868A8EB0501A2
:10346000FFF761F9FFF768FC88B94FF0E0234FF0F0
:103470008052C3F8042DBFF34F8FBFF36F8F06E068
:103480000124D8E7FFF78EFF3560FFF755FCDFF822
:10349000748138E08045DED8FFF74EFC3B68DB687E
:1034A000D3F80C9009F10400FEF765FC99F8283078
:1034B000580719D5D9F8181043462A4641444846BA
:1034C000FFF7C0FEA0B1009423464246214648467D
:1034D000FFF73CFF60B94FF0500383F31188BFF34F
:1034E0006F8FBFF34F8FFEE723F0010389F8283079
:1034F000D9F8203048469847C9E7039B0599984773
:10350000029B002B0BDAD8F80000002202A9FEF77C
:103510001EFF002885D0029B0498002BEDDB049C45
:10352000636993B9FFF76CFB33689842054601D293
:10353000FFF738FF029B3560092BE4D8DFE803F082
:10354000090909333A530909333A201DFEF713FCE0
:10355000E8E794F82830A16943F0010384F82830A3
:10356000039B2A4619442046FFF76CFE0028CAD068
:10357000236A2046984794F828305907C3D5A26992
:10358000039900230A44009319462046FFF7DEFE04
:103590000028B8D14FF0500383F31188BFF36F8F29
:1035A000BFF34F8FFEE794F8283023F0010384F82F
:1035B0002830A8E794F828300399A16143F001036B
:1035C00084F8283041B94FF0500383F31188BFF3DA
:1035D0006F8FBFF34F8FFEE72B462A4629442046C4
:1035E000FFF730FE8FE794F828309A07DDD42046A5
:1035F00000F0A6FA87E700BFBC060020AC0600205A
:10360000B8060020B406002008B54FF0E0231B697F
:10361000FFF72EFD012803D0BDE8084000F0A2BB53
:1036200008BD0000EFF305832BB9064B186828B9D5
:1036300001221A6070476FF0050070474FF0FF30AD
:10364000704700BFA811002010B5EFF305845CB9E6
:10365000084B1A68012A0AD1074AD47702221A6055
:10366000FFF776FA204610BD6FF00500FBE74FF03C
:10367000FF30F8E7A811002000ED00E0F0B587B0BA
:10368000144600220B460592EFF30582FAB9F0B119
:1036900054B3A56925B1691E372902D9002017E066
:1036A00018256268D207F9D466699EB1B208D4E9D8
:1036B000027C216887B1BCF5187F08D3246934B136
:1036C0002EB1CDE901470095FFF7D8F9059005988F
:1036D00007B0F0BD8022EAE7BCF1000FF7D1246902
:1036E000002CF4D10C4601E01825802205A9CDE973
:1036F000005192B22146FFF7FBF901281CBF0023BD
:103700000593E4E708B5EFF3058222B908B1FFF7A6
:1037100087FB002008BD6FF00500FBE7F7B5044606
:103720000E461546EFF3058242B938B1884205D3FB
:1037300055B1D5E902372BB14F2F22D800242046AE
:1037400003B0F0BD002FF9D1012C0CD0204631463A
:10375000FEF77FFC04460028F0D085B929462046B4
:10376000FEF7A2FFEBE7032200210120FEF729FC70
:103770000EE01A46FEF74CFC04460028DED02D6809
:10378000ECE70128F5D1032100911146FEF7CBFBB0
:1037900004460028D2D0002EDFD000231A46194656
:1037A000FEF775FC0128D8D02046FEF7A7FFC5E735
:1037B00013B50C4628B3EFF30583CBB109BB01AABF
:1037C0000191FEF723FF012803D06FF0020002B041
:1037D00010BD019B0BB90020F9E74FF0E0234FF03B
:1037E0008052C3F8042DBFF34F8FBFF36F8FF2E702
:1037F000FEF74CFE0128EED0002CE6D06FF0010061
:10380000E5E76FF00300E2E707B518B3EFF30583D0
:10381000CBB1002301A90193FEF748FD012804D094
:103820006FF0020003B05DF804FB019B4BB14FF059
:10383000E0234FF08052C3F8042DBFF34F8FBFF346
:103840006F8F0020EEE71A461946FEF720FC01288C
:10385000F7D0E5E76FF00300E4E7F7B505460E465D
:103860001446EFF305871FB10025284603B0F0BDCD
:103870000028F9D00029F7D0DAB1D2E9023283B1B9
:103880004F2AF1D92269002AEED066694D43AE4233
:10389000EAD30097FEF747FB05460028E4D02468EA
:1038A00011E0002AE0D12369002BDDD16369002BF0
:1038B000DAD1284600223146FEF783FB0546002870
:1038C000D2D0002CEBD121462846FEF7EDFECCE706
:1038D00073B51C46EFF30586DEB138B331B32BBBAD
:1038E00001AA0193FEF785FC012803D06FF00200C6
:1038F00002B070BD019B0BB90020F9E74FF0E02347
:103900004FF08052C3F8042DBFF34F8FBFF36F8F7A
:10391000F2E758B151B133462246FEF7B8FB012811
:10392000EAD0002CE2D06FF00100E1E76FF0030075
:10393000DEE737B51C46EFF30583DBB130B329B3BF
:1039400024BB01AA0194FEF761FE012803D06FF0A9
:10395000020003B030BD019B0BB90020F9E74FF026
:10396000E0234FF08052C3F8042DBFF34F8FBFF315
:103970006F8FF2E750B149B12246FEF7E8FC01280B
:10398000EBD0002CE3D06FF00100E2E76FF0030012
:10399000DFE70000034B0360034B0B6080231360E1
:1039A000704700BF480F0020480D0020034B036004
:1039B000034B0B604FF4807313607047E80A0020DC
:1039C000E806002010B5104B1A461B688342FBD353
:1039D00054681119884201BF4168104609195160A5
:1039E000446801198B420CD1084909688B4203D005
:1039F00059682144416019680160904218BF106005
:103A000010BD1946F8E700BFC4110020C011002006
:103A10002DE9F0410446FFF7EBF84249424D0B68AF
:103A20000BBB424A56071FBFD01D20F0070002F60D
:103A3000B832131A0CBF40F6B833024613443C4E5A
:103A4000083B23F00703002070603260C3E90000E8
:103A5000981AC2E900300B60364B1860364B18607C
:103A60004FF000432B602E68264255D1002C46D0E3
:103A700004F1080360071CBF23F007030833002B81
:103A80004AD02D4F3C689C4246D3294A1568686845
:103A9000984204D2D5F800C0BCF1000F15D10968D6
:103AA000A94239D02968D2F800801160C21A102AC0
:103AB00012D9E81841070BD04FF0500383F3118857
:103AC000BFF36F8FBFF34F8FFEE72A466546DEE7F1
:103AD00042606B60FFF776FF6A681649A41A1643C6
:103AE000164A08683C6000232B6013686E608442AD
:103AF00003F1010338BF0C60136008F10804FFF7FD
:103B00001BF963070AD04FF0500383F31188BFF30A
:103B10006F8FBFF34F8FFEE70024F0E72046BDE82C
:103B2000F08100BFC0110020AC110020CC1100209A
:103B3000C4110020B8110020BC110020B4110020D5
:103B400010B5044690B31A4A50F8043C1268134268
:103B500008D14FF0500383F31188BFF36F8FBFF389
:103B60004F8FFEE750F8081C41B14FF0500383F32C
:103B70001188BFF36F8FBFF34F8FFEE723EA020375
:103B800040F8043CFFF734F80A4A54F8043C116842
:103B9000A4F108000B441360FFF714FF064A1368F2
:103BA000BDE8104001331360FFF7C6B810BD00BF79
:103BB000AC110020BC110020B011002008480068A2
:103BC000006880F308884FF0000080F3148862B624
:103BD00061B6BFF34F8FBFF36F8F00DF00BF0000F0
:103BE00008ED00E0DFF80C00016841F470010160AD
:103BF0007047000088ED00E082B0002301930D4B78
:103C00001B68013308D04FF0500383F31188BFF3D2
:103C10006F8FBFF34F8FFEE74FF0500383F3118890
:103C2000BFF36F8FBFF34F8F019B002BFCD002B00F
:103C3000704700BF0C0000204FF0807340F8043C38
:103C4000074B40F80C3C21F001016FF0020340F8F3
:103C5000081C40F8202C40F8243C4438704700BF32
:103C6000F93B000800000000000000000000000018
:103C7000074B19680868B0E8F04F80F30988BFF374
:103C80006F8F4FF0000080F311887047AFF3008012
:103C9000B80500204FF0500383F31188BFF36F8FF6
:103CA000BFF34F8F0A4A13680133012B13600ED103
:103CB0004FF0E023D3F8043DDBB243B14FF05003A3
:103CC00083F31188BFF36F8FBFF34F8FFEE7704709
:103CD0000C000020084A136843B94FF0500383F3E7
:103CE0001188BFF36F8FBFF34F8FFEE7013B136067
:103CF0000BB983F3118870470C000020000000000E
:103D0000EFF30980BFF36F8F154B1A681EF0100F89
:103D100008BF20ED108A20E9F04F106009B44FF081
:103D2000500080F31188BFF34F8FBFF36F8FFFF701
:103D30009BF84FF0000080F3118809BC19680868EF
:103D4000B0E8F04F1EF0100F08BFB0EC108A80F3FF
:103D50000988BFF36F8F7047AFF30080AFF3008027
:103D6000B805002008B54FF0500383F31188BFF366
:103D70006F8FBFF34F8FFEF749FF28B14FF0E0235D
:103D80004FF08052C3F8042D002383F3118808BD3F
:103D90004FF0E022002313619361054B4FF47A71D9
:103DA0001B68B3FBF1F3013B5361072313617047B9
:103DB000000000204FF0E02337B5D3F8001D394A4A
:103DC000914208D14FF0500383F31188BFF36F8FF6
:103DD000BFF34F8FFEE7D3F8002D334B9A4208D143
:103DE0004FF0500383F31188BFF36F8FBFF34F8FF2
:103DF000FEE72E4B1A78D2B20192FF221A701B787E
:103E00002B4ADBB28DF803309DF8033003F05003EA
:103E10001370284A072313609DF80300000603F17E
:103E2000FF310AD4032B11D04FF0500383F31188D4
:103E3000BFF36F8FBFF34F8FFEE79DF80330116024
:103E40005B00DBB28DF803300B46E5E74FF44073BF
:103E50001360019B154A4FF0E024DBB21370D4F8D5
:103E6000203D43F47003C4F8203DD4F8203D43F0D6
:103E70007043C4F8203DFFF78BFF0F4B00251D60FA
:103E8000FFF7B0FED4F8343F43F04043C4F8343F6A
:103E9000FFF794FEFEF7E8FFFFF7AEFE284603B0FB
:103EA00030BD00BF71C20F4170C20F4100E400E09D
:103EB000881D0020841D00200C000020EFF30583E6
:103EC0000F2B0ED9114A9B5C114A12789A4208D9DD
:103ED0004FF0500383F31188BFF36F8FBFF34F8F01
:103EE000FEE74FF0E0230B4AD3F80C3D126803F4D1
:103EF000E063934208D94FF0500383F31188BFF376
:103F00006F8FBFF34F8FFEE7704700BFF0E300E015
:103F1000881D0020841D002037B56420FFF7F2FBC8
:103F20000E4C0F4D20684FF0FF3300226946FFF71B
:103F300000FD70B90B4807226946FDF711FA18B960
:103F400028686421FFF734FC20214FF09040FDF7F2
:103F5000EFF80120FFF7D6FBE4E700BF901D00203B
:103F60008C1D0020A01D00200148FDF72FBA00BFC6
:103F7000A01D002002680D4B9A4213B514D10C4CC1
:103F80002068A37900900B48A2888DF806300023A2
:103F90006946ADF8042000681A46FFF799FC064808
:103FA00007222146FDF794FE02B010BD00440040F8
:103FB000981D0020901D0020A01D00200268044BC9
:103FC0009A4203D1034B1868FFF71EBC704700BF2D
:103FD000004400408C1D00200368084A93420CD125
:103FE00008221A6204221A6201221A6202221A624A
:103FF000034904480722FDF76BBE704700440040A8
:10400000981D0020A01D002008B572B620214FF099
:104010009040FDF78DF86420FCF778FAF6E700B5DC
:1040200097B04022002106A800F012FB00211422C4
:10403000684600F00DFB1023059301230C9305A89F
:1040400060230E93FCF702FB014608B1FFF7DCFF8B
:104050000F23CDE90030CDE9020004906846FCF75B
:10406000C9FD0028F2D117B05DF804FB80B500242B
:104070008CB0FCF736FAFFF7D2FFCDE905443B4D93
:104080000794EB6C43F00103EB64EB6C03F001036A
:104090004FF00C09029303A94FF0904020274FF0F6
:1040A0000108029BCDE903780726FCF783FF022372
:1040B0000DEB09014FF09040CDE90543CDE90393A5
:1040C0000796FCF777FFAB6D294A43F40033AB65E5
:1040D000AB6DD46103F400330193019B254B136056
:1040E00010464FF4E133C2E90134C2E90344C2E9A6
:1040F0000594FDF762FD044608B1FFF785FF02460F
:1041000031460A20FFF7A9FB1B4B224618602146C7
:104110004046FFF703FB194B3A461860214604A8B6
:1041200000F096FA164B03934FF480621823CDE902
:104130000823214603AA1348FFF7A0FA124B186080
:104140000320FDF74FF8224605212620FDF75CF8F5
:104150002620FDF78BF80D4905483246FDF7B8FDDE
:10416000FFF760FAFFF770FAFEE700BF00100240A9
:10417000A01D002000440040901D00208C1D002048
:10418000A2480008193F0008941D0020981D002037
:10419000FEE7FEE7FEE7FEE7FEE770470148FCF7B3
:1041A00092B800BF281E00200D4B1A6E42F001028B
:1041B00082B01A661A6E02F001020092009A9A6D9D
:1041C00042F080529A659B6D03F080530193019BEE
:1041D00000220F216FF0010002B0FDF715B800BFFB
:1041E0000010024010B594B004461422002102A829
:1041F00000F02EFA3422002107A800F029FA2268E4
:10420000174B9A4229D1022307A80793FCF7DEFD3A
:1042100008B1FFF7F9FE134B9A6D42F400329A652C
:104220009A6D02F400320092009ADA6C42F00102B8
:10423000DA64DB6C03F001030193019B0C2202237F
:104240000021CDE902230323CDE904134FF0904070
:10425000072302A90693FCF7ADFE14B010BD00BF02
:10426000004400400010024030B5214B9A6D42F0EE
:10427000100289B09A659B6D03F010030293054606
:1042800001A903A8029BFCF783FD069B4BBBFCF72F
:104290005BFD184A184B136040F2E733D360174BAD
:1042A000B0FBF3F3013B53601046002313619360AE
:1042B0009361FCF7E3F8044680B90E48FBF7D4FF9E
:1042C000044658B93620FCF7D1FF0F2D0DD82246F1
:1042D00029463620FCF798FF094B1D60204609B09F
:1042E00030BDFCF731FD4000D3E70124F6E700BF05
:1042F00000100240281E00200010004040420F0025
:1043000008000020DFF834D0FBF7A2FF0C480D496D
:104310000D4A002302E0D458C4500433C4188C4220
:10432000F9D30A4A0A4C002301E013600432A24286
:10433000FBD300F0F3F9FFF799FEFEE700800020C1
:104340000000002060000020C84800086000002035
:10435000B41F0020FEE700002DE9F047089D0F463E
:1043600004468C46002B48D18A42164661D9B2FADF
:1043700082F34BB1C3F1200201FA03FC20FA02F2EE
:104380009E4042EA0C0C9C404FEA164EB7B2BCFB72
:10439000FEF1220C0EFB11CC42EA0C4201FB07F0AD
:1043A000904209D9B21801F1FF3C80F0EE809042B2
:1043B00040F2EB8002393244121AA4B2B2FBFEF092
:1043C0000EFB102244EA024400FB07F7A74209D97A
:1043D000341900F1FF3280F0DA80A74240F2D78032
:1043E0003444023840EA0140E41B00211DB1DC40A6
:1043F0000023C5E90043BDE8F0878B4206D90DB123
:10440000C5E9000100210846BDE8F087B3FA83F151
:10441000002948D1BB4202D3824200F20781841AAC
:1044200067EB030201209446002DE4D0C5E9004C5F
:10443000E1E7002A00F09280B2FA82F3002B40F00C
:10444000A8808A1A4FEA164E1FFA86FC0121200C1A
:10445000B2FBFEF70EFB172240EA02420CFB07F00C
:10446000904207D9B21807F1FF3802D2904200F209
:10447000E2804746121AA4B2B2FBFEF00EFB1022F5
:1044800044EA02440CFB00FCA44507D9341900F1AE
:10449000FF3202D2A44500F2CB801046A4EB0C04FC
:1044A00040EA0740A2E7C1F120068B4022FA06FC51
:1044B0004CEA030C07FA01F420FA06F3F7404FEA3E
:1044C0001C49234300FA01F81FFA8CFEB7FBF9F0F0
:1044D0001C0C09FB107744EA074400FB0EF7A742C7
:1044E00002FA01F20AD91CEB040400F1FF3A80F051
:1044F0009B80A74240F2988002386444E41B9FB23C
:10450000B4FBF9F309FB134447EA044403FB0EFE32
:10451000A64509D91CEB040403F1FF3780F0828023
:10452000A6457FD9023B644443EA0040A4EB0E0455
:10453000A0FB02E7BC427346B94663D360D05DB1CD
:10454000B8EB030264EB090404FA06F622FA01F35D
:104550001E43CC40C5E9006400214CE762084808CE
:1045600042EAC1710B0C43EA00438AB242EA0342B9
:10457000B3FBF6F1E407B4463746B6461F23B0FB5B
:10458000F6F0D21B41EA004161E7614614E71046AC
:1045900028E7C3F1200120FA01F29E4027FA01F139
:1045A0009F403A434FEA164E1FFA86FCB1FBFEF7D6
:1045B0000EFB1710110C41EA004107FB0CF888456F
:1045C00004FA03F43AD9711807F1FF3001D2884593
:1045D0001FD8A1EB0801B1FBFEF808FB0CF70EFB9E
:1045E000181192B242EA0142BA422FD2B21808F12F
:1045F000FF31C6D2BA42C4D2A8F102013244C0E7A8
:10460000F0459CD2BEEB020367EB0C070138B946BC
:1046100095E7A6EB08084144B81EB1FBFEF808FB7D
:104620000CF7DCE73B467FE7504667E70846FBE6CA
:104630003444023832E7023F32441BE7A1EB080161
:104640003846B1FBFEF808FB0CF7C8E7414698E78F
:1046500002440346934200D1704703F8011BF9E777
:104660002D4B1B68834270B5044653D0C3691BB3FE
:10467000DB6863B10025E369DB685959B1B90435DA
:10468000802DF8D1E3692046D96800F07BF8E36912
:10469000196811B1204600F075F8E3699D685DB1B5
:1046A000294620462D6800F06DF8F8E70E68204690
:1046B00000F068F83146E1E7616911B1204600F089
:1046C00061F8E16911B1204600F05CF8216B11B18D
:1046D000204600F057F8616B11B1204600F052F807
:1046E000A16B11B1204600F04DF8A16C11B120462C
:1046F00000F048F8616C11B1204600F043F8E16A1F
:1047000011B1204600F03EF8236A1BB12046BDE8F7
:104710007040184770BD00BF1000002070B50D4BF1
:104720000D4D5B1B9C100026A64209D100F080F8BD
:104730000A4D0B4B5B1B9C100026A64205D170BD99
:1047400055F8043B98470136EEE755F8043B984787
:104750000136F2E7B8480008B8480008B848000831
:10476000BC480008704770470A44914200F1FF338B
:1047700000D1704710B511F8014B03F8014F914279
:10478000F9D110BD38B50546002941D051F8043C97
:104790000C1F002BB8BFE41800F03EF81D4A136848
:1047A00033B9636014602846BDE8384000F03AB879
:1047B000A34208D9206821188B4201BF19685B68A1
:1047C00009182160EDE71A465B680BB1A342FAD9DC
:1047D00011685018A0420BD1206801445018834240
:1047E0001160E0D118685B68536008441060DAE734
:1047F00002D90C232B60D6E7206821188B4204BF16
:1048000019685B68636004BF091821605460CAE7D7
:1048100038BD00BFB01F00200148FFF7A3BF00BF95
:10482000AC1F00200148FFF79EBF00BFAC1F002057
:10483000F8B500BFF8BC08BC9E467047F8B500BF8D
:08484000F8BC08BC9E4670475D
:10484800A0860100400D0300801A060000350C0008
:1048580040420F0080841E0000093D0000127A00CB
:104868000024F40000366E010048E801006CDC0208
:104878000000000001020304000000000000000026
:10488800010203040607080949444C4500546D72A7
:104898005100546D722053766300556172745461EF
:0848A800736B0000000000002A
:0848B000A8FAFF7F01000000DF
:0848B8002D02000800000000C1
:0848C0000502000800000000E1
:1048C80000093D000100000010000000AAAAAAAAE1
:1048D8001400002000000000741E0020DC1E0020D0
:1048E800441F00200000000000000000000000003D
:1048F80000000000000000000000000000000000B0
:10490800000000000000000000000000000000009F
:10491800000000000000000000000000000000008F
:0400000508004305A7
:00000001FF
